{"contracts/RandomIpfsNft.sol":{"RandomIpfsNft":{"abi":[{"inputs":[{"internalType":"address","name":"vrfCoordinatorV2","type":"address"},{"internalType":"uint64","name":"subscriptionId","type":"uint64"},{"internalType":"bytes32","name":"gasLane","type":"bytes32"},{"internalType":"uint32","name":"callbackGasLimit","type":"uint32"},{"internalType":"string[3]","name":"dogTokenUris","type":"string[3]"},{"internalType":"uint256","name":"mintFee","type":"uint256"}],"stateMutability":"nonpayable","type":"constructor"},{"inputs":[{"internalType":"address","name":"have","type":"address"},{"internalType":"address","name":"want","type":"address"}],"name":"OnlyCoordinatorCanFulfill","type":"error"},{"inputs":[],"name":"RandomIpfsNft__NeedMoreETHSent","type":"error"},{"inputs":[],"name":"RandomIpfsNft__RangeOutOfBounds","type":"error"},{"inputs":[],"name":"RandomIpfsNft__TransferFailed","type":"error"},{"anonymous":false,"inputs":[{"indexed":true,"internalType":"address","name":"owner","type":"address"},{"indexed":true,"internalType":"address","name":"approved","type":"address"},{"indexed":true,"internalType":"uint256","name":"tokenId","type":"uint256"}],"name":"Approval","type":"event"},{"anonymous":false,"inputs":[{"indexed":true,"internalType":"address","name":"owner","type":"address"},{"indexed":true,"internalType":"address","name":"operator","type":"address"},{"indexed":false,"internalType":"bool","name":"approved","type":"bool"}],"name":"ApprovalForAll","type":"event"},{"anonymous":false,"inputs":[{"indexed":false,"internalType":"enum RandomIpfsNft.Breed","name":"dogBreed","type":"uint8"},{"indexed":false,"internalType":"address","name":"minter","type":"address"}],"name":"NftMinted","type":"event"},{"anonymous":false,"inputs":[{"indexed":true,"internalType":"uint256","name":"requestId","type":"uint256"},{"indexed":false,"internalType":"address","name":"requester","type":"address"}],"name":"NftRequested","type":"event"},{"anonymous":false,"inputs":[{"indexed":true,"internalType":"address","name":"previousOwner","type":"address"},{"indexed":true,"internalType":"address","name":"newOwner","type":"address"}],"name":"OwnershipTransferred","type":"event"},{"anonymous":false,"inputs":[{"indexed":true,"internalType":"address","name":"from","type":"address"},{"indexed":true,"internalType":"address","name":"to","type":"address"},{"indexed":true,"internalType":"uint256","name":"tokenId","type":"uint256"}],"name":"Transfer","type":"event"},{"inputs":[{"internalType":"address","name":"to","type":"address"},{"internalType":"uint256","name":"tokenId","type":"uint256"}],"name":"approve","outputs":[],"stateMutability":"nonpayable","type":"function"},{"inputs":[{"internalType":"address","name":"owner","type":"address"}],"name":"balanceOf","outputs":[{"internalType":"uint256","name":"","type":"uint256"}],"stateMutability":"view","type":"function"},{"inputs":[{"internalType":"uint256","name":"tokenId","type":"uint256"}],"name":"getApproved","outputs":[{"internalType":"address","name":"","type":"address"}],"stateMutability":"view","type":"function"},{"inputs":[{"internalType":"uint256","name":"moddedRng","type":"uint256"}],"name":"getBreedFromModdedRng","outputs":[{"internalType":"enum RandomIpfsNft.Breed","name":"","type":"uint8"}],"stateMutability":"pure","type":"function"},{"inputs":[],"name":"getChanceArray","outputs":[{"internalType":"uint256[3]","name":"","type":"uint256[3]"}],"stateMutability":"pure","type":"function"},{"inputs":[{"internalType":"uint256","name":"index","type":"uint256"}],"name":"getDogTokenUris","outputs":[{"internalType":"string","name":"","type":"string"}],"stateMutability":"view","type":"function"},{"inputs":[],"name":"getMinFee","outputs":[{"internalType":"uint256","name":"","type":"uint256"}],"stateMutability":"view","type":"function"},{"inputs":[],"name":"getTokenCounter","outputs":[{"internalType":"uint256","name":"","type":"uint256"}],"stateMutability":"view","type":"function"},{"inputs":[{"internalType":"address","name":"owner","type":"address"},{"internalType":"address","name":"operator","type":"address"}],"name":"isApprovedForAll","outputs":[{"internalType":"bool","name":"","type":"bool"}],"stateMutability":"view","type":"function"},{"inputs":[],"name":"name","outputs":[{"internalType":"string","name":"","type":"string"}],"stateMutability":"view","type":"function"},{"inputs":[],"name":"owner","outputs":[{"internalType":"address","name":"","type":"address"}],"stateMutability":"view","type":"function"},{"inputs":[{"internalType":"uint256","name":"tokenId","type":"uint256"}],"name":"ownerOf","outputs":[{"internalType":"address","name":"","type":"address"}],"stateMutability":"view","type":"function"},{"inputs":[{"internalType":"uint256","name":"requestId","type":"uint256"},{"internalType":"uint256[]","name":"randomWords","type":"uint256[]"}],"name":"rawFulfillRandomWords","outputs":[],"stateMutability":"nonpayable","type":"function"},{"inputs":[],"name":"renounceOwnership","outputs":[],"stateMutability":"nonpayable","type":"function"},{"inputs":[],"name":"requestNft","outputs":[{"internalType":"uint256","name":"requestId","type":"uint256"}],"stateMutability":"payable","type":"function"},{"inputs":[{"internalType":"uint256","name":"","type":"uint256"}],"name":"s_requestIdToSender","outputs":[{"internalType":"address","name":"","type":"address"}],"stateMutability":"view","type":"function"},{"inputs":[],"name":"s_tokenCounter","outputs":[{"internalType":"uint256","name":"","type":"uint256"}],"stateMutability":"view","type":"function"},{"inputs":[{"internalType":"address","name":"from","type":"address"},{"internalType":"address","name":"to","type":"address"},{"internalType":"uint256","name":"tokenId","type":"uint256"}],"name":"safeTransferFrom","outputs":[],"stateMutability":"nonpayable","type":"function"},{"inputs":[{"internalType":"address","name":"from","type":"address"},{"internalType":"address","name":"to","type":"address"},{"internalType":"uint256","name":"tokenId","type":"uint256"},{"internalType":"bytes","name":"data","type":"bytes"}],"name":"safeTransferFrom","outputs":[],"stateMutability":"nonpayable","type":"function"},{"inputs":[{"internalType":"address","name":"operator","type":"address"},{"internalType":"bool","name":"approved","type":"bool"}],"name":"setApprovalForAll","outputs":[],"stateMutability":"nonpayable","type":"function"},{"inputs":[{"internalType":"bytes4","name":"interfaceId","type":"bytes4"}],"name":"supportsInterface","outputs":[{"internalType":"bool","name":"","type":"bool"}],"stateMutability":"view","type":"function"},{"inputs":[],"name":"symbol","outputs":[{"internalType":"string","name":"","type":"string"}],"stateMutability":"view","type":"function"},{"inputs":[{"internalType":"uint256","name":"tokenId","type":"uint256"}],"name":"tokenURI","outputs":[{"internalType":"string","name":"","type":"string"}],"stateMutability":"view","type":"function"},{"inputs":[{"internalType":"address","name":"from","type":"address"},{"internalType":"address","name":"to","type":"address"},{"internalType":"uint256","name":"tokenId","type":"uint256"}],"name":"transferFrom","outputs":[],"stateMutability":"nonpayable","type":"function"},{"inputs":[{"internalType":"address","name":"newOwner","type":"address"}],"name":"transferOwnership","outputs":[],"stateMutability":"nonpayable","type":"function"},{"inputs":[],"name":"withdraw","outputs":[],"stateMutability":"nonpayable","type":"function"}],"devdoc":{"kind":"dev","methods":{"approve(address,uint256)":{"details":"See {IERC721-approve}."},"balanceOf(address)":{"details":"See {IERC721-balanceOf}."},"getApproved(uint256)":{"details":"See {IERC721-getApproved}."},"isApprovedForAll(address,address)":{"details":"See {IERC721-isApprovedForAll}."},"name()":{"details":"See {IERC721Metadata-name}."},"owner()":{"details":"Returns the address of the current owner."},"ownerOf(uint256)":{"details":"See {IERC721-ownerOf}."},"renounceOwnership()":{"details":"Leaves the contract without owner. It will not be possible to call `onlyOwner` functions anymore. Can only be called by the current owner. NOTE: Renouncing ownership will leave the contract without an owner, thereby removing any functionality that is only available to the owner."},"safeTransferFrom(address,address,uint256)":{"details":"See {IERC721-safeTransferFrom}."},"safeTransferFrom(address,address,uint256,bytes)":{"details":"See {IERC721-safeTransferFrom}."},"setApprovalForAll(address,bool)":{"details":"See {IERC721-setApprovalForAll}."},"supportsInterface(bytes4)":{"details":"See {IERC165-supportsInterface}."},"symbol()":{"details":"See {IERC721Metadata-symbol}."},"tokenURI(uint256)":{"details":"See {IERC721Metadata-tokenURI}."},"transferFrom(address,address,uint256)":{"details":"See {IERC721-transferFrom}."},"transferOwnership(address)":{"details":"Transfers ownership of the contract to a new account (`newOwner`). Can only be called by the current owner."}},"version":1},"evm":{"bytecode":{"linkReferences":{},"object":"6101406040523480156200001257600080fd5b50604051620047973803806200479783398181016040528101906200003891906200074f565b6040518060400160405280600d81526020017f52616e646f6d497066734e6674000000000000000000000000000000000000008152506040518060400160405280600381526020017f52494e0000000000000000000000000000000000000000000000000000000000815250878073ffffffffffffffffffffffffffffffffffffffff1660808173ffffffffffffffffffffffffffffffffffffffff1681525050508160009081620000eb919062000a4b565b508060019081620000fd919062000a4b565b5050506200012062000114620001b660201b60201c565b620001be60201b60201c565b8573ffffffffffffffffffffffffffffffffffffffff1660a08173ffffffffffffffffffffffffffffffffffffffff16815250508467ffffffffffffffff1660c08167ffffffffffffffff16815250508360e081815250508263ffffffff166101008163ffffffff168152505081600a906003620001a092919062000284565b5080610120818152505050505050505062000b32565b600033905090565b6000600760009054906101000a900473ffffffffffffffffffffffffffffffffffffffff16905081600760006101000a81548173ffffffffffffffffffffffffffffffffffffffff021916908373ffffffffffffffffffffffffffffffffffffffff1602179055508173ffffffffffffffffffffffffffffffffffffffff168173ffffffffffffffffffffffffffffffffffffffff167f8be0079c531659141344cd1fd0a4f28419497f9722a3daafe3b4186f6b6457e060405160405180910390a35050565b828054828255906000526020600020908101928215620002d1579160200282015b82811115620002d0578251829081620002bf919062000a4b565b5091602001919060010190620002a5565b5b509050620002e09190620002e4565b5090565b5b80821115620003085760008181620002fe91906200030c565b50600101620002e5565b5090565b5080546200031a9062000844565b6000825580601f106200032e57506200034f565b601f0160209004906000526020600020908101906200034e919062000352565b5b50565b5b808211156200036d57600081600090555060010162000353565b5090565b6000604051905090565b600080fd5b600080fd5b600073ffffffffffffffffffffffffffffffffffffffff82169050919050565b6000620003b28262000385565b9050919050565b620003c481620003a5565b8114620003d057600080fd5b50565b600081519050620003e481620003b9565b92915050565b600067ffffffffffffffff82169050919050565b6200040981620003ea565b81146200041557600080fd5b50565b6000815190506200042981620003fe565b92915050565b6000819050919050565b62000444816200042f565b81146200045057600080fd5b50565b600081519050620004648162000439565b92915050565b600063ffffffff82169050919050565b62000485816200046a565b81146200049157600080fd5b50565b600081519050620004a5816200047a565b92915050565b600080fd5b6000601f19601f8301169050919050565b7f4e487b7100000000000000000000000000000000000000000000000000000000600052604160045260246000fd5b620004fb82620004b0565b810181811067ffffffffffffffff821117156200051d576200051c620004c1565b5b80604052505050565b60006200053262000371565b9050620005408282620004f0565b919050565b600067ffffffffffffffff821115620005635762000562620004c1565b5b602082029050919050565b600080fd5b600080fd5b600067ffffffffffffffff821115620005965762000595620004c1565b5b620005a182620004b0565b9050602081019050919050565b60005b83811015620005ce578082015181840152602081019050620005b1565b60008484015250505050565b6000620005f1620005eb8462000578565b62000526565b90508281526020810184848401111562000610576200060f62000573565b5b6200061d848285620005ae565b509392505050565b600082601f8301126200063d576200063c620004ab565b5b81516200064f848260208601620005da565b91505092915050565b60006200066f620006698462000545565b62000526565b905080602084028301858111156200068c576200068b6200056e565b5b835b81811015620006da57805167ffffffffffffffff811115620006b557620006b4620004ab565b5b808601620006c4898262000625565b855260208501945050506020810190506200068e565b5050509392505050565b600082601f830112620006fc57620006fb620004ab565b5b60036200070b84828562000658565b91505092915050565b6000819050919050565b620007298162000714565b81146200073557600080fd5b50565b60008151905062000749816200071e565b92915050565b60008060008060008060c087890312156200076f576200076e6200037b565b5b60006200077f89828a01620003d3565b96505060206200079289828a0162000418565b9550506040620007a589828a0162000453565b9450506060620007b889828a0162000494565b935050608087015167ffffffffffffffff811115620007dc57620007db62000380565b5b620007ea89828a01620006e4565b92505060a0620007fd89828a0162000738565b9150509295509295509295565b600081519050919050565b7f4e487b7100000000000000000000000000000000000000000000000000000000600052602260045260246000fd5b600060028204905060018216806200085d57607f821691505b60208210810362000873576200087262000815565b5b50919050565b60008190508160005260206000209050919050565b60006020601f8301049050919050565b600082821b905092915050565b600060088302620008dd7fffffffffffffffffffffffffffffffffffffffffffffffffffffffffffffffff826200089e565b620008e986836200089e565b95508019841693508086168417925050509392505050565b6000819050919050565b60006200092c62000926620009208462000714565b62000901565b62000714565b9050919050565b6000819050919050565b62000948836200090b565b62000960620009578262000933565b848454620008ab565b825550505050565b600090565b6200097762000968565b620009848184846200093d565b505050565b5b81811015620009ac57620009a06000826200096d565b6001810190506200098a565b5050565b601f821115620009fb57620009c58162000879565b620009d0846200088e565b81016020851015620009e0578190505b620009f8620009ef856200088e565b83018262000989565b50505b505050565b600082821c905092915050565b600062000a206000198460080262000a00565b1980831691505092915050565b600062000a3b838362000a0d565b9150826002028217905092915050565b62000a56826200080a565b67ffffffffffffffff81111562000a725762000a71620004c1565b5b62000a7e825462000844565b62000a8b828285620009b0565b600060209050601f83116001811462000ac3576000841562000aae578287015190505b62000aba858262000a2d565b86555062000b2a565b601f19841662000ad38662000879565b60005b8281101562000afd5784890151825560018201915060208501945060208101905062000ad6565b8683101562000b1d578489015162000b19601f89168262000a0d565b8355505b6001600288020188555050505b505050505050565b60805160a05160c05160e0516101005161012051613c0762000b9060003960008181610bc20152610f570152600061103101526000610fed0152600061100e01526000610fb101526000818161091c01526109700152613c076000f3fe6080604052600436106101815760003560e01c80636e02007d116100d1578063a36f573b1161008a578063b88d4fde11610064578063b88d4fde14610577578063c87b56dd146105a0578063e985e9c5146105dd578063f2fde38b1461061a57610181565b8063a36f573b146104df578063a51cccf31461051c578063aa1524911461055957610181565b80636e02007d146103e157806370a082311461040c578063715018a6146104495780638da5cb5b1461046057806395d89b411461048b578063a22cb465146104b657610181565b806323b872dd1161013e57806342842e0e1161011857806342842e0e146103255780635cf34bcf1461034e5780635dacf5f4146103795780636352211e146103a457610181565b806323b872dd146102a85780633af25975146102d15780633ccfd60b1461030e57610181565b806301ffc9a71461018657806306fdde03146101c3578063081812fc146101ee578063095ea7b31461022b5780630b21a83b146102545780631fe543e31461027f575b600080fd5b34801561019257600080fd5b506101ad60048036038101906101a891906125c9565b610643565b6040516101ba9190612611565b60405180910390f35b3480156101cf57600080fd5b506101d8610725565b6040516101e591906126bc565b60405180910390f35b3480156101fa57600080fd5b5061021560048036038101906102109190612714565b6107b7565b6040516102229190612782565b60405180910390f35b34801561023757600080fd5b50610252600480360381019061024d91906127c9565b6107fd565b005b34801561026057600080fd5b50610269610914565b6040516102769190612818565b60405180910390f35b34801561028b57600080fd5b506102a660048036038101906102a1919061297b565b61091a565b005b3480156102b457600080fd5b506102cf60048036038101906102ca91906129d7565b6109da565b005b3480156102dd57600080fd5b506102f860048036038101906102f39190612714565b610a3a565b60405161030591906126bc565b60405180910390f35b34801561031a57600080fd5b50610323610aea565b005b34801561033157600080fd5b5061034c600480360381019061034791906129d7565b610b9e565b005b34801561035a57600080fd5b50610363610bbe565b6040516103709190612818565b60405180910390f35b34801561038557600080fd5b5061038e610be6565b60405161039b9190612ad5565b60405180910390f35b3480156103b057600080fd5b506103cb60048036038101906103c69190612714565b610c11565b6040516103d89190612782565b60405180910390f35b3480156103ed57600080fd5b506103f6610c97565b6040516104039190612818565b60405180910390f35b34801561041857600080fd5b50610433600480360381019061042e9190612af0565b610ca1565b6040516104409190612818565b60405180910390f35b34801561045557600080fd5b5061045e610d58565b005b34801561046c57600080fd5b50610475610d6c565b6040516104829190612782565b60405180910390f35b34801561049757600080fd5b506104a0610d96565b6040516104ad91906126bc565b60405180910390f35b3480156104c257600080fd5b506104dd60048036038101906104d89190612b49565b610e28565b005b3480156104eb57600080fd5b5061050660048036038101906105019190612714565b610e3e565b6040516105139190612782565b60405180910390f35b34801561052857600080fd5b50610543600480360381019061053e9190612714565b610e71565b6040516105509190612c00565b60405180910390f35b610561610f53565b60405161056e9190612818565b60405180910390f35b34801561058357600080fd5b5061059e60048036038101906105999190612cd0565b611144565b005b3480156105ac57600080fd5b506105c760048036038101906105c29190612714565b6111a6565b6040516105d491906126bc565b60405180910390f35b3480156105e957600080fd5b5061060460048036038101906105ff9190612d53565b6112b8565b6040516106119190612611565b60405180910390f35b34801561062657600080fd5b50610641600480360381019061063c9190612af0565b61134c565b005b60007f80ac58cd000000000000000000000000000000000000000000000000000000007bffffffffffffffffffffffffffffffffffffffffffffffffffffffff1916827bffffffffffffffffffffffffffffffffffffffffffffffffffffffff1916148061070e57507f5b5e139f000000000000000000000000000000000000000000000000000000007bffffffffffffffffffffffffffffffffffffffffffffffffffffffff1916827bffffffffffffffffffffffffffffffffffffffffffffffffffffffff1916145b8061071e575061071d826113cf565b5b9050919050565b60606000805461073490612dc2565b80601f016020809104026020016040519081016040528092919081815260200182805461076090612dc2565b80156107ad5780601f10610782576101008083540402835291602001916107ad565b820191906000526020600020905b81548152906001019060200180831161079057829003601f168201915b5050505050905090565b60006107c282611439565b6004600083815260200190815260200160002060009054906101000a900473ffffffffffffffffffffffffffffffffffffffff169050919050565b600061080882610c11565b90508073ffffffffffffffffffffffffffffffffffffffff168373ffffffffffffffffffffffffffffffffffffffff1603610878576040517f08c379a000000000000000000000000000000000000000000000000000000000815260040161086f90612e65565b60405180910390fd5b8073ffffffffffffffffffffffffffffffffffffffff16610897611484565b73ffffffffffffffffffffffffffffffffffffffff1614806108c657506108c5816108c0611484565b6112b8565b5b610905576040517f08c379a00000000000000000000000000000000000000000000000000000000081526004016108fc90612ef7565b60405180910390fd5b61090f838361148c565b505050565b60095481565b7f000000000000000000000000000000000000000000000000000000000000000073ffffffffffffffffffffffffffffffffffffffff163373ffffffffffffffffffffffffffffffffffffffff16146109cc57337f00000000000000000000000000000000000000000000000000000000000000006040517f1cf993f40000000000000000000000000000000000000000000000000000000081526004016109c3929190612f17565b60405180910390fd5b6109d68282611545565b5050565b6109eb6109e5611484565b826116ca565b610a2a576040517f08c379a0000000000000000000000000000000000000000000000000000000008152600401610a2190612fb2565b60405180910390fd5b610a3583838361175f565b505050565b6060600a8281548110610a5057610a4f612fd2565b5b906000526020600020018054610a6590612dc2565b80601f0160208091040260200160405190810160405280929190818152602001828054610a9190612dc2565b8015610ade5780601f10610ab357610100808354040283529160200191610ade565b820191906000526020600020905b815481529060010190602001808311610ac157829003601f168201915b50505050509050919050565b610af2611a58565b600047905060003373ffffffffffffffffffffffffffffffffffffffff1682604051610b1d90613032565b60006040518083038185875af1925050503d8060008114610b5a576040519150601f19603f3d011682016040523d82523d6000602084013e610b5f565b606091505b5050905080610b9a576040517fca7e25b700000000000000000000000000000000000000000000000000000000815260040160405180910390fd5b5050565b610bb983838360405180602001604052806000815250611144565b505050565b60007f0000000000000000000000000000000000000000000000000000000000000000905090565b610bee61253b565b6040518060600160405280600a8152602001603c81526020016064815250905090565b600080610c1d83611ad6565b9050600073ffffffffffffffffffffffffffffffffffffffff168173ffffffffffffffffffffffffffffffffffffffff1603610c8e576040517f08c379a0000000000000000000000000000000000000000000000000000000008152600401610c8590613093565b60405180910390fd5b80915050919050565b6000600954905090565b60008073ffffffffffffffffffffffffffffffffffffffff168273ffffffffffffffffffffffffffffffffffffffff1603610d11576040517f08c379a0000000000000000000000000000000000000000000000000000000008152600401610d0890613125565b60405180910390fd5b600360008373ffffffffffffffffffffffffffffffffffffffff1673ffffffffffffffffffffffffffffffffffffffff168152602001908152602001600020549050919050565b610d60611a58565b610d6a6000611b13565b565b6000600760009054906101000a900473ffffffffffffffffffffffffffffffffffffffff16905090565b606060018054610da590612dc2565b80601f0160208091040260200160405190810160405280929190818152602001828054610dd190612dc2565b8015610e1e5780601f10610df357610100808354040283529160200191610e1e565b820191906000526020600020905b815481529060010190602001808311610e0157829003601f168201915b5050505050905090565b610e3a610e33611484565b8383611bd9565b5050565b60086020528060005260406000206000915054906101000a900473ffffffffffffffffffffffffffffffffffffffff1681565b600080600090506000610e82610be6565b905060005b6003811015610f1b57828510158015610ec15750818160038110610eae57610ead612fd2565b5b602002015183610ebe9190613174565b85105b15610ee357806002811115610ed957610ed8612b89565b5b9350505050610f4e565b818160038110610ef657610ef5612fd2565b5b602002015183610f069190613174565b92508080610f13906131a8565b915050610e87565b506040517f12806c9d00000000000000000000000000000000000000000000000000000000815260040160405180910390fd5b919050565b60007f0000000000000000000000000000000000000000000000000000000000000000341015610faf576040517fb90f491000000000000000000000000000000000000000000000000000000000815260040160405180910390fd5b7f000000000000000000000000000000000000000000000000000000000000000073ffffffffffffffffffffffffffffffffffffffff16635d3b1d307f00000000000000000000000000000000000000000000000000000000000000007f000000000000000000000000000000000000000000000000000000000000000060037f000000000000000000000000000000000000000000000000000000000000000060016040518663ffffffff1660e01b8152600401611072959493929190613268565b6020604051808303816000875af1158015611091573d6000803e3d6000fd5b505050506040513d601f19601f820116820180604052508101906110b591906132d0565b9050336008600083815260200190815260200160002060006101000a81548173ffffffffffffffffffffffffffffffffffffffff021916908373ffffffffffffffffffffffffffffffffffffffff160217905550807ff873236e6cc0ecc5be1a9a35c95ee5b8d1ac4cc7bfef0cc5060391d6cc98e26b336040516111399190612782565b60405180910390a290565b61115561114f611484565b836116ca565b611194576040517f08c379a000000000000000000000000000000000000000000000000000000000815260040161118b90612fb2565b60405180910390fd5b6111a084848484611d45565b50505050565b60606111b182611439565b60006006600084815260200190815260200160002080546111d190612dc2565b80601f01602080910402602001604051908101604052809291908181526020018280546111fd90612dc2565b801561124a5780601f1061121f5761010080835404028352916020019161124a565b820191906000526020600020905b81548152906001019060200180831161122d57829003601f168201915b50505050509050600061125b611da1565b905060008151036112705781925050506112b3565b6000825111156112a557808260405160200161128d929190613339565b604051602081830303815290604052925050506112b3565b6112ae84611db8565b925050505b919050565b6000600560008473ffffffffffffffffffffffffffffffffffffffff1673ffffffffffffffffffffffffffffffffffffffff16815260200190815260200160002060008373ffffffffffffffffffffffffffffffffffffffff1673ffffffffffffffffffffffffffffffffffffffff16815260200190815260200160002060009054906101000a900460ff16905092915050565b611354611a58565b600073ffffffffffffffffffffffffffffffffffffffff168173ffffffffffffffffffffffffffffffffffffffff16036113c3576040517f08c379a00000000000000000000000000000000000000000000000000000000081526004016113ba906133cf565b60405180910390fd5b6113cc81611b13565b50565b60007f01ffc9a7000000000000000000000000000000000000000000000000000000007bffffffffffffffffffffffffffffffffffffffffffffffffffffffff1916827bffffffffffffffffffffffffffffffffffffffffffffffffffffffff1916149050919050565b61144281611e20565b611481576040517f08c379a000000000000000000000000000000000000000000000000000000000815260040161147890613093565b60405180910390fd5b50565b600033905090565b816004600083815260200190815260200160002060006101000a81548173ffffffffffffffffffffffffffffffffffffffff021916908373ffffffffffffffffffffffffffffffffffffffff160217905550808273ffffffffffffffffffffffffffffffffffffffff166114ff83610c11565b73ffffffffffffffffffffffffffffffffffffffff167f8c5be1e5ebec7d5bd14f71427d1e84f3dd0314c0f7b2291e5b200ac8c7c3b92560405160405180910390a45050565b60006008600084815260200190815260200160002060009054906101000a900473ffffffffffffffffffffffffffffffffffffffff16905060006009549050600060648460008151811061159c5761159b612fd2565b5b60200260200101516115ae919061341e565b905060006115bb82610e71565b90506115c78484611e61565b61168983600a8360028111156115e0576115df612b89565b5b815481106115f1576115f0612fd2565b5b90600052602060002001805461160690612dc2565b80601f016020809104026020016040519081016040528092919081815260200182805461163290612dc2565b801561167f5780601f106116545761010080835404028352916020019161167f565b820191906000526020600020905b81548152906001019060200180831161166257829003601f168201915b5050505050611e7f565b7f8a269f26b688e110e9cbd887d163dab35cae678fa353a0292de532c0cac1ecdc81856040516116ba92919061344f565b60405180910390a1505050505050565b6000806116d683610c11565b90508073ffffffffffffffffffffffffffffffffffffffff168473ffffffffffffffffffffffffffffffffffffffff161480611718575061171781856112b8565b5b8061175657508373ffffffffffffffffffffffffffffffffffffffff1661173e846107b7565b73ffffffffffffffffffffffffffffffffffffffff16145b91505092915050565b8273ffffffffffffffffffffffffffffffffffffffff1661177f82610c11565b73ffffffffffffffffffffffffffffffffffffffff16146117d5576040517f08c379a00000000000000000000000000000000000000000000000000000000081526004016117cc906134ea565b60405180910390fd5b600073ffffffffffffffffffffffffffffffffffffffff168273ffffffffffffffffffffffffffffffffffffffff1603611844576040517f08c379a000000000000000000000000000000000000000000000000000000000815260040161183b9061357c565b60405180910390fd5b6118518383836001611eec565b8273ffffffffffffffffffffffffffffffffffffffff1661187182610c11565b73ffffffffffffffffffffffffffffffffffffffff16146118c7576040517f08c379a00000000000000000000000000000000000000000000000000000000081526004016118be906134ea565b60405180910390fd5b6004600082815260200190815260200160002060006101000a81549073ffffffffffffffffffffffffffffffffffffffff02191690556001600360008573ffffffffffffffffffffffffffffffffffffffff1673ffffffffffffffffffffffffffffffffffffffff168152602001908152602001600020600082825403925050819055506001600360008473ffffffffffffffffffffffffffffffffffffffff1673ffffffffffffffffffffffffffffffffffffffff16815260200190815260200160002060008282540192505081905550816002600083815260200190815260200160002060006101000a81548173ffffffffffffffffffffffffffffffffffffffff021916908373ffffffffffffffffffffffffffffffffffffffff160217905550808273ffffffffffffffffffffffffffffffffffffffff168473ffffffffffffffffffffffffffffffffffffffff167fddf252ad1be2c89b69c2b068fc378daa952ba7f163c4a11628f55a4df523b3ef60405160405180910390a4611a538383836001611ef2565b505050565b611a60611484565b73ffffffffffffffffffffffffffffffffffffffff16611a7e610d6c565b73ffffffffffffffffffffffffffffffffffffffff1614611ad4576040517f08c379a0000000000000000000000000000000000000000000000000000000008152600401611acb906135e8565b60405180910390fd5b565b60006002600083815260200190815260200160002060009054906101000a900473ffffffffffffffffffffffffffffffffffffffff169050919050565b6000600760009054906101000a900473ffffffffffffffffffffffffffffffffffffffff16905081600760006101000a81548173ffffffffffffffffffffffffffffffffffffffff021916908373ffffffffffffffffffffffffffffffffffffffff1602179055508173ffffffffffffffffffffffffffffffffffffffff168173ffffffffffffffffffffffffffffffffffffffff167f8be0079c531659141344cd1fd0a4f28419497f9722a3daafe3b4186f6b6457e060405160405180910390a35050565b8173ffffffffffffffffffffffffffffffffffffffff168373ffffffffffffffffffffffffffffffffffffffff1603611c47576040517f08c379a0000000000000000000000000000000000000000000000000000000008152600401611c3e90613654565b60405180910390fd5b80600560008573ffffffffffffffffffffffffffffffffffffffff1673ffffffffffffffffffffffffffffffffffffffff16815260200190815260200160002060008473ffffffffffffffffffffffffffffffffffffffff1673ffffffffffffffffffffffffffffffffffffffff16815260200190815260200160002060006101000a81548160ff0219169083151502179055508173ffffffffffffffffffffffffffffffffffffffff168373ffffffffffffffffffffffffffffffffffffffff167f17307eab39ab6107e8899845ad3d59bd9653f200f220920489ca2b5937696c3183604051611d389190612611565b60405180910390a3505050565b611d5084848461175f565b611d5c84848484611ef8565b611d9b576040517f08c379a0000000000000000000000000000000000000000000000000000000008152600401611d92906136e6565b60405180910390fd5b50505050565b606060405180602001604052806000815250905090565b6060611dc382611439565b6000611dcd611da1565b90506000815111611ded5760405180602001604052806000815250611e18565b80611df78461207f565b604051602001611e08929190613339565b6040516020818303038152906040525b915050919050565b60008073ffffffffffffffffffffffffffffffffffffffff16611e4283611ad6565b73ffffffffffffffffffffffffffffffffffffffff1614159050919050565b611e7b82826040518060200160405280600081525061214d565b5050565b611e8882611e20565b611ec7576040517f08c379a0000000000000000000000000000000000000000000000000000000008152600401611ebe90613778565b60405180910390fd5b80600660008481526020019081526020016000209081611ee79190613944565b505050565b50505050565b50505050565b6000611f198473ffffffffffffffffffffffffffffffffffffffff166121a8565b15612072578373ffffffffffffffffffffffffffffffffffffffff1663150b7a02611f42611484565b8786866040518563ffffffff1660e01b8152600401611f649493929190613a6b565b6020604051808303816000875af1925050508015611fa057506040513d601f19601f82011682018060405250810190611f9d9190613acc565b60015b612022573d8060008114611fd0576040519150601f19603f3d011682016040523d82523d6000602084013e611fd5565b606091505b50600081510361201a576040517f08c379a0000000000000000000000000000000000000000000000000000000008152600401612011906136e6565b60405180910390fd5b805181602001fd5b63150b7a0260e01b7bffffffffffffffffffffffffffffffffffffffffffffffffffffffff1916817bffffffffffffffffffffffffffffffffffffffffffffffffffffffff191614915050612077565b600190505b949350505050565b60606000600161208e846121cb565b01905060008167ffffffffffffffff8111156120ad576120ac612838565b5b6040519080825280601f01601f1916602001820160405280156120df5781602001600182028036833780820191505090505b509050600082602001820190505b600115612142578080600190039150507f3031323334353637383961626364656600000000000000000000000000000000600a86061a8153600a8581612136576121356133ef565b5b049450600085036120ed575b819350505050919050565b612157838361231e565b6121646000848484611ef8565b6121a3576040517f08c379a000000000000000000000000000000000000000000000000000000000815260040161219a906136e6565b60405180910390fd5b505050565b6000808273ffffffffffffffffffffffffffffffffffffffff163b119050919050565b600080600090507a184f03e93ff9f4daa797ed6e38ed64bf6a1f0100000000000000008310612229577a184f03e93ff9f4daa797ed6e38ed64bf6a1f010000000000000000838161221f5761221e6133ef565b5b0492506040810190505b6d04ee2d6d415b85acef81000000008310612266576d04ee2d6d415b85acef8100000000838161225c5761225b6133ef565b5b0492506020810190505b662386f26fc10000831061229557662386f26fc10000838161228b5761228a6133ef565b5b0492506010810190505b6305f5e10083106122be576305f5e10083816122b4576122b36133ef565b5b0492506008810190505b61271083106122e35761271083816122d9576122d86133ef565b5b0492506004810190505b6064831061230657606483816122fc576122fb6133ef565b5b0492506002810190505b600a8310612315576001810190505b80915050919050565b600073ffffffffffffffffffffffffffffffffffffffff168273ffffffffffffffffffffffffffffffffffffffff160361238d576040517f08c379a000000000000000000000000000000000000000000000000000000000815260040161238490613b45565b60405180910390fd5b61239681611e20565b156123d6576040517f08c379a00000000000000000000000000000000000000000000000000000000081526004016123cd90613bb1565b60405180910390fd5b6123e4600083836001611eec565b6123ed81611e20565b1561242d576040517f08c379a000000000000000000000000000000000000000000000000000000000815260040161242490613bb1565b60405180910390fd5b6001600360008473ffffffffffffffffffffffffffffffffffffffff1673ffffffffffffffffffffffffffffffffffffffff16815260200190815260200160002060008282540192505081905550816002600083815260200190815260200160002060006101000a81548173ffffffffffffffffffffffffffffffffffffffff021916908373ffffffffffffffffffffffffffffffffffffffff160217905550808273ffffffffffffffffffffffffffffffffffffffff16600073ffffffffffffffffffffffffffffffffffffffff167fddf252ad1be2c89b69c2b068fc378daa952ba7f163c4a11628f55a4df523b3ef60405160405180910390a4612537600083836001611ef2565b5050565b6040518060600160405280600390602082028036833780820191505090505090565b6000604051905090565b600080fd5b600080fd5b60007fffffffff0000000000000000000000000000000000000000000000000000000082169050919050565b6125a681612571565b81146125b157600080fd5b50565b6000813590506125c38161259d565b92915050565b6000602082840312156125df576125de612567565b5b60006125ed848285016125b4565b91505092915050565b60008115159050919050565b61260b816125f6565b82525050565b60006020820190506126266000830184612602565b92915050565b600081519050919050565b600082825260208201905092915050565b60005b8381101561266657808201518184015260208101905061264b565b60008484015250505050565b6000601f19601f8301169050919050565b600061268e8261262c565b6126988185612637565b93506126a8818560208601612648565b6126b181612672565b840191505092915050565b600060208201905081810360008301526126d68184612683565b905092915050565b6000819050919050565b6126f1816126de565b81146126fc57600080fd5b50565b60008135905061270e816126e8565b92915050565b60006020828403121561272a57612729612567565b5b6000612738848285016126ff565b91505092915050565b600073ffffffffffffffffffffffffffffffffffffffff82169050919050565b600061276c82612741565b9050919050565b61277c81612761565b82525050565b60006020820190506127976000830184612773565b92915050565b6127a681612761565b81146127b157600080fd5b50565b6000813590506127c38161279d565b92915050565b600080604083850312156127e0576127df612567565b5b60006127ee858286016127b4565b92505060206127ff858286016126ff565b9150509250929050565b612812816126de565b82525050565b600060208201905061282d6000830184612809565b92915050565b600080fd5b7f4e487b7100000000000000000000000000000000000000000000000000000000600052604160045260246000fd5b61287082612672565b810181811067ffffffffffffffff8211171561288f5761288e612838565b5b80604052505050565b60006128a261255d565b90506128ae8282612867565b919050565b600067ffffffffffffffff8211156128ce576128cd612838565b5b602082029050602081019050919050565b600080fd5b60006128f76128f2846128b3565b612898565b9050808382526020820190506020840283018581111561291a576129196128df565b5b835b81811015612943578061292f88826126ff565b84526020840193505060208101905061291c565b5050509392505050565b600082601f83011261296257612961612833565b5b81356129728482602086016128e4565b91505092915050565b6000806040838503121561299257612991612567565b5b60006129a0858286016126ff565b925050602083013567ffffffffffffffff8111156129c1576129c061256c565b5b6129cd8582860161294d565b9150509250929050565b6000806000606084860312156129f0576129ef612567565b5b60006129fe868287016127b4565b9350506020612a0f868287016127b4565b9250506040612a20868287016126ff565b9150509250925092565b600060039050919050565b600081905092915050565b6000819050919050565b612a53816126de565b82525050565b6000612a658383612a4a565b60208301905092915050565b6000602082019050919050565b612a8781612a2a565b612a918184612a35565b9250612a9c82612a40565b8060005b83811015612acd578151612ab48782612a59565b9650612abf83612a71565b925050600181019050612aa0565b505050505050565b6000606082019050612aea6000830184612a7e565b92915050565b600060208284031215612b0657612b05612567565b5b6000612b14848285016127b4565b91505092915050565b612b26816125f6565b8114612b3157600080fd5b50565b600081359050612b4381612b1d565b92915050565b60008060408385031215612b6057612b5f612567565b5b6000612b6e858286016127b4565b9250506020612b7f85828601612b34565b9150509250929050565b7f4e487b7100000000000000000000000000000000000000000000000000000000600052602160045260246000fd5b60038110612bc957612bc8612b89565b5b50565b6000819050612bda82612bb8565b919050565b6000612bea82612bcc565b9050919050565b612bfa81612bdf565b82525050565b6000602082019050612c156000830184612bf1565b92915050565b600080fd5b600067ffffffffffffffff821115612c3b57612c3a612838565b5b612c4482612672565b9050602081019050919050565b82818337600083830152505050565b6000612c73612c6e84612c20565b612898565b905082815260208101848484011115612c8f57612c8e612c1b565b5b612c9a848285612c51565b509392505050565b600082601f830112612cb757612cb6612833565b5b8135612cc7848260208601612c60565b91505092915050565b60008060008060808587031215612cea57612ce9612567565b5b6000612cf8878288016127b4565b9450506020612d09878288016127b4565b9350506040612d1a878288016126ff565b925050606085013567ffffffffffffffff811115612d3b57612d3a61256c565b5b612d4787828801612ca2565b91505092959194509250565b60008060408385031215612d6a57612d69612567565b5b6000612d78858286016127b4565b9250506020612d89858286016127b4565b9150509250929050565b7f4e487b7100000000000000000000000000000000000000000000000000000000600052602260045260246000fd5b60006002820490506001821680612dda57607f821691505b602082108103612ded57612dec612d93565b5b50919050565b7f4552433732313a20617070726f76616c20746f2063757272656e74206f776e6560008201527f7200000000000000000000000000000000000000000000000000000000000000602082015250565b6000612e4f602183612637565b9150612e5a82612df3565b604082019050919050565b60006020820190508181036000830152612e7e81612e42565b9050919050565b7f4552433732313a20617070726f76652063616c6c6572206973206e6f7420746f60008201527f6b656e206f776e6572206f7220617070726f76656420666f7220616c6c000000602082015250565b6000612ee1603d83612637565b9150612eec82612e85565b604082019050919050565b60006020820190508181036000830152612f1081612ed4565b9050919050565b6000604082019050612f2c6000830185612773565b612f396020830184612773565b9392505050565b7f4552433732313a2063616c6c6572206973206e6f7420746f6b656e206f776e6560008201527f72206f7220617070726f76656400000000000000000000000000000000000000602082015250565b6000612f9c602d83612637565b9150612fa782612f40565b604082019050919050565b60006020820190508181036000830152612fcb81612f8f565b9050919050565b7f4e487b7100000000000000000000000000000000000000000000000000000000600052603260045260246000fd5b600081905092915050565b50565b600061301c600083613001565b91506130278261300c565b600082019050919050565b600061303d8261300f565b9150819050919050565b7f4552433732313a20696e76616c696420746f6b656e2049440000000000000000600082015250565b600061307d601883612637565b915061308882613047565b602082019050919050565b600060208201905081810360008301526130ac81613070565b9050919050565b7f4552433732313a2061646472657373207a65726f206973206e6f74206120766160008201527f6c6964206f776e65720000000000000000000000000000000000000000000000602082015250565b600061310f602983612637565b915061311a826130b3565b604082019050919050565b6000602082019050818103600083015261313e81613102565b9050919050565b7f4e487b7100000000000000000000000000000000000000000000000000000000600052601160045260246000fd5b600061317f826126de565b915061318a836126de565b92508282019050808211156131a2576131a1613145565b5b92915050565b60006131b3826126de565b91507fffffffffffffffffffffffffffffffffffffffffffffffffffffffffffffffff82036131e5576131e4613145565b5b600182019050919050565b6000819050919050565b613203816131f0565b82525050565b600067ffffffffffffffff82169050919050565b61322681613209565b82525050565b600061ffff82169050919050565b6132438161322c565b82525050565b600063ffffffff82169050919050565b61326281613249565b82525050565b600060a08201905061327d60008301886131fa565b61328a602083018761321d565b613297604083018661323a565b6132a46060830185613259565b6132b16080830184613259565b9695505050505050565b6000815190506132ca816126e8565b92915050565b6000602082840312156132e6576132e5612567565b5b60006132f4848285016132bb565b91505092915050565b600081905092915050565b60006133138261262c565b61331d81856132fd565b935061332d818560208601612648565b80840191505092915050565b60006133458285613308565b91506133518284613308565b91508190509392505050565b7f4f776e61626c653a206e6577206f776e657220697320746865207a65726f206160008201527f6464726573730000000000000000000000000000000000000000000000000000602082015250565b60006133b9602683612637565b91506133c48261335d565b604082019050919050565b600060208201905081810360008301526133e8816133ac565b9050919050565b7f4e487b7100000000000000000000000000000000000000000000000000000000600052601260045260246000fd5b6000613429826126de565b9150613434836126de565b925082613444576134436133ef565b5b828206905092915050565b60006040820190506134646000830185612bf1565b6134716020830184612773565b9392505050565b7f4552433732313a207472616e736665722066726f6d20696e636f72726563742060008201527f6f776e6572000000000000000000000000000000000000000000000000000000602082015250565b60006134d4602583612637565b91506134df82613478565b604082019050919050565b60006020820190508181036000830152613503816134c7565b9050919050565b7f4552433732313a207472616e7366657220746f20746865207a65726f2061646460008201527f7265737300000000000000000000000000000000000000000000000000000000602082015250565b6000613566602483612637565b91506135718261350a565b604082019050919050565b6000602082019050818103600083015261359581613559565b9050919050565b7f4f776e61626c653a2063616c6c6572206973206e6f7420746865206f776e6572600082015250565b60006135d2602083612637565b91506135dd8261359c565b602082019050919050565b60006020820190508181036000830152613601816135c5565b9050919050565b7f4552433732313a20617070726f766520746f2063616c6c657200000000000000600082015250565b600061363e601983612637565b915061364982613608565b602082019050919050565b6000602082019050818103600083015261366d81613631565b9050919050565b7f4552433732313a207472616e7366657220746f206e6f6e20455243373231526560008201527f63656976657220696d706c656d656e7465720000000000000000000000000000602082015250565b60006136d0603283612637565b91506136db82613674565b604082019050919050565b600060208201905081810360008301526136ff816136c3565b9050919050565b7f45524337323155524953746f726167653a2055524920736574206f66206e6f6e60008201527f6578697374656e7420746f6b656e000000000000000000000000000000000000602082015250565b6000613762602e83612637565b915061376d82613706565b604082019050919050565b6000602082019050818103600083015261379181613755565b9050919050565b60008190508160005260206000209050919050565b60006020601f8301049050919050565b600082821b905092915050565b6000600883026137fa7fffffffffffffffffffffffffffffffffffffffffffffffffffffffffffffffff826137bd565b61380486836137bd565b95508019841693508086168417925050509392505050565b6000819050919050565b600061384161383c613837846126de565b61381c565b6126de565b9050919050565b6000819050919050565b61385b83613826565b61386f61386782613848565b8484546137ca565b825550505050565b600090565b613884613877565b61388f818484613852565b505050565b5b818110156138b3576138a860008261387c565b600181019050613895565b5050565b601f8211156138f8576138c981613798565b6138d2846137ad565b810160208510156138e1578190505b6138f56138ed856137ad565b830182613894565b50505b505050565b600082821c905092915050565b600061391b600019846008026138fd565b1980831691505092915050565b6000613934838361390a565b9150826002028217905092915050565b61394d8261262c565b67ffffffffffffffff81111561396657613965612838565b5b6139708254612dc2565b61397b8282856138b7565b600060209050601f8311600181146139ae576000841561399c578287015190505b6139a68582613928565b865550613a0e565b601f1984166139bc86613798565b60005b828110156139e4578489015182556001820191506020850194506020810190506139bf565b86831015613a0157848901516139fd601f89168261390a565b8355505b6001600288020188555050505b505050505050565b600081519050919050565b600082825260208201905092915050565b6000613a3d82613a16565b613a478185613a21565b9350613a57818560208601612648565b613a6081612672565b840191505092915050565b6000608082019050613a806000830187612773565b613a8d6020830186612773565b613a9a6040830185612809565b8181036060830152613aac8184613a32565b905095945050505050565b600081519050613ac68161259d565b92915050565b600060208284031215613ae257613ae1612567565b5b6000613af084828501613ab7565b91505092915050565b7f4552433732313a206d696e7420746f20746865207a65726f2061646472657373600082015250565b6000613b2f602083612637565b9150613b3a82613af9565b602082019050919050565b60006020820190508181036000830152613b5e81613b22565b9050919050565b7f4552433732313a20746f6b656e20616c7265616479206d696e74656400000000600082015250565b6000613b9b601c83612637565b9150613ba682613b65565b602082019050919050565b60006020820190508181036000830152613bca81613b8e565b905091905056fea264697066735822122084a2380cde9b95317c0e74065f8173df3cac376ae2dddf7cb6d6a8e4e94ca5e064736f6c63430008110033","opcodes":"PUSH2 0x140 PUSH1 0x40 MSTORE CALLVALUE DUP1 ISZERO PUSH3 0x12 JUMPI PUSH1 0x0 DUP1 REVERT JUMPDEST POP PUSH1 0x40 MLOAD PUSH3 0x4797 CODESIZE SUB DUP1 PUSH3 0x4797 DUP4 CODECOPY DUP2 DUP2 ADD PUSH1 0x40 MSTORE DUP2 ADD SWAP1 PUSH3 0x38 SWAP2 SWAP1 PUSH3 0x74F JUMP JUMPDEST PUSH1 0x40 MLOAD DUP1 PUSH1 0x40 ADD PUSH1 0x40 MSTORE DUP1 PUSH1 0xD DUP2 MSTORE PUSH1 0x20 ADD PUSH32 0x52616E646F6D497066734E667400000000000000000000000000000000000000 DUP2 MSTORE POP PUSH1 0x40 MLOAD DUP1 PUSH1 0x40 ADD PUSH1 0x40 MSTORE DUP1 PUSH1 0x3 DUP2 MSTORE PUSH1 0x20 ADD PUSH32 0x52494E0000000000000000000000000000000000000000000000000000000000 DUP2 MSTORE POP DUP8 DUP1 PUSH20 0xFFFFFFFFFFFFFFFFFFFFFFFFFFFFFFFFFFFFFFFF AND PUSH1 0x80 DUP2 PUSH20 0xFFFFFFFFFFFFFFFFFFFFFFFFFFFFFFFFFFFFFFFF AND DUP2 MSTORE POP POP POP DUP2 PUSH1 0x0 SWAP1 DUP2 PUSH3 0xEB SWAP2 SWAP1 PUSH3 0xA4B JUMP JUMPDEST POP DUP1 PUSH1 0x1 SWAP1 DUP2 PUSH3 0xFD SWAP2 SWAP1 PUSH3 0xA4B JUMP JUMPDEST POP POP POP PUSH3 0x120 PUSH3 0x114 PUSH3 0x1B6 PUSH1 0x20 SHL PUSH1 0x20 SHR JUMP JUMPDEST PUSH3 0x1BE PUSH1 0x20 SHL PUSH1 0x20 SHR JUMP JUMPDEST DUP6 PUSH20 0xFFFFFFFFFFFFFFFFFFFFFFFFFFFFFFFFFFFFFFFF AND PUSH1 0xA0 DUP2 PUSH20 0xFFFFFFFFFFFFFFFFFFFFFFFFFFFFFFFFFFFFFFFF AND DUP2 MSTORE POP POP DUP5 PUSH8 0xFFFFFFFFFFFFFFFF AND PUSH1 0xC0 DUP2 PUSH8 0xFFFFFFFFFFFFFFFF AND DUP2 MSTORE POP POP DUP4 PUSH1 0xE0 DUP2 DUP2 MSTORE POP POP DUP3 PUSH4 0xFFFFFFFF AND PUSH2 0x100 DUP2 PUSH4 0xFFFFFFFF AND DUP2 MSTORE POP POP DUP2 PUSH1 0xA SWAP1 PUSH1 0x3 PUSH3 0x1A0 SWAP3 SWAP2 SWAP1 PUSH3 0x284 JUMP JUMPDEST POP DUP1 PUSH2 0x120 DUP2 DUP2 MSTORE POP POP POP POP POP POP POP POP PUSH3 0xB32 JUMP JUMPDEST PUSH1 0x0 CALLER SWAP1 POP SWAP1 JUMP JUMPDEST PUSH1 0x0 PUSH1 0x7 PUSH1 0x0 SWAP1 SLOAD SWAP1 PUSH2 0x100 EXP SWAP1 DIV PUSH20 0xFFFFFFFFFFFFFFFFFFFFFFFFFFFFFFFFFFFFFFFF AND SWAP1 POP DUP2 PUSH1 0x7 PUSH1 0x0 PUSH2 0x100 EXP DUP2 SLOAD DUP2 PUSH20 0xFFFFFFFFFFFFFFFFFFFFFFFFFFFFFFFFFFFFFFFF MUL NOT AND SWAP1 DUP4 PUSH20 0xFFFFFFFFFFFFFFFFFFFFFFFFFFFFFFFFFFFFFFFF AND MUL OR SWAP1 SSTORE POP DUP2 PUSH20 0xFFFFFFFFFFFFFFFFFFFFFFFFFFFFFFFFFFFFFFFF AND DUP2 PUSH20 0xFFFFFFFFFFFFFFFFFFFFFFFFFFFFFFFFFFFFFFFF AND PUSH32 0x8BE0079C531659141344CD1FD0A4F28419497F9722A3DAAFE3B4186F6B6457E0 PUSH1 0x40 MLOAD PUSH1 0x40 MLOAD DUP1 SWAP2 SUB SWAP1 LOG3 POP POP JUMP JUMPDEST DUP3 DUP1 SLOAD DUP3 DUP3 SSTORE SWAP1 PUSH1 0x0 MSTORE PUSH1 0x20 PUSH1 0x0 KECCAK256 SWAP1 DUP2 ADD SWAP3 DUP3 ISZERO PUSH3 0x2D1 JUMPI SWAP2 PUSH1 0x20 MUL DUP3 ADD JUMPDEST DUP3 DUP2 GT ISZERO PUSH3 0x2D0 JUMPI DUP3 MLOAD DUP3 SWAP1 DUP2 PUSH3 0x2BF SWAP2 SWAP1 PUSH3 0xA4B JUMP JUMPDEST POP SWAP2 PUSH1 0x20 ADD SWAP2 SWAP1 PUSH1 0x1 ADD SWAP1 PUSH3 0x2A5 JUMP JUMPDEST JUMPDEST POP SWAP1 POP PUSH3 0x2E0 SWAP2 SWAP1 PUSH3 0x2E4 JUMP JUMPDEST POP SWAP1 JUMP JUMPDEST JUMPDEST DUP1 DUP3 GT ISZERO PUSH3 0x308 JUMPI PUSH1 0x0 DUP2 DUP2 PUSH3 0x2FE SWAP2 SWAP1 PUSH3 0x30C JUMP JUMPDEST POP PUSH1 0x1 ADD PUSH3 0x2E5 JUMP JUMPDEST POP SWAP1 JUMP JUMPDEST POP DUP1 SLOAD PUSH3 0x31A SWAP1 PUSH3 0x844 JUMP JUMPDEST PUSH1 0x0 DUP3 SSTORE DUP1 PUSH1 0x1F LT PUSH3 0x32E JUMPI POP PUSH3 0x34F JUMP JUMPDEST PUSH1 0x1F ADD PUSH1 0x20 SWAP1 DIV SWAP1 PUSH1 0x0 MSTORE PUSH1 0x20 PUSH1 0x0 KECCAK256 SWAP1 DUP2 ADD SWAP1 PUSH3 0x34E SWAP2 SWAP1 PUSH3 0x352 JUMP JUMPDEST JUMPDEST POP JUMP JUMPDEST JUMPDEST DUP1 DUP3 GT ISZERO PUSH3 0x36D JUMPI PUSH1 0x0 DUP2 PUSH1 0x0 SWAP1 SSTORE POP PUSH1 0x1 ADD PUSH3 0x353 JUMP JUMPDEST POP SWAP1 JUMP JUMPDEST PUSH1 0x0 PUSH1 0x40 MLOAD SWAP1 POP SWAP1 JUMP JUMPDEST PUSH1 0x0 DUP1 REVERT JUMPDEST PUSH1 0x0 DUP1 REVERT JUMPDEST PUSH1 0x0 PUSH20 0xFFFFFFFFFFFFFFFFFFFFFFFFFFFFFFFFFFFFFFFF DUP3 AND SWAP1 POP SWAP2 SWAP1 POP JUMP JUMPDEST PUSH1 0x0 PUSH3 0x3B2 DUP3 PUSH3 0x385 JUMP JUMPDEST SWAP1 POP SWAP2 SWAP1 POP JUMP JUMPDEST PUSH3 0x3C4 DUP2 PUSH3 0x3A5 JUMP JUMPDEST DUP2 EQ PUSH3 0x3D0 JUMPI PUSH1 0x0 DUP1 REVERT JUMPDEST POP JUMP JUMPDEST PUSH1 0x0 DUP2 MLOAD SWAP1 POP PUSH3 0x3E4 DUP2 PUSH3 0x3B9 JUMP JUMPDEST SWAP3 SWAP2 POP POP JUMP JUMPDEST PUSH1 0x0 PUSH8 0xFFFFFFFFFFFFFFFF DUP3 AND SWAP1 POP SWAP2 SWAP1 POP JUMP JUMPDEST PUSH3 0x409 DUP2 PUSH3 0x3EA JUMP JUMPDEST DUP2 EQ PUSH3 0x415 JUMPI PUSH1 0x0 DUP1 REVERT JUMPDEST POP JUMP JUMPDEST PUSH1 0x0 DUP2 MLOAD SWAP1 POP PUSH3 0x429 DUP2 PUSH3 0x3FE JUMP JUMPDEST SWAP3 SWAP2 POP POP JUMP JUMPDEST PUSH1 0x0 DUP2 SWAP1 POP SWAP2 SWAP1 POP JUMP JUMPDEST PUSH3 0x444 DUP2 PUSH3 0x42F JUMP JUMPDEST DUP2 EQ PUSH3 0x450 JUMPI PUSH1 0x0 DUP1 REVERT JUMPDEST POP JUMP JUMPDEST PUSH1 0x0 DUP2 MLOAD SWAP1 POP PUSH3 0x464 DUP2 PUSH3 0x439 JUMP JUMPDEST SWAP3 SWAP2 POP POP JUMP JUMPDEST PUSH1 0x0 PUSH4 0xFFFFFFFF DUP3 AND SWAP1 POP SWAP2 SWAP1 POP JUMP JUMPDEST PUSH3 0x485 DUP2 PUSH3 0x46A JUMP JUMPDEST DUP2 EQ PUSH3 0x491 JUMPI PUSH1 0x0 DUP1 REVERT JUMPDEST POP JUMP JUMPDEST PUSH1 0x0 DUP2 MLOAD SWAP1 POP PUSH3 0x4A5 DUP2 PUSH3 0x47A JUMP JUMPDEST SWAP3 SWAP2 POP POP JUMP JUMPDEST PUSH1 0x0 DUP1 REVERT JUMPDEST PUSH1 0x0 PUSH1 0x1F NOT PUSH1 0x1F DUP4 ADD AND SWAP1 POP SWAP2 SWAP1 POP JUMP JUMPDEST PUSH32 0x4E487B7100000000000000000000000000000000000000000000000000000000 PUSH1 0x0 MSTORE PUSH1 0x41 PUSH1 0x4 MSTORE PUSH1 0x24 PUSH1 0x0 REVERT JUMPDEST PUSH3 0x4FB DUP3 PUSH3 0x4B0 JUMP JUMPDEST DUP2 ADD DUP2 DUP2 LT PUSH8 0xFFFFFFFFFFFFFFFF DUP3 GT OR ISZERO PUSH3 0x51D JUMPI PUSH3 0x51C PUSH3 0x4C1 JUMP JUMPDEST JUMPDEST DUP1 PUSH1 0x40 MSTORE POP POP POP JUMP JUMPDEST PUSH1 0x0 PUSH3 0x532 PUSH3 0x371 JUMP JUMPDEST SWAP1 POP PUSH3 0x540 DUP3 DUP3 PUSH3 0x4F0 JUMP JUMPDEST SWAP2 SWAP1 POP JUMP JUMPDEST PUSH1 0x0 PUSH8 0xFFFFFFFFFFFFFFFF DUP3 GT ISZERO PUSH3 0x563 JUMPI PUSH3 0x562 PUSH3 0x4C1 JUMP JUMPDEST JUMPDEST PUSH1 0x20 DUP3 MUL SWAP1 POP SWAP2 SWAP1 POP JUMP JUMPDEST PUSH1 0x0 DUP1 REVERT JUMPDEST PUSH1 0x0 DUP1 REVERT JUMPDEST PUSH1 0x0 PUSH8 0xFFFFFFFFFFFFFFFF DUP3 GT ISZERO PUSH3 0x596 JUMPI PUSH3 0x595 PUSH3 0x4C1 JUMP JUMPDEST JUMPDEST PUSH3 0x5A1 DUP3 PUSH3 0x4B0 JUMP JUMPDEST SWAP1 POP PUSH1 0x20 DUP2 ADD SWAP1 POP SWAP2 SWAP1 POP JUMP JUMPDEST PUSH1 0x0 JUMPDEST DUP4 DUP2 LT ISZERO PUSH3 0x5CE JUMPI DUP1 DUP3 ADD MLOAD DUP2 DUP5 ADD MSTORE PUSH1 0x20 DUP2 ADD SWAP1 POP PUSH3 0x5B1 JUMP JUMPDEST PUSH1 0x0 DUP5 DUP5 ADD MSTORE POP POP POP POP JUMP JUMPDEST PUSH1 0x0 PUSH3 0x5F1 PUSH3 0x5EB DUP5 PUSH3 0x578 JUMP JUMPDEST PUSH3 0x526 JUMP JUMPDEST SWAP1 POP DUP3 DUP2 MSTORE PUSH1 0x20 DUP2 ADD DUP5 DUP5 DUP5 ADD GT ISZERO PUSH3 0x610 JUMPI PUSH3 0x60F PUSH3 0x573 JUMP JUMPDEST JUMPDEST PUSH3 0x61D DUP5 DUP3 DUP6 PUSH3 0x5AE JUMP JUMPDEST POP SWAP4 SWAP3 POP POP POP JUMP JUMPDEST PUSH1 0x0 DUP3 PUSH1 0x1F DUP4 ADD SLT PUSH3 0x63D JUMPI PUSH3 0x63C PUSH3 0x4AB JUMP JUMPDEST JUMPDEST DUP2 MLOAD PUSH3 0x64F DUP5 DUP3 PUSH1 0x20 DUP7 ADD PUSH3 0x5DA JUMP JUMPDEST SWAP2 POP POP SWAP3 SWAP2 POP POP JUMP JUMPDEST PUSH1 0x0 PUSH3 0x66F PUSH3 0x669 DUP5 PUSH3 0x545 JUMP JUMPDEST PUSH3 0x526 JUMP JUMPDEST SWAP1 POP DUP1 PUSH1 0x20 DUP5 MUL DUP4 ADD DUP6 DUP2 GT ISZERO PUSH3 0x68C JUMPI PUSH3 0x68B PUSH3 0x56E JUMP JUMPDEST JUMPDEST DUP4 JUMPDEST DUP2 DUP2 LT ISZERO PUSH3 0x6DA JUMPI DUP1 MLOAD PUSH8 0xFFFFFFFFFFFFFFFF DUP2 GT ISZERO PUSH3 0x6B5 JUMPI PUSH3 0x6B4 PUSH3 0x4AB JUMP JUMPDEST JUMPDEST DUP1 DUP7 ADD PUSH3 0x6C4 DUP10 DUP3 PUSH3 0x625 JUMP JUMPDEST DUP6 MSTORE PUSH1 0x20 DUP6 ADD SWAP5 POP POP POP PUSH1 0x20 DUP2 ADD SWAP1 POP PUSH3 0x68E JUMP JUMPDEST POP POP POP SWAP4 SWAP3 POP POP POP JUMP JUMPDEST PUSH1 0x0 DUP3 PUSH1 0x1F DUP4 ADD SLT PUSH3 0x6FC JUMPI PUSH3 0x6FB PUSH3 0x4AB JUMP JUMPDEST JUMPDEST PUSH1 0x3 PUSH3 0x70B DUP5 DUP3 DUP6 PUSH3 0x658 JUMP JUMPDEST SWAP2 POP POP SWAP3 SWAP2 POP POP JUMP JUMPDEST PUSH1 0x0 DUP2 SWAP1 POP SWAP2 SWAP1 POP JUMP JUMPDEST PUSH3 0x729 DUP2 PUSH3 0x714 JUMP JUMPDEST DUP2 EQ PUSH3 0x735 JUMPI PUSH1 0x0 DUP1 REVERT JUMPDEST POP JUMP JUMPDEST PUSH1 0x0 DUP2 MLOAD SWAP1 POP PUSH3 0x749 DUP2 PUSH3 0x71E JUMP JUMPDEST SWAP3 SWAP2 POP POP JUMP JUMPDEST PUSH1 0x0 DUP1 PUSH1 0x0 DUP1 PUSH1 0x0 DUP1 PUSH1 0xC0 DUP8 DUP10 SUB SLT ISZERO PUSH3 0x76F JUMPI PUSH3 0x76E PUSH3 0x37B JUMP JUMPDEST JUMPDEST PUSH1 0x0 PUSH3 0x77F DUP10 DUP3 DUP11 ADD PUSH3 0x3D3 JUMP JUMPDEST SWAP7 POP POP PUSH1 0x20 PUSH3 0x792 DUP10 DUP3 DUP11 ADD PUSH3 0x418 JUMP JUMPDEST SWAP6 POP POP PUSH1 0x40 PUSH3 0x7A5 DUP10 DUP3 DUP11 ADD PUSH3 0x453 JUMP JUMPDEST SWAP5 POP POP PUSH1 0x60 PUSH3 0x7B8 DUP10 DUP3 DUP11 ADD PUSH3 0x494 JUMP JUMPDEST SWAP4 POP POP PUSH1 0x80 DUP8 ADD MLOAD PUSH8 0xFFFFFFFFFFFFFFFF DUP2 GT ISZERO PUSH3 0x7DC JUMPI PUSH3 0x7DB PUSH3 0x380 JUMP JUMPDEST JUMPDEST PUSH3 0x7EA DUP10 DUP3 DUP11 ADD PUSH3 0x6E4 JUMP JUMPDEST SWAP3 POP POP PUSH1 0xA0 PUSH3 0x7FD DUP10 DUP3 DUP11 ADD PUSH3 0x738 JUMP JUMPDEST SWAP2 POP POP SWAP3 SWAP6 POP SWAP3 SWAP6 POP SWAP3 SWAP6 JUMP JUMPDEST PUSH1 0x0 DUP2 MLOAD SWAP1 POP SWAP2 SWAP1 POP JUMP JUMPDEST PUSH32 0x4E487B7100000000000000000000000000000000000000000000000000000000 PUSH1 0x0 MSTORE PUSH1 0x22 PUSH1 0x4 MSTORE PUSH1 0x24 PUSH1 0x0 REVERT JUMPDEST PUSH1 0x0 PUSH1 0x2 DUP3 DIV SWAP1 POP PUSH1 0x1 DUP3 AND DUP1 PUSH3 0x85D JUMPI PUSH1 0x7F DUP3 AND SWAP2 POP JUMPDEST PUSH1 0x20 DUP3 LT DUP2 SUB PUSH3 0x873 JUMPI PUSH3 0x872 PUSH3 0x815 JUMP JUMPDEST JUMPDEST POP SWAP2 SWAP1 POP JUMP JUMPDEST PUSH1 0x0 DUP2 SWAP1 POP DUP2 PUSH1 0x0 MSTORE PUSH1 0x20 PUSH1 0x0 KECCAK256 SWAP1 POP SWAP2 SWAP1 POP JUMP JUMPDEST PUSH1 0x0 PUSH1 0x20 PUSH1 0x1F DUP4 ADD DIV SWAP1 POP SWAP2 SWAP1 POP JUMP JUMPDEST PUSH1 0x0 DUP3 DUP3 SHL SWAP1 POP SWAP3 SWAP2 POP POP JUMP JUMPDEST PUSH1 0x0 PUSH1 0x8 DUP4 MUL PUSH3 0x8DD PUSH32 0xFFFFFFFFFFFFFFFFFFFFFFFFFFFFFFFFFFFFFFFFFFFFFFFFFFFFFFFFFFFFFFFF DUP3 PUSH3 0x89E JUMP JUMPDEST PUSH3 0x8E9 DUP7 DUP4 PUSH3 0x89E JUMP JUMPDEST SWAP6 POP DUP1 NOT DUP5 AND SWAP4 POP DUP1 DUP7 AND DUP5 OR SWAP3 POP POP POP SWAP4 SWAP3 POP POP POP JUMP JUMPDEST PUSH1 0x0 DUP2 SWAP1 POP SWAP2 SWAP1 POP JUMP JUMPDEST PUSH1 0x0 PUSH3 0x92C PUSH3 0x926 PUSH3 0x920 DUP5 PUSH3 0x714 JUMP JUMPDEST PUSH3 0x901 JUMP JUMPDEST PUSH3 0x714 JUMP JUMPDEST SWAP1 POP SWAP2 SWAP1 POP JUMP JUMPDEST PUSH1 0x0 DUP2 SWAP1 POP SWAP2 SWAP1 POP JUMP JUMPDEST PUSH3 0x948 DUP4 PUSH3 0x90B JUMP JUMPDEST PUSH3 0x960 PUSH3 0x957 DUP3 PUSH3 0x933 JUMP JUMPDEST DUP5 DUP5 SLOAD PUSH3 0x8AB JUMP JUMPDEST DUP3 SSTORE POP POP POP POP JUMP JUMPDEST PUSH1 0x0 SWAP1 JUMP JUMPDEST PUSH3 0x977 PUSH3 0x968 JUMP JUMPDEST PUSH3 0x984 DUP2 DUP5 DUP5 PUSH3 0x93D JUMP JUMPDEST POP POP POP JUMP JUMPDEST JUMPDEST DUP2 DUP2 LT ISZERO PUSH3 0x9AC JUMPI PUSH3 0x9A0 PUSH1 0x0 DUP3 PUSH3 0x96D JUMP JUMPDEST PUSH1 0x1 DUP2 ADD SWAP1 POP PUSH3 0x98A JUMP JUMPDEST POP POP JUMP JUMPDEST PUSH1 0x1F DUP3 GT ISZERO PUSH3 0x9FB JUMPI PUSH3 0x9C5 DUP2 PUSH3 0x879 JUMP JUMPDEST PUSH3 0x9D0 DUP5 PUSH3 0x88E JUMP JUMPDEST DUP2 ADD PUSH1 0x20 DUP6 LT ISZERO PUSH3 0x9E0 JUMPI DUP2 SWAP1 POP JUMPDEST PUSH3 0x9F8 PUSH3 0x9EF DUP6 PUSH3 0x88E JUMP JUMPDEST DUP4 ADD DUP3 PUSH3 0x989 JUMP JUMPDEST POP POP JUMPDEST POP POP POP JUMP JUMPDEST PUSH1 0x0 DUP3 DUP3 SHR SWAP1 POP SWAP3 SWAP2 POP POP JUMP JUMPDEST PUSH1 0x0 PUSH3 0xA20 PUSH1 0x0 NOT DUP5 PUSH1 0x8 MUL PUSH3 0xA00 JUMP JUMPDEST NOT DUP1 DUP4 AND SWAP2 POP POP SWAP3 SWAP2 POP POP JUMP JUMPDEST PUSH1 0x0 PUSH3 0xA3B DUP4 DUP4 PUSH3 0xA0D JUMP JUMPDEST SWAP2 POP DUP3 PUSH1 0x2 MUL DUP3 OR SWAP1 POP SWAP3 SWAP2 POP POP JUMP JUMPDEST PUSH3 0xA56 DUP3 PUSH3 0x80A JUMP JUMPDEST PUSH8 0xFFFFFFFFFFFFFFFF DUP2 GT ISZERO PUSH3 0xA72 JUMPI PUSH3 0xA71 PUSH3 0x4C1 JUMP JUMPDEST JUMPDEST PUSH3 0xA7E DUP3 SLOAD PUSH3 0x844 JUMP JUMPDEST PUSH3 0xA8B DUP3 DUP3 DUP6 PUSH3 0x9B0 JUMP JUMPDEST PUSH1 0x0 PUSH1 0x20 SWAP1 POP PUSH1 0x1F DUP4 GT PUSH1 0x1 DUP2 EQ PUSH3 0xAC3 JUMPI PUSH1 0x0 DUP5 ISZERO PUSH3 0xAAE JUMPI DUP3 DUP8 ADD MLOAD SWAP1 POP JUMPDEST PUSH3 0xABA DUP6 DUP3 PUSH3 0xA2D JUMP JUMPDEST DUP7 SSTORE POP PUSH3 0xB2A JUMP JUMPDEST PUSH1 0x1F NOT DUP5 AND PUSH3 0xAD3 DUP7 PUSH3 0x879 JUMP JUMPDEST PUSH1 0x0 JUMPDEST DUP3 DUP2 LT ISZERO PUSH3 0xAFD JUMPI DUP5 DUP10 ADD MLOAD DUP3 SSTORE PUSH1 0x1 DUP3 ADD SWAP2 POP PUSH1 0x20 DUP6 ADD SWAP5 POP PUSH1 0x20 DUP2 ADD SWAP1 POP PUSH3 0xAD6 JUMP JUMPDEST DUP7 DUP4 LT ISZERO PUSH3 0xB1D JUMPI DUP5 DUP10 ADD MLOAD PUSH3 0xB19 PUSH1 0x1F DUP10 AND DUP3 PUSH3 0xA0D JUMP JUMPDEST DUP4 SSTORE POP JUMPDEST PUSH1 0x1 PUSH1 0x2 DUP9 MUL ADD DUP9 SSTORE POP POP POP JUMPDEST POP POP POP POP POP POP JUMP JUMPDEST PUSH1 0x80 MLOAD PUSH1 0xA0 MLOAD PUSH1 0xC0 MLOAD PUSH1 0xE0 MLOAD PUSH2 0x100 MLOAD PUSH2 0x120 MLOAD PUSH2 0x3C07 PUSH3 0xB90 PUSH1 0x0 CODECOPY PUSH1 0x0 DUP2 DUP2 PUSH2 0xBC2 ADD MSTORE PUSH2 0xF57 ADD MSTORE PUSH1 0x0 PUSH2 0x1031 ADD MSTORE PUSH1 0x0 PUSH2 0xFED ADD MSTORE PUSH1 0x0 PUSH2 0x100E ADD MSTORE PUSH1 0x0 PUSH2 0xFB1 ADD MSTORE PUSH1 0x0 DUP2 DUP2 PUSH2 0x91C ADD MSTORE PUSH2 0x970 ADD MSTORE PUSH2 0x3C07 PUSH1 0x0 RETURN INVALID PUSH1 0x80 PUSH1 0x40 MSTORE PUSH1 0x4 CALLDATASIZE LT PUSH2 0x181 JUMPI PUSH1 0x0 CALLDATALOAD PUSH1 0xE0 SHR DUP1 PUSH4 0x6E02007D GT PUSH2 0xD1 JUMPI DUP1 PUSH4 0xA36F573B GT PUSH2 0x8A JUMPI DUP1 PUSH4 0xB88D4FDE GT PUSH2 0x64 JUMPI DUP1 PUSH4 0xB88D4FDE EQ PUSH2 0x577 JUMPI DUP1 PUSH4 0xC87B56DD EQ PUSH2 0x5A0 JUMPI DUP1 PUSH4 0xE985E9C5 EQ PUSH2 0x5DD JUMPI DUP1 PUSH4 0xF2FDE38B EQ PUSH2 0x61A JUMPI PUSH2 0x181 JUMP JUMPDEST DUP1 PUSH4 0xA36F573B EQ PUSH2 0x4DF JUMPI DUP1 PUSH4 0xA51CCCF3 EQ PUSH2 0x51C JUMPI DUP1 PUSH4 0xAA152491 EQ PUSH2 0x559 JUMPI PUSH2 0x181 JUMP JUMPDEST DUP1 PUSH4 0x6E02007D EQ PUSH2 0x3E1 JUMPI DUP1 PUSH4 0x70A08231 EQ PUSH2 0x40C JUMPI DUP1 PUSH4 0x715018A6 EQ PUSH2 0x449 JUMPI DUP1 PUSH4 0x8DA5CB5B EQ PUSH2 0x460 JUMPI DUP1 PUSH4 0x95D89B41 EQ PUSH2 0x48B JUMPI DUP1 PUSH4 0xA22CB465 EQ PUSH2 0x4B6 JUMPI PUSH2 0x181 JUMP JUMPDEST DUP1 PUSH4 0x23B872DD GT PUSH2 0x13E JUMPI DUP1 PUSH4 0x42842E0E GT PUSH2 0x118 JUMPI DUP1 PUSH4 0x42842E0E EQ PUSH2 0x325 JUMPI DUP1 PUSH4 0x5CF34BCF EQ PUSH2 0x34E JUMPI DUP1 PUSH4 0x5DACF5F4 EQ PUSH2 0x379 JUMPI DUP1 PUSH4 0x6352211E EQ PUSH2 0x3A4 JUMPI PUSH2 0x181 JUMP JUMPDEST DUP1 PUSH4 0x23B872DD EQ PUSH2 0x2A8 JUMPI DUP1 PUSH4 0x3AF25975 EQ PUSH2 0x2D1 JUMPI DUP1 PUSH4 0x3CCFD60B EQ PUSH2 0x30E JUMPI PUSH2 0x181 JUMP JUMPDEST DUP1 PUSH4 0x1FFC9A7 EQ PUSH2 0x186 JUMPI DUP1 PUSH4 0x6FDDE03 EQ PUSH2 0x1C3 JUMPI DUP1 PUSH4 0x81812FC EQ PUSH2 0x1EE JUMPI DUP1 PUSH4 0x95EA7B3 EQ PUSH2 0x22B JUMPI DUP1 PUSH4 0xB21A83B EQ PUSH2 0x254 JUMPI DUP1 PUSH4 0x1FE543E3 EQ PUSH2 0x27F JUMPI JUMPDEST PUSH1 0x0 DUP1 REVERT JUMPDEST CALLVALUE DUP1 ISZERO PUSH2 0x192 JUMPI PUSH1 0x0 DUP1 REVERT JUMPDEST POP PUSH2 0x1AD PUSH1 0x4 DUP1 CALLDATASIZE SUB DUP2 ADD SWAP1 PUSH2 0x1A8 SWAP2 SWAP1 PUSH2 0x25C9 JUMP JUMPDEST PUSH2 0x643 JUMP JUMPDEST PUSH1 0x40 MLOAD PUSH2 0x1BA SWAP2 SWAP1 PUSH2 0x2611 JUMP JUMPDEST PUSH1 0x40 MLOAD DUP1 SWAP2 SUB SWAP1 RETURN JUMPDEST CALLVALUE DUP1 ISZERO PUSH2 0x1CF JUMPI PUSH1 0x0 DUP1 REVERT JUMPDEST POP PUSH2 0x1D8 PUSH2 0x725 JUMP JUMPDEST PUSH1 0x40 MLOAD PUSH2 0x1E5 SWAP2 SWAP1 PUSH2 0x26BC JUMP JUMPDEST PUSH1 0x40 MLOAD DUP1 SWAP2 SUB SWAP1 RETURN JUMPDEST CALLVALUE DUP1 ISZERO PUSH2 0x1FA JUMPI PUSH1 0x0 DUP1 REVERT JUMPDEST POP PUSH2 0x215 PUSH1 0x4 DUP1 CALLDATASIZE SUB DUP2 ADD SWAP1 PUSH2 0x210 SWAP2 SWAP1 PUSH2 0x2714 JUMP JUMPDEST PUSH2 0x7B7 JUMP JUMPDEST PUSH1 0x40 MLOAD PUSH2 0x222 SWAP2 SWAP1 PUSH2 0x2782 JUMP JUMPDEST PUSH1 0x40 MLOAD DUP1 SWAP2 SUB SWAP1 RETURN JUMPDEST CALLVALUE DUP1 ISZERO PUSH2 0x237 JUMPI PUSH1 0x0 DUP1 REVERT JUMPDEST POP PUSH2 0x252 PUSH1 0x4 DUP1 CALLDATASIZE SUB DUP2 ADD SWAP1 PUSH2 0x24D SWAP2 SWAP1 PUSH2 0x27C9 JUMP JUMPDEST PUSH2 0x7FD JUMP JUMPDEST STOP JUMPDEST CALLVALUE DUP1 ISZERO PUSH2 0x260 JUMPI PUSH1 0x0 DUP1 REVERT JUMPDEST POP PUSH2 0x269 PUSH2 0x914 JUMP JUMPDEST PUSH1 0x40 MLOAD PUSH2 0x276 SWAP2 SWAP1 PUSH2 0x2818 JUMP JUMPDEST PUSH1 0x40 MLOAD DUP1 SWAP2 SUB SWAP1 RETURN JUMPDEST CALLVALUE DUP1 ISZERO PUSH2 0x28B JUMPI PUSH1 0x0 DUP1 REVERT JUMPDEST POP PUSH2 0x2A6 PUSH1 0x4 DUP1 CALLDATASIZE SUB DUP2 ADD SWAP1 PUSH2 0x2A1 SWAP2 SWAP1 PUSH2 0x297B JUMP JUMPDEST PUSH2 0x91A JUMP JUMPDEST STOP JUMPDEST CALLVALUE DUP1 ISZERO PUSH2 0x2B4 JUMPI PUSH1 0x0 DUP1 REVERT JUMPDEST POP PUSH2 0x2CF PUSH1 0x4 DUP1 CALLDATASIZE SUB DUP2 ADD SWAP1 PUSH2 0x2CA SWAP2 SWAP1 PUSH2 0x29D7 JUMP JUMPDEST PUSH2 0x9DA JUMP JUMPDEST STOP JUMPDEST CALLVALUE DUP1 ISZERO PUSH2 0x2DD JUMPI PUSH1 0x0 DUP1 REVERT JUMPDEST POP PUSH2 0x2F8 PUSH1 0x4 DUP1 CALLDATASIZE SUB DUP2 ADD SWAP1 PUSH2 0x2F3 SWAP2 SWAP1 PUSH2 0x2714 JUMP JUMPDEST PUSH2 0xA3A JUMP JUMPDEST PUSH1 0x40 MLOAD PUSH2 0x305 SWAP2 SWAP1 PUSH2 0x26BC JUMP JUMPDEST PUSH1 0x40 MLOAD DUP1 SWAP2 SUB SWAP1 RETURN JUMPDEST CALLVALUE DUP1 ISZERO PUSH2 0x31A JUMPI PUSH1 0x0 DUP1 REVERT JUMPDEST POP PUSH2 0x323 PUSH2 0xAEA JUMP JUMPDEST STOP JUMPDEST CALLVALUE DUP1 ISZERO PUSH2 0x331 JUMPI PUSH1 0x0 DUP1 REVERT JUMPDEST POP PUSH2 0x34C PUSH1 0x4 DUP1 CALLDATASIZE SUB DUP2 ADD SWAP1 PUSH2 0x347 SWAP2 SWAP1 PUSH2 0x29D7 JUMP JUMPDEST PUSH2 0xB9E JUMP JUMPDEST STOP JUMPDEST CALLVALUE DUP1 ISZERO PUSH2 0x35A JUMPI PUSH1 0x0 DUP1 REVERT JUMPDEST POP PUSH2 0x363 PUSH2 0xBBE JUMP JUMPDEST PUSH1 0x40 MLOAD PUSH2 0x370 SWAP2 SWAP1 PUSH2 0x2818 JUMP JUMPDEST PUSH1 0x40 MLOAD DUP1 SWAP2 SUB SWAP1 RETURN JUMPDEST CALLVALUE DUP1 ISZERO PUSH2 0x385 JUMPI PUSH1 0x0 DUP1 REVERT JUMPDEST POP PUSH2 0x38E PUSH2 0xBE6 JUMP JUMPDEST PUSH1 0x40 MLOAD PUSH2 0x39B SWAP2 SWAP1 PUSH2 0x2AD5 JUMP JUMPDEST PUSH1 0x40 MLOAD DUP1 SWAP2 SUB SWAP1 RETURN JUMPDEST CALLVALUE DUP1 ISZERO PUSH2 0x3B0 JUMPI PUSH1 0x0 DUP1 REVERT JUMPDEST POP PUSH2 0x3CB PUSH1 0x4 DUP1 CALLDATASIZE SUB DUP2 ADD SWAP1 PUSH2 0x3C6 SWAP2 SWAP1 PUSH2 0x2714 JUMP JUMPDEST PUSH2 0xC11 JUMP JUMPDEST PUSH1 0x40 MLOAD PUSH2 0x3D8 SWAP2 SWAP1 PUSH2 0x2782 JUMP JUMPDEST PUSH1 0x40 MLOAD DUP1 SWAP2 SUB SWAP1 RETURN JUMPDEST CALLVALUE DUP1 ISZERO PUSH2 0x3ED JUMPI PUSH1 0x0 DUP1 REVERT JUMPDEST POP PUSH2 0x3F6 PUSH2 0xC97 JUMP JUMPDEST PUSH1 0x40 MLOAD PUSH2 0x403 SWAP2 SWAP1 PUSH2 0x2818 JUMP JUMPDEST PUSH1 0x40 MLOAD DUP1 SWAP2 SUB SWAP1 RETURN JUMPDEST CALLVALUE DUP1 ISZERO PUSH2 0x418 JUMPI PUSH1 0x0 DUP1 REVERT JUMPDEST POP PUSH2 0x433 PUSH1 0x4 DUP1 CALLDATASIZE SUB DUP2 ADD SWAP1 PUSH2 0x42E SWAP2 SWAP1 PUSH2 0x2AF0 JUMP JUMPDEST PUSH2 0xCA1 JUMP JUMPDEST PUSH1 0x40 MLOAD PUSH2 0x440 SWAP2 SWAP1 PUSH2 0x2818 JUMP JUMPDEST PUSH1 0x40 MLOAD DUP1 SWAP2 SUB SWAP1 RETURN JUMPDEST CALLVALUE DUP1 ISZERO PUSH2 0x455 JUMPI PUSH1 0x0 DUP1 REVERT JUMPDEST POP PUSH2 0x45E PUSH2 0xD58 JUMP JUMPDEST STOP JUMPDEST CALLVALUE DUP1 ISZERO PUSH2 0x46C JUMPI PUSH1 0x0 DUP1 REVERT JUMPDEST POP PUSH2 0x475 PUSH2 0xD6C JUMP JUMPDEST PUSH1 0x40 MLOAD PUSH2 0x482 SWAP2 SWAP1 PUSH2 0x2782 JUMP JUMPDEST PUSH1 0x40 MLOAD DUP1 SWAP2 SUB SWAP1 RETURN JUMPDEST CALLVALUE DUP1 ISZERO PUSH2 0x497 JUMPI PUSH1 0x0 DUP1 REVERT JUMPDEST POP PUSH2 0x4A0 PUSH2 0xD96 JUMP JUMPDEST PUSH1 0x40 MLOAD PUSH2 0x4AD SWAP2 SWAP1 PUSH2 0x26BC JUMP JUMPDEST PUSH1 0x40 MLOAD DUP1 SWAP2 SUB SWAP1 RETURN JUMPDEST CALLVALUE DUP1 ISZERO PUSH2 0x4C2 JUMPI PUSH1 0x0 DUP1 REVERT JUMPDEST POP PUSH2 0x4DD PUSH1 0x4 DUP1 CALLDATASIZE SUB DUP2 ADD SWAP1 PUSH2 0x4D8 SWAP2 SWAP1 PUSH2 0x2B49 JUMP JUMPDEST PUSH2 0xE28 JUMP JUMPDEST STOP JUMPDEST CALLVALUE DUP1 ISZERO PUSH2 0x4EB JUMPI PUSH1 0x0 DUP1 REVERT JUMPDEST POP PUSH2 0x506 PUSH1 0x4 DUP1 CALLDATASIZE SUB DUP2 ADD SWAP1 PUSH2 0x501 SWAP2 SWAP1 PUSH2 0x2714 JUMP JUMPDEST PUSH2 0xE3E JUMP JUMPDEST PUSH1 0x40 MLOAD PUSH2 0x513 SWAP2 SWAP1 PUSH2 0x2782 JUMP JUMPDEST PUSH1 0x40 MLOAD DUP1 SWAP2 SUB SWAP1 RETURN JUMPDEST CALLVALUE DUP1 ISZERO PUSH2 0x528 JUMPI PUSH1 0x0 DUP1 REVERT JUMPDEST POP PUSH2 0x543 PUSH1 0x4 DUP1 CALLDATASIZE SUB DUP2 ADD SWAP1 PUSH2 0x53E SWAP2 SWAP1 PUSH2 0x2714 JUMP JUMPDEST PUSH2 0xE71 JUMP JUMPDEST PUSH1 0x40 MLOAD PUSH2 0x550 SWAP2 SWAP1 PUSH2 0x2C00 JUMP JUMPDEST PUSH1 0x40 MLOAD DUP1 SWAP2 SUB SWAP1 RETURN JUMPDEST PUSH2 0x561 PUSH2 0xF53 JUMP JUMPDEST PUSH1 0x40 MLOAD PUSH2 0x56E SWAP2 SWAP1 PUSH2 0x2818 JUMP JUMPDEST PUSH1 0x40 MLOAD DUP1 SWAP2 SUB SWAP1 RETURN JUMPDEST CALLVALUE DUP1 ISZERO PUSH2 0x583 JUMPI PUSH1 0x0 DUP1 REVERT JUMPDEST POP PUSH2 0x59E PUSH1 0x4 DUP1 CALLDATASIZE SUB DUP2 ADD SWAP1 PUSH2 0x599 SWAP2 SWAP1 PUSH2 0x2CD0 JUMP JUMPDEST PUSH2 0x1144 JUMP JUMPDEST STOP JUMPDEST CALLVALUE DUP1 ISZERO PUSH2 0x5AC JUMPI PUSH1 0x0 DUP1 REVERT JUMPDEST POP PUSH2 0x5C7 PUSH1 0x4 DUP1 CALLDATASIZE SUB DUP2 ADD SWAP1 PUSH2 0x5C2 SWAP2 SWAP1 PUSH2 0x2714 JUMP JUMPDEST PUSH2 0x11A6 JUMP JUMPDEST PUSH1 0x40 MLOAD PUSH2 0x5D4 SWAP2 SWAP1 PUSH2 0x26BC JUMP JUMPDEST PUSH1 0x40 MLOAD DUP1 SWAP2 SUB SWAP1 RETURN JUMPDEST CALLVALUE DUP1 ISZERO PUSH2 0x5E9 JUMPI PUSH1 0x0 DUP1 REVERT JUMPDEST POP PUSH2 0x604 PUSH1 0x4 DUP1 CALLDATASIZE SUB DUP2 ADD SWAP1 PUSH2 0x5FF SWAP2 SWAP1 PUSH2 0x2D53 JUMP JUMPDEST PUSH2 0x12B8 JUMP JUMPDEST PUSH1 0x40 MLOAD PUSH2 0x611 SWAP2 SWAP1 PUSH2 0x2611 JUMP JUMPDEST PUSH1 0x40 MLOAD DUP1 SWAP2 SUB SWAP1 RETURN JUMPDEST CALLVALUE DUP1 ISZERO PUSH2 0x626 JUMPI PUSH1 0x0 DUP1 REVERT JUMPDEST POP PUSH2 0x641 PUSH1 0x4 DUP1 CALLDATASIZE SUB DUP2 ADD SWAP1 PUSH2 0x63C SWAP2 SWAP1 PUSH2 0x2AF0 JUMP JUMPDEST PUSH2 0x134C JUMP JUMPDEST STOP JUMPDEST PUSH1 0x0 PUSH32 0x80AC58CD00000000000000000000000000000000000000000000000000000000 PUSH28 0xFFFFFFFFFFFFFFFFFFFFFFFFFFFFFFFFFFFFFFFFFFFFFFFFFFFFFFFF NOT AND DUP3 PUSH28 0xFFFFFFFFFFFFFFFFFFFFFFFFFFFFFFFFFFFFFFFFFFFFFFFFFFFFFFFF NOT AND EQ DUP1 PUSH2 0x70E JUMPI POP PUSH32 0x5B5E139F00000000000000000000000000000000000000000000000000000000 PUSH28 0xFFFFFFFFFFFFFFFFFFFFFFFFFFFFFFFFFFFFFFFFFFFFFFFFFFFFFFFF NOT AND DUP3 PUSH28 0xFFFFFFFFFFFFFFFFFFFFFFFFFFFFFFFFFFFFFFFFFFFFFFFFFFFFFFFF NOT AND EQ JUMPDEST DUP1 PUSH2 0x71E JUMPI POP PUSH2 0x71D DUP3 PUSH2 0x13CF JUMP JUMPDEST JUMPDEST SWAP1 POP SWAP2 SWAP1 POP JUMP JUMPDEST PUSH1 0x60 PUSH1 0x0 DUP1 SLOAD PUSH2 0x734 SWAP1 PUSH2 0x2DC2 JUMP JUMPDEST DUP1 PUSH1 0x1F ADD PUSH1 0x20 DUP1 SWAP2 DIV MUL PUSH1 0x20 ADD PUSH1 0x40 MLOAD SWAP1 DUP2 ADD PUSH1 0x40 MSTORE DUP1 SWAP3 SWAP2 SWAP1 DUP2 DUP2 MSTORE PUSH1 0x20 ADD DUP3 DUP1 SLOAD PUSH2 0x760 SWAP1 PUSH2 0x2DC2 JUMP JUMPDEST DUP1 ISZERO PUSH2 0x7AD JUMPI DUP1 PUSH1 0x1F LT PUSH2 0x782 JUMPI PUSH2 0x100 DUP1 DUP4 SLOAD DIV MUL DUP4 MSTORE SWAP2 PUSH1 0x20 ADD SWAP2 PUSH2 0x7AD JUMP JUMPDEST DUP3 ADD SWAP2 SWAP1 PUSH1 0x0 MSTORE PUSH1 0x20 PUSH1 0x0 KECCAK256 SWAP1 JUMPDEST DUP2 SLOAD DUP2 MSTORE SWAP1 PUSH1 0x1 ADD SWAP1 PUSH1 0x20 ADD DUP1 DUP4 GT PUSH2 0x790 JUMPI DUP3 SWAP1 SUB PUSH1 0x1F AND DUP3 ADD SWAP2 JUMPDEST POP POP POP POP POP SWAP1 POP SWAP1 JUMP JUMPDEST PUSH1 0x0 PUSH2 0x7C2 DUP3 PUSH2 0x1439 JUMP JUMPDEST PUSH1 0x4 PUSH1 0x0 DUP4 DUP2 MSTORE PUSH1 0x20 ADD SWAP1 DUP2 MSTORE PUSH1 0x20 ADD PUSH1 0x0 KECCAK256 PUSH1 0x0 SWAP1 SLOAD SWAP1 PUSH2 0x100 EXP SWAP1 DIV PUSH20 0xFFFFFFFFFFFFFFFFFFFFFFFFFFFFFFFFFFFFFFFF AND SWAP1 POP SWAP2 SWAP1 POP JUMP JUMPDEST PUSH1 0x0 PUSH2 0x808 DUP3 PUSH2 0xC11 JUMP JUMPDEST SWAP1 POP DUP1 PUSH20 0xFFFFFFFFFFFFFFFFFFFFFFFFFFFFFFFFFFFFFFFF AND DUP4 PUSH20 0xFFFFFFFFFFFFFFFFFFFFFFFFFFFFFFFFFFFFFFFF AND SUB PUSH2 0x878 JUMPI PUSH1 0x40 MLOAD PUSH32 0x8C379A000000000000000000000000000000000000000000000000000000000 DUP2 MSTORE PUSH1 0x4 ADD PUSH2 0x86F SWAP1 PUSH2 0x2E65 JUMP JUMPDEST PUSH1 0x40 MLOAD DUP1 SWAP2 SUB SWAP1 REVERT JUMPDEST DUP1 PUSH20 0xFFFFFFFFFFFFFFFFFFFFFFFFFFFFFFFFFFFFFFFF AND PUSH2 0x897 PUSH2 0x1484 JUMP JUMPDEST PUSH20 0xFFFFFFFFFFFFFFFFFFFFFFFFFFFFFFFFFFFFFFFF AND EQ DUP1 PUSH2 0x8C6 JUMPI POP PUSH2 0x8C5 DUP2 PUSH2 0x8C0 PUSH2 0x1484 JUMP JUMPDEST PUSH2 0x12B8 JUMP JUMPDEST JUMPDEST PUSH2 0x905 JUMPI PUSH1 0x40 MLOAD PUSH32 0x8C379A000000000000000000000000000000000000000000000000000000000 DUP2 MSTORE PUSH1 0x4 ADD PUSH2 0x8FC SWAP1 PUSH2 0x2EF7 JUMP JUMPDEST PUSH1 0x40 MLOAD DUP1 SWAP2 SUB SWAP1 REVERT JUMPDEST PUSH2 0x90F DUP4 DUP4 PUSH2 0x148C JUMP JUMPDEST POP POP POP JUMP JUMPDEST PUSH1 0x9 SLOAD DUP2 JUMP JUMPDEST PUSH32 0x0 PUSH20 0xFFFFFFFFFFFFFFFFFFFFFFFFFFFFFFFFFFFFFFFF AND CALLER PUSH20 0xFFFFFFFFFFFFFFFFFFFFFFFFFFFFFFFFFFFFFFFF AND EQ PUSH2 0x9CC JUMPI CALLER PUSH32 0x0 PUSH1 0x40 MLOAD PUSH32 0x1CF993F400000000000000000000000000000000000000000000000000000000 DUP2 MSTORE PUSH1 0x4 ADD PUSH2 0x9C3 SWAP3 SWAP2 SWAP1 PUSH2 0x2F17 JUMP JUMPDEST PUSH1 0x40 MLOAD DUP1 SWAP2 SUB SWAP1 REVERT JUMPDEST PUSH2 0x9D6 DUP3 DUP3 PUSH2 0x1545 JUMP JUMPDEST POP POP JUMP JUMPDEST PUSH2 0x9EB PUSH2 0x9E5 PUSH2 0x1484 JUMP JUMPDEST DUP3 PUSH2 0x16CA JUMP JUMPDEST PUSH2 0xA2A JUMPI PUSH1 0x40 MLOAD PUSH32 0x8C379A000000000000000000000000000000000000000000000000000000000 DUP2 MSTORE PUSH1 0x4 ADD PUSH2 0xA21 SWAP1 PUSH2 0x2FB2 JUMP JUMPDEST PUSH1 0x40 MLOAD DUP1 SWAP2 SUB SWAP1 REVERT JUMPDEST PUSH2 0xA35 DUP4 DUP4 DUP4 PUSH2 0x175F JUMP JUMPDEST POP POP POP JUMP JUMPDEST PUSH1 0x60 PUSH1 0xA DUP3 DUP2 SLOAD DUP2 LT PUSH2 0xA50 JUMPI PUSH2 0xA4F PUSH2 0x2FD2 JUMP JUMPDEST JUMPDEST SWAP1 PUSH1 0x0 MSTORE PUSH1 0x20 PUSH1 0x0 KECCAK256 ADD DUP1 SLOAD PUSH2 0xA65 SWAP1 PUSH2 0x2DC2 JUMP JUMPDEST DUP1 PUSH1 0x1F ADD PUSH1 0x20 DUP1 SWAP2 DIV MUL PUSH1 0x20 ADD PUSH1 0x40 MLOAD SWAP1 DUP2 ADD PUSH1 0x40 MSTORE DUP1 SWAP3 SWAP2 SWAP1 DUP2 DUP2 MSTORE PUSH1 0x20 ADD DUP3 DUP1 SLOAD PUSH2 0xA91 SWAP1 PUSH2 0x2DC2 JUMP JUMPDEST DUP1 ISZERO PUSH2 0xADE JUMPI DUP1 PUSH1 0x1F LT PUSH2 0xAB3 JUMPI PUSH2 0x100 DUP1 DUP4 SLOAD DIV MUL DUP4 MSTORE SWAP2 PUSH1 0x20 ADD SWAP2 PUSH2 0xADE JUMP JUMPDEST DUP3 ADD SWAP2 SWAP1 PUSH1 0x0 MSTORE PUSH1 0x20 PUSH1 0x0 KECCAK256 SWAP1 JUMPDEST DUP2 SLOAD DUP2 MSTORE SWAP1 PUSH1 0x1 ADD SWAP1 PUSH1 0x20 ADD DUP1 DUP4 GT PUSH2 0xAC1 JUMPI DUP3 SWAP1 SUB PUSH1 0x1F AND DUP3 ADD SWAP2 JUMPDEST POP POP POP POP POP SWAP1 POP SWAP2 SWAP1 POP JUMP JUMPDEST PUSH2 0xAF2 PUSH2 0x1A58 JUMP JUMPDEST PUSH1 0x0 SELFBALANCE SWAP1 POP PUSH1 0x0 CALLER PUSH20 0xFFFFFFFFFFFFFFFFFFFFFFFFFFFFFFFFFFFFFFFF AND DUP3 PUSH1 0x40 MLOAD PUSH2 0xB1D SWAP1 PUSH2 0x3032 JUMP JUMPDEST PUSH1 0x0 PUSH1 0x40 MLOAD DUP1 DUP4 SUB DUP2 DUP6 DUP8 GAS CALL SWAP3 POP POP POP RETURNDATASIZE DUP1 PUSH1 0x0 DUP2 EQ PUSH2 0xB5A JUMPI PUSH1 0x40 MLOAD SWAP2 POP PUSH1 0x1F NOT PUSH1 0x3F RETURNDATASIZE ADD AND DUP3 ADD PUSH1 0x40 MSTORE RETURNDATASIZE DUP3 MSTORE RETURNDATASIZE PUSH1 0x0 PUSH1 0x20 DUP5 ADD RETURNDATACOPY PUSH2 0xB5F JUMP JUMPDEST PUSH1 0x60 SWAP2 POP JUMPDEST POP POP SWAP1 POP DUP1 PUSH2 0xB9A JUMPI PUSH1 0x40 MLOAD PUSH32 0xCA7E25B700000000000000000000000000000000000000000000000000000000 DUP2 MSTORE PUSH1 0x4 ADD PUSH1 0x40 MLOAD DUP1 SWAP2 SUB SWAP1 REVERT JUMPDEST POP POP JUMP JUMPDEST PUSH2 0xBB9 DUP4 DUP4 DUP4 PUSH1 0x40 MLOAD DUP1 PUSH1 0x20 ADD PUSH1 0x40 MSTORE DUP1 PUSH1 0x0 DUP2 MSTORE POP PUSH2 0x1144 JUMP JUMPDEST POP POP POP JUMP JUMPDEST PUSH1 0x0 PUSH32 0x0 SWAP1 POP SWAP1 JUMP JUMPDEST PUSH2 0xBEE PUSH2 0x253B JUMP JUMPDEST PUSH1 0x40 MLOAD DUP1 PUSH1 0x60 ADD PUSH1 0x40 MSTORE DUP1 PUSH1 0xA DUP2 MSTORE PUSH1 0x20 ADD PUSH1 0x3C DUP2 MSTORE PUSH1 0x20 ADD PUSH1 0x64 DUP2 MSTORE POP SWAP1 POP SWAP1 JUMP JUMPDEST PUSH1 0x0 DUP1 PUSH2 0xC1D DUP4 PUSH2 0x1AD6 JUMP JUMPDEST SWAP1 POP PUSH1 0x0 PUSH20 0xFFFFFFFFFFFFFFFFFFFFFFFFFFFFFFFFFFFFFFFF AND DUP2 PUSH20 0xFFFFFFFFFFFFFFFFFFFFFFFFFFFFFFFFFFFFFFFF AND SUB PUSH2 0xC8E JUMPI PUSH1 0x40 MLOAD PUSH32 0x8C379A000000000000000000000000000000000000000000000000000000000 DUP2 MSTORE PUSH1 0x4 ADD PUSH2 0xC85 SWAP1 PUSH2 0x3093 JUMP JUMPDEST PUSH1 0x40 MLOAD DUP1 SWAP2 SUB SWAP1 REVERT JUMPDEST DUP1 SWAP2 POP POP SWAP2 SWAP1 POP JUMP JUMPDEST PUSH1 0x0 PUSH1 0x9 SLOAD SWAP1 POP SWAP1 JUMP JUMPDEST PUSH1 0x0 DUP1 PUSH20 0xFFFFFFFFFFFFFFFFFFFFFFFFFFFFFFFFFFFFFFFF AND DUP3 PUSH20 0xFFFFFFFFFFFFFFFFFFFFFFFFFFFFFFFFFFFFFFFF AND SUB PUSH2 0xD11 JUMPI PUSH1 0x40 MLOAD PUSH32 0x8C379A000000000000000000000000000000000000000000000000000000000 DUP2 MSTORE PUSH1 0x4 ADD PUSH2 0xD08 SWAP1 PUSH2 0x3125 JUMP JUMPDEST PUSH1 0x40 MLOAD DUP1 SWAP2 SUB SWAP1 REVERT JUMPDEST PUSH1 0x3 PUSH1 0x0 DUP4 PUSH20 0xFFFFFFFFFFFFFFFFFFFFFFFFFFFFFFFFFFFFFFFF AND PUSH20 0xFFFFFFFFFFFFFFFFFFFFFFFFFFFFFFFFFFFFFFFF AND DUP2 MSTORE PUSH1 0x20 ADD SWAP1 DUP2 MSTORE PUSH1 0x20 ADD PUSH1 0x0 KECCAK256 SLOAD SWAP1 POP SWAP2 SWAP1 POP JUMP JUMPDEST PUSH2 0xD60 PUSH2 0x1A58 JUMP JUMPDEST PUSH2 0xD6A PUSH1 0x0 PUSH2 0x1B13 JUMP JUMPDEST JUMP JUMPDEST PUSH1 0x0 PUSH1 0x7 PUSH1 0x0 SWAP1 SLOAD SWAP1 PUSH2 0x100 EXP SWAP1 DIV PUSH20 0xFFFFFFFFFFFFFFFFFFFFFFFFFFFFFFFFFFFFFFFF AND SWAP1 POP SWAP1 JUMP JUMPDEST PUSH1 0x60 PUSH1 0x1 DUP1 SLOAD PUSH2 0xDA5 SWAP1 PUSH2 0x2DC2 JUMP JUMPDEST DUP1 PUSH1 0x1F ADD PUSH1 0x20 DUP1 SWAP2 DIV MUL PUSH1 0x20 ADD PUSH1 0x40 MLOAD SWAP1 DUP2 ADD PUSH1 0x40 MSTORE DUP1 SWAP3 SWAP2 SWAP1 DUP2 DUP2 MSTORE PUSH1 0x20 ADD DUP3 DUP1 SLOAD PUSH2 0xDD1 SWAP1 PUSH2 0x2DC2 JUMP JUMPDEST DUP1 ISZERO PUSH2 0xE1E JUMPI DUP1 PUSH1 0x1F LT PUSH2 0xDF3 JUMPI PUSH2 0x100 DUP1 DUP4 SLOAD DIV MUL DUP4 MSTORE SWAP2 PUSH1 0x20 ADD SWAP2 PUSH2 0xE1E JUMP JUMPDEST DUP3 ADD SWAP2 SWAP1 PUSH1 0x0 MSTORE PUSH1 0x20 PUSH1 0x0 KECCAK256 SWAP1 JUMPDEST DUP2 SLOAD DUP2 MSTORE SWAP1 PUSH1 0x1 ADD SWAP1 PUSH1 0x20 ADD DUP1 DUP4 GT PUSH2 0xE01 JUMPI DUP3 SWAP1 SUB PUSH1 0x1F AND DUP3 ADD SWAP2 JUMPDEST POP POP POP POP POP SWAP1 POP SWAP1 JUMP JUMPDEST PUSH2 0xE3A PUSH2 0xE33 PUSH2 0x1484 JUMP JUMPDEST DUP4 DUP4 PUSH2 0x1BD9 JUMP JUMPDEST POP POP JUMP JUMPDEST PUSH1 0x8 PUSH1 0x20 MSTORE DUP1 PUSH1 0x0 MSTORE PUSH1 0x40 PUSH1 0x0 KECCAK256 PUSH1 0x0 SWAP2 POP SLOAD SWAP1 PUSH2 0x100 EXP SWAP1 DIV PUSH20 0xFFFFFFFFFFFFFFFFFFFFFFFFFFFFFFFFFFFFFFFF AND DUP2 JUMP JUMPDEST PUSH1 0x0 DUP1 PUSH1 0x0 SWAP1 POP PUSH1 0x0 PUSH2 0xE82 PUSH2 0xBE6 JUMP JUMPDEST SWAP1 POP PUSH1 0x0 JUMPDEST PUSH1 0x3 DUP2 LT ISZERO PUSH2 0xF1B JUMPI DUP3 DUP6 LT ISZERO DUP1 ISZERO PUSH2 0xEC1 JUMPI POP DUP2 DUP2 PUSH1 0x3 DUP2 LT PUSH2 0xEAE JUMPI PUSH2 0xEAD PUSH2 0x2FD2 JUMP JUMPDEST JUMPDEST PUSH1 0x20 MUL ADD MLOAD DUP4 PUSH2 0xEBE SWAP2 SWAP1 PUSH2 0x3174 JUMP JUMPDEST DUP6 LT JUMPDEST ISZERO PUSH2 0xEE3 JUMPI DUP1 PUSH1 0x2 DUP2 GT ISZERO PUSH2 0xED9 JUMPI PUSH2 0xED8 PUSH2 0x2B89 JUMP JUMPDEST JUMPDEST SWAP4 POP POP POP POP PUSH2 0xF4E JUMP JUMPDEST DUP2 DUP2 PUSH1 0x3 DUP2 LT PUSH2 0xEF6 JUMPI PUSH2 0xEF5 PUSH2 0x2FD2 JUMP JUMPDEST JUMPDEST PUSH1 0x20 MUL ADD MLOAD DUP4 PUSH2 0xF06 SWAP2 SWAP1 PUSH2 0x3174 JUMP JUMPDEST SWAP3 POP DUP1 DUP1 PUSH2 0xF13 SWAP1 PUSH2 0x31A8 JUMP JUMPDEST SWAP2 POP POP PUSH2 0xE87 JUMP JUMPDEST POP PUSH1 0x40 MLOAD PUSH32 0x12806C9D00000000000000000000000000000000000000000000000000000000 DUP2 MSTORE PUSH1 0x4 ADD PUSH1 0x40 MLOAD DUP1 SWAP2 SUB SWAP1 REVERT JUMPDEST SWAP2 SWAP1 POP JUMP JUMPDEST PUSH1 0x0 PUSH32 0x0 CALLVALUE LT ISZERO PUSH2 0xFAF JUMPI PUSH1 0x40 MLOAD PUSH32 0xB90F491000000000000000000000000000000000000000000000000000000000 DUP2 MSTORE PUSH1 0x4 ADD PUSH1 0x40 MLOAD DUP1 SWAP2 SUB SWAP1 REVERT JUMPDEST PUSH32 0x0 PUSH20 0xFFFFFFFFFFFFFFFFFFFFFFFFFFFFFFFFFFFFFFFF AND PUSH4 0x5D3B1D30 PUSH32 0x0 PUSH32 0x0 PUSH1 0x3 PUSH32 0x0 PUSH1 0x1 PUSH1 0x40 MLOAD DUP7 PUSH4 0xFFFFFFFF AND PUSH1 0xE0 SHL DUP2 MSTORE PUSH1 0x4 ADD PUSH2 0x1072 SWAP6 SWAP5 SWAP4 SWAP3 SWAP2 SWAP1 PUSH2 0x3268 JUMP JUMPDEST PUSH1 0x20 PUSH1 0x40 MLOAD DUP1 DUP4 SUB DUP2 PUSH1 0x0 DUP8 GAS CALL ISZERO DUP1 ISZERO PUSH2 0x1091 JUMPI RETURNDATASIZE PUSH1 0x0 DUP1 RETURNDATACOPY RETURNDATASIZE PUSH1 0x0 REVERT JUMPDEST POP POP POP POP PUSH1 0x40 MLOAD RETURNDATASIZE PUSH1 0x1F NOT PUSH1 0x1F DUP3 ADD AND DUP3 ADD DUP1 PUSH1 0x40 MSTORE POP DUP2 ADD SWAP1 PUSH2 0x10B5 SWAP2 SWAP1 PUSH2 0x32D0 JUMP JUMPDEST SWAP1 POP CALLER PUSH1 0x8 PUSH1 0x0 DUP4 DUP2 MSTORE PUSH1 0x20 ADD SWAP1 DUP2 MSTORE PUSH1 0x20 ADD PUSH1 0x0 KECCAK256 PUSH1 0x0 PUSH2 0x100 EXP DUP2 SLOAD DUP2 PUSH20 0xFFFFFFFFFFFFFFFFFFFFFFFFFFFFFFFFFFFFFFFF MUL NOT AND SWAP1 DUP4 PUSH20 0xFFFFFFFFFFFFFFFFFFFFFFFFFFFFFFFFFFFFFFFF AND MUL OR SWAP1 SSTORE POP DUP1 PUSH32 0xF873236E6CC0ECC5BE1A9A35C95EE5B8D1AC4CC7BFEF0CC5060391D6CC98E26B CALLER PUSH1 0x40 MLOAD PUSH2 0x1139 SWAP2 SWAP1 PUSH2 0x2782 JUMP JUMPDEST PUSH1 0x40 MLOAD DUP1 SWAP2 SUB SWAP1 LOG2 SWAP1 JUMP JUMPDEST PUSH2 0x1155 PUSH2 0x114F PUSH2 0x1484 JUMP JUMPDEST DUP4 PUSH2 0x16CA JUMP JUMPDEST PUSH2 0x1194 JUMPI PUSH1 0x40 MLOAD PUSH32 0x8C379A000000000000000000000000000000000000000000000000000000000 DUP2 MSTORE PUSH1 0x4 ADD PUSH2 0x118B SWAP1 PUSH2 0x2FB2 JUMP JUMPDEST PUSH1 0x40 MLOAD DUP1 SWAP2 SUB SWAP1 REVERT JUMPDEST PUSH2 0x11A0 DUP5 DUP5 DUP5 DUP5 PUSH2 0x1D45 JUMP JUMPDEST POP POP POP POP JUMP JUMPDEST PUSH1 0x60 PUSH2 0x11B1 DUP3 PUSH2 0x1439 JUMP JUMPDEST PUSH1 0x0 PUSH1 0x6 PUSH1 0x0 DUP5 DUP2 MSTORE PUSH1 0x20 ADD SWAP1 DUP2 MSTORE PUSH1 0x20 ADD PUSH1 0x0 KECCAK256 DUP1 SLOAD PUSH2 0x11D1 SWAP1 PUSH2 0x2DC2 JUMP JUMPDEST DUP1 PUSH1 0x1F ADD PUSH1 0x20 DUP1 SWAP2 DIV MUL PUSH1 0x20 ADD PUSH1 0x40 MLOAD SWAP1 DUP2 ADD PUSH1 0x40 MSTORE DUP1 SWAP3 SWAP2 SWAP1 DUP2 DUP2 MSTORE PUSH1 0x20 ADD DUP3 DUP1 SLOAD PUSH2 0x11FD SWAP1 PUSH2 0x2DC2 JUMP JUMPDEST DUP1 ISZERO PUSH2 0x124A JUMPI DUP1 PUSH1 0x1F LT PUSH2 0x121F JUMPI PUSH2 0x100 DUP1 DUP4 SLOAD DIV MUL DUP4 MSTORE SWAP2 PUSH1 0x20 ADD SWAP2 PUSH2 0x124A JUMP JUMPDEST DUP3 ADD SWAP2 SWAP1 PUSH1 0x0 MSTORE PUSH1 0x20 PUSH1 0x0 KECCAK256 SWAP1 JUMPDEST DUP2 SLOAD DUP2 MSTORE SWAP1 PUSH1 0x1 ADD SWAP1 PUSH1 0x20 ADD DUP1 DUP4 GT PUSH2 0x122D JUMPI DUP3 SWAP1 SUB PUSH1 0x1F AND DUP3 ADD SWAP2 JUMPDEST POP POP POP POP POP SWAP1 POP PUSH1 0x0 PUSH2 0x125B PUSH2 0x1DA1 JUMP JUMPDEST SWAP1 POP PUSH1 0x0 DUP2 MLOAD SUB PUSH2 0x1270 JUMPI DUP2 SWAP3 POP POP POP PUSH2 0x12B3 JUMP JUMPDEST PUSH1 0x0 DUP3 MLOAD GT ISZERO PUSH2 0x12A5 JUMPI DUP1 DUP3 PUSH1 0x40 MLOAD PUSH1 0x20 ADD PUSH2 0x128D SWAP3 SWAP2 SWAP1 PUSH2 0x3339 JUMP JUMPDEST PUSH1 0x40 MLOAD PUSH1 0x20 DUP2 DUP4 SUB SUB DUP2 MSTORE SWAP1 PUSH1 0x40 MSTORE SWAP3 POP POP POP PUSH2 0x12B3 JUMP JUMPDEST PUSH2 0x12AE DUP5 PUSH2 0x1DB8 JUMP JUMPDEST SWAP3 POP POP POP JUMPDEST SWAP2 SWAP1 POP JUMP JUMPDEST PUSH1 0x0 PUSH1 0x5 PUSH1 0x0 DUP5 PUSH20 0xFFFFFFFFFFFFFFFFFFFFFFFFFFFFFFFFFFFFFFFF AND PUSH20 0xFFFFFFFFFFFFFFFFFFFFFFFFFFFFFFFFFFFFFFFF AND DUP2 MSTORE PUSH1 0x20 ADD SWAP1 DUP2 MSTORE PUSH1 0x20 ADD PUSH1 0x0 KECCAK256 PUSH1 0x0 DUP4 PUSH20 0xFFFFFFFFFFFFFFFFFFFFFFFFFFFFFFFFFFFFFFFF AND PUSH20 0xFFFFFFFFFFFFFFFFFFFFFFFFFFFFFFFFFFFFFFFF AND DUP2 MSTORE PUSH1 0x20 ADD SWAP1 DUP2 MSTORE PUSH1 0x20 ADD PUSH1 0x0 KECCAK256 PUSH1 0x0 SWAP1 SLOAD SWAP1 PUSH2 0x100 EXP SWAP1 DIV PUSH1 0xFF AND SWAP1 POP SWAP3 SWAP2 POP POP JUMP JUMPDEST PUSH2 0x1354 PUSH2 0x1A58 JUMP JUMPDEST PUSH1 0x0 PUSH20 0xFFFFFFFFFFFFFFFFFFFFFFFFFFFFFFFFFFFFFFFF AND DUP2 PUSH20 0xFFFFFFFFFFFFFFFFFFFFFFFFFFFFFFFFFFFFFFFF AND SUB PUSH2 0x13C3 JUMPI PUSH1 0x40 MLOAD PUSH32 0x8C379A000000000000000000000000000000000000000000000000000000000 DUP2 MSTORE PUSH1 0x4 ADD PUSH2 0x13BA SWAP1 PUSH2 0x33CF JUMP JUMPDEST PUSH1 0x40 MLOAD DUP1 SWAP2 SUB SWAP1 REVERT JUMPDEST PUSH2 0x13CC DUP2 PUSH2 0x1B13 JUMP JUMPDEST POP JUMP JUMPDEST PUSH1 0x0 PUSH32 0x1FFC9A700000000000000000000000000000000000000000000000000000000 PUSH28 0xFFFFFFFFFFFFFFFFFFFFFFFFFFFFFFFFFFFFFFFFFFFFFFFFFFFFFFFF NOT AND DUP3 PUSH28 0xFFFFFFFFFFFFFFFFFFFFFFFFFFFFFFFFFFFFFFFFFFFFFFFFFFFFFFFF NOT AND EQ SWAP1 POP SWAP2 SWAP1 POP JUMP JUMPDEST PUSH2 0x1442 DUP2 PUSH2 0x1E20 JUMP JUMPDEST PUSH2 0x1481 JUMPI PUSH1 0x40 MLOAD PUSH32 0x8C379A000000000000000000000000000000000000000000000000000000000 DUP2 MSTORE PUSH1 0x4 ADD PUSH2 0x1478 SWAP1 PUSH2 0x3093 JUMP JUMPDEST PUSH1 0x40 MLOAD DUP1 SWAP2 SUB SWAP1 REVERT JUMPDEST POP JUMP JUMPDEST PUSH1 0x0 CALLER SWAP1 POP SWAP1 JUMP JUMPDEST DUP2 PUSH1 0x4 PUSH1 0x0 DUP4 DUP2 MSTORE PUSH1 0x20 ADD SWAP1 DUP2 MSTORE PUSH1 0x20 ADD PUSH1 0x0 KECCAK256 PUSH1 0x0 PUSH2 0x100 EXP DUP2 SLOAD DUP2 PUSH20 0xFFFFFFFFFFFFFFFFFFFFFFFFFFFFFFFFFFFFFFFF MUL NOT AND SWAP1 DUP4 PUSH20 0xFFFFFFFFFFFFFFFFFFFFFFFFFFFFFFFFFFFFFFFF AND MUL OR SWAP1 SSTORE POP DUP1 DUP3 PUSH20 0xFFFFFFFFFFFFFFFFFFFFFFFFFFFFFFFFFFFFFFFF AND PUSH2 0x14FF DUP4 PUSH2 0xC11 JUMP JUMPDEST PUSH20 0xFFFFFFFFFFFFFFFFFFFFFFFFFFFFFFFFFFFFFFFF AND PUSH32 0x8C5BE1E5EBEC7D5BD14F71427D1E84F3DD0314C0F7B2291E5B200AC8C7C3B925 PUSH1 0x40 MLOAD PUSH1 0x40 MLOAD DUP1 SWAP2 SUB SWAP1 LOG4 POP POP JUMP JUMPDEST PUSH1 0x0 PUSH1 0x8 PUSH1 0x0 DUP5 DUP2 MSTORE PUSH1 0x20 ADD SWAP1 DUP2 MSTORE PUSH1 0x20 ADD PUSH1 0x0 KECCAK256 PUSH1 0x0 SWAP1 SLOAD SWAP1 PUSH2 0x100 EXP SWAP1 DIV PUSH20 0xFFFFFFFFFFFFFFFFFFFFFFFFFFFFFFFFFFFFFFFF AND SWAP1 POP PUSH1 0x0 PUSH1 0x9 SLOAD SWAP1 POP PUSH1 0x0 PUSH1 0x64 DUP5 PUSH1 0x0 DUP2 MLOAD DUP2 LT PUSH2 0x159C JUMPI PUSH2 0x159B PUSH2 0x2FD2 JUMP JUMPDEST JUMPDEST PUSH1 0x20 MUL PUSH1 0x20 ADD ADD MLOAD PUSH2 0x15AE SWAP2 SWAP1 PUSH2 0x341E JUMP JUMPDEST SWAP1 POP PUSH1 0x0 PUSH2 0x15BB DUP3 PUSH2 0xE71 JUMP JUMPDEST SWAP1 POP PUSH2 0x15C7 DUP5 DUP5 PUSH2 0x1E61 JUMP JUMPDEST PUSH2 0x1689 DUP4 PUSH1 0xA DUP4 PUSH1 0x2 DUP2 GT ISZERO PUSH2 0x15E0 JUMPI PUSH2 0x15DF PUSH2 0x2B89 JUMP JUMPDEST JUMPDEST DUP2 SLOAD DUP2 LT PUSH2 0x15F1 JUMPI PUSH2 0x15F0 PUSH2 0x2FD2 JUMP JUMPDEST JUMPDEST SWAP1 PUSH1 0x0 MSTORE PUSH1 0x20 PUSH1 0x0 KECCAK256 ADD DUP1 SLOAD PUSH2 0x1606 SWAP1 PUSH2 0x2DC2 JUMP JUMPDEST DUP1 PUSH1 0x1F ADD PUSH1 0x20 DUP1 SWAP2 DIV MUL PUSH1 0x20 ADD PUSH1 0x40 MLOAD SWAP1 DUP2 ADD PUSH1 0x40 MSTORE DUP1 SWAP3 SWAP2 SWAP1 DUP2 DUP2 MSTORE PUSH1 0x20 ADD DUP3 DUP1 SLOAD PUSH2 0x1632 SWAP1 PUSH2 0x2DC2 JUMP JUMPDEST DUP1 ISZERO PUSH2 0x167F JUMPI DUP1 PUSH1 0x1F LT PUSH2 0x1654 JUMPI PUSH2 0x100 DUP1 DUP4 SLOAD DIV MUL DUP4 MSTORE SWAP2 PUSH1 0x20 ADD SWAP2 PUSH2 0x167F JUMP JUMPDEST DUP3 ADD SWAP2 SWAP1 PUSH1 0x0 MSTORE PUSH1 0x20 PUSH1 0x0 KECCAK256 SWAP1 JUMPDEST DUP2 SLOAD DUP2 MSTORE SWAP1 PUSH1 0x1 ADD SWAP1 PUSH1 0x20 ADD DUP1 DUP4 GT PUSH2 0x1662 JUMPI DUP3 SWAP1 SUB PUSH1 0x1F AND DUP3 ADD SWAP2 JUMPDEST POP POP POP POP POP PUSH2 0x1E7F JUMP JUMPDEST PUSH32 0x8A269F26B688E110E9CBD887D163DAB35CAE678FA353A0292DE532C0CAC1ECDC DUP2 DUP6 PUSH1 0x40 MLOAD PUSH2 0x16BA SWAP3 SWAP2 SWAP1 PUSH2 0x344F JUMP JUMPDEST PUSH1 0x40 MLOAD DUP1 SWAP2 SUB SWAP1 LOG1 POP POP POP POP POP POP JUMP JUMPDEST PUSH1 0x0 DUP1 PUSH2 0x16D6 DUP4 PUSH2 0xC11 JUMP JUMPDEST SWAP1 POP DUP1 PUSH20 0xFFFFFFFFFFFFFFFFFFFFFFFFFFFFFFFFFFFFFFFF AND DUP5 PUSH20 0xFFFFFFFFFFFFFFFFFFFFFFFFFFFFFFFFFFFFFFFF AND EQ DUP1 PUSH2 0x1718 JUMPI POP PUSH2 0x1717 DUP2 DUP6 PUSH2 0x12B8 JUMP JUMPDEST JUMPDEST DUP1 PUSH2 0x1756 JUMPI POP DUP4 PUSH20 0xFFFFFFFFFFFFFFFFFFFFFFFFFFFFFFFFFFFFFFFF AND PUSH2 0x173E DUP5 PUSH2 0x7B7 JUMP JUMPDEST PUSH20 0xFFFFFFFFFFFFFFFFFFFFFFFFFFFFFFFFFFFFFFFF AND EQ JUMPDEST SWAP2 POP POP SWAP3 SWAP2 POP POP JUMP JUMPDEST DUP3 PUSH20 0xFFFFFFFFFFFFFFFFFFFFFFFFFFFFFFFFFFFFFFFF AND PUSH2 0x177F DUP3 PUSH2 0xC11 JUMP JUMPDEST PUSH20 0xFFFFFFFFFFFFFFFFFFFFFFFFFFFFFFFFFFFFFFFF AND EQ PUSH2 0x17D5 JUMPI PUSH1 0x40 MLOAD PUSH32 0x8C379A000000000000000000000000000000000000000000000000000000000 DUP2 MSTORE PUSH1 0x4 ADD PUSH2 0x17CC SWAP1 PUSH2 0x34EA JUMP JUMPDEST PUSH1 0x40 MLOAD DUP1 SWAP2 SUB SWAP1 REVERT JUMPDEST PUSH1 0x0 PUSH20 0xFFFFFFFFFFFFFFFFFFFFFFFFFFFFFFFFFFFFFFFF AND DUP3 PUSH20 0xFFFFFFFFFFFFFFFFFFFFFFFFFFFFFFFFFFFFFFFF AND SUB PUSH2 0x1844 JUMPI PUSH1 0x40 MLOAD PUSH32 0x8C379A000000000000000000000000000000000000000000000000000000000 DUP2 MSTORE PUSH1 0x4 ADD PUSH2 0x183B SWAP1 PUSH2 0x357C JUMP JUMPDEST PUSH1 0x40 MLOAD DUP1 SWAP2 SUB SWAP1 REVERT JUMPDEST PUSH2 0x1851 DUP4 DUP4 DUP4 PUSH1 0x1 PUSH2 0x1EEC JUMP JUMPDEST DUP3 PUSH20 0xFFFFFFFFFFFFFFFFFFFFFFFFFFFFFFFFFFFFFFFF AND PUSH2 0x1871 DUP3 PUSH2 0xC11 JUMP JUMPDEST PUSH20 0xFFFFFFFFFFFFFFFFFFFFFFFFFFFFFFFFFFFFFFFF AND EQ PUSH2 0x18C7 JUMPI PUSH1 0x40 MLOAD PUSH32 0x8C379A000000000000000000000000000000000000000000000000000000000 DUP2 MSTORE PUSH1 0x4 ADD PUSH2 0x18BE SWAP1 PUSH2 0x34EA JUMP JUMPDEST PUSH1 0x40 MLOAD DUP1 SWAP2 SUB SWAP1 REVERT JUMPDEST PUSH1 0x4 PUSH1 0x0 DUP3 DUP2 MSTORE PUSH1 0x20 ADD SWAP1 DUP2 MSTORE PUSH1 0x20 ADD PUSH1 0x0 KECCAK256 PUSH1 0x0 PUSH2 0x100 EXP DUP2 SLOAD SWAP1 PUSH20 0xFFFFFFFFFFFFFFFFFFFFFFFFFFFFFFFFFFFFFFFF MUL NOT AND SWAP1 SSTORE PUSH1 0x1 PUSH1 0x3 PUSH1 0x0 DUP6 PUSH20 0xFFFFFFFFFFFFFFFFFFFFFFFFFFFFFFFFFFFFFFFF AND PUSH20 0xFFFFFFFFFFFFFFFFFFFFFFFFFFFFFFFFFFFFFFFF AND DUP2 MSTORE PUSH1 0x20 ADD SWAP1 DUP2 MSTORE PUSH1 0x20 ADD PUSH1 0x0 KECCAK256 PUSH1 0x0 DUP3 DUP3 SLOAD SUB SWAP3 POP POP DUP2 SWAP1 SSTORE POP PUSH1 0x1 PUSH1 0x3 PUSH1 0x0 DUP5 PUSH20 0xFFFFFFFFFFFFFFFFFFFFFFFFFFFFFFFFFFFFFFFF AND PUSH20 0xFFFFFFFFFFFFFFFFFFFFFFFFFFFFFFFFFFFFFFFF AND DUP2 MSTORE PUSH1 0x20 ADD SWAP1 DUP2 MSTORE PUSH1 0x20 ADD PUSH1 0x0 KECCAK256 PUSH1 0x0 DUP3 DUP3 SLOAD ADD SWAP3 POP POP DUP2 SWAP1 SSTORE POP DUP2 PUSH1 0x2 PUSH1 0x0 DUP4 DUP2 MSTORE PUSH1 0x20 ADD SWAP1 DUP2 MSTORE PUSH1 0x20 ADD PUSH1 0x0 KECCAK256 PUSH1 0x0 PUSH2 0x100 EXP DUP2 SLOAD DUP2 PUSH20 0xFFFFFFFFFFFFFFFFFFFFFFFFFFFFFFFFFFFFFFFF MUL NOT AND SWAP1 DUP4 PUSH20 0xFFFFFFFFFFFFFFFFFFFFFFFFFFFFFFFFFFFFFFFF AND MUL OR SWAP1 SSTORE POP DUP1 DUP3 PUSH20 0xFFFFFFFFFFFFFFFFFFFFFFFFFFFFFFFFFFFFFFFF AND DUP5 PUSH20 0xFFFFFFFFFFFFFFFFFFFFFFFFFFFFFFFFFFFFFFFF AND PUSH32 0xDDF252AD1BE2C89B69C2B068FC378DAA952BA7F163C4A11628F55A4DF523B3EF PUSH1 0x40 MLOAD PUSH1 0x40 MLOAD DUP1 SWAP2 SUB SWAP1 LOG4 PUSH2 0x1A53 DUP4 DUP4 DUP4 PUSH1 0x1 PUSH2 0x1EF2 JUMP JUMPDEST POP POP POP JUMP JUMPDEST PUSH2 0x1A60 PUSH2 0x1484 JUMP JUMPDEST PUSH20 0xFFFFFFFFFFFFFFFFFFFFFFFFFFFFFFFFFFFFFFFF AND PUSH2 0x1A7E PUSH2 0xD6C JUMP JUMPDEST PUSH20 0xFFFFFFFFFFFFFFFFFFFFFFFFFFFFFFFFFFFFFFFF AND EQ PUSH2 0x1AD4 JUMPI PUSH1 0x40 MLOAD PUSH32 0x8C379A000000000000000000000000000000000000000000000000000000000 DUP2 MSTORE PUSH1 0x4 ADD PUSH2 0x1ACB SWAP1 PUSH2 0x35E8 JUMP JUMPDEST PUSH1 0x40 MLOAD DUP1 SWAP2 SUB SWAP1 REVERT JUMPDEST JUMP JUMPDEST PUSH1 0x0 PUSH1 0x2 PUSH1 0x0 DUP4 DUP2 MSTORE PUSH1 0x20 ADD SWAP1 DUP2 MSTORE PUSH1 0x20 ADD PUSH1 0x0 KECCAK256 PUSH1 0x0 SWAP1 SLOAD SWAP1 PUSH2 0x100 EXP SWAP1 DIV PUSH20 0xFFFFFFFFFFFFFFFFFFFFFFFFFFFFFFFFFFFFFFFF AND SWAP1 POP SWAP2 SWAP1 POP JUMP JUMPDEST PUSH1 0x0 PUSH1 0x7 PUSH1 0x0 SWAP1 SLOAD SWAP1 PUSH2 0x100 EXP SWAP1 DIV PUSH20 0xFFFFFFFFFFFFFFFFFFFFFFFFFFFFFFFFFFFFFFFF AND SWAP1 POP DUP2 PUSH1 0x7 PUSH1 0x0 PUSH2 0x100 EXP DUP2 SLOAD DUP2 PUSH20 0xFFFFFFFFFFFFFFFFFFFFFFFFFFFFFFFFFFFFFFFF MUL NOT AND SWAP1 DUP4 PUSH20 0xFFFFFFFFFFFFFFFFFFFFFFFFFFFFFFFFFFFFFFFF AND MUL OR SWAP1 SSTORE POP DUP2 PUSH20 0xFFFFFFFFFFFFFFFFFFFFFFFFFFFFFFFFFFFFFFFF AND DUP2 PUSH20 0xFFFFFFFFFFFFFFFFFFFFFFFFFFFFFFFFFFFFFFFF AND PUSH32 0x8BE0079C531659141344CD1FD0A4F28419497F9722A3DAAFE3B4186F6B6457E0 PUSH1 0x40 MLOAD PUSH1 0x40 MLOAD DUP1 SWAP2 SUB SWAP1 LOG3 POP POP JUMP JUMPDEST DUP2 PUSH20 0xFFFFFFFFFFFFFFFFFFFFFFFFFFFFFFFFFFFFFFFF AND DUP4 PUSH20 0xFFFFFFFFFFFFFFFFFFFFFFFFFFFFFFFFFFFFFFFF AND SUB PUSH2 0x1C47 JUMPI PUSH1 0x40 MLOAD PUSH32 0x8C379A000000000000000000000000000000000000000000000000000000000 DUP2 MSTORE PUSH1 0x4 ADD PUSH2 0x1C3E SWAP1 PUSH2 0x3654 JUMP JUMPDEST PUSH1 0x40 MLOAD DUP1 SWAP2 SUB SWAP1 REVERT JUMPDEST DUP1 PUSH1 0x5 PUSH1 0x0 DUP6 PUSH20 0xFFFFFFFFFFFFFFFFFFFFFFFFFFFFFFFFFFFFFFFF AND PUSH20 0xFFFFFFFFFFFFFFFFFFFFFFFFFFFFFFFFFFFFFFFF AND DUP2 MSTORE PUSH1 0x20 ADD SWAP1 DUP2 MSTORE PUSH1 0x20 ADD PUSH1 0x0 KECCAK256 PUSH1 0x0 DUP5 PUSH20 0xFFFFFFFFFFFFFFFFFFFFFFFFFFFFFFFFFFFFFFFF AND PUSH20 0xFFFFFFFFFFFFFFFFFFFFFFFFFFFFFFFFFFFFFFFF AND DUP2 MSTORE PUSH1 0x20 ADD SWAP1 DUP2 MSTORE PUSH1 0x20 ADD PUSH1 0x0 KECCAK256 PUSH1 0x0 PUSH2 0x100 EXP DUP2 SLOAD DUP2 PUSH1 0xFF MUL NOT AND SWAP1 DUP4 ISZERO ISZERO MUL OR SWAP1 SSTORE POP DUP2 PUSH20 0xFFFFFFFFFFFFFFFFFFFFFFFFFFFFFFFFFFFFFFFF AND DUP4 PUSH20 0xFFFFFFFFFFFFFFFFFFFFFFFFFFFFFFFFFFFFFFFF AND PUSH32 0x17307EAB39AB6107E8899845AD3D59BD9653F200F220920489CA2B5937696C31 DUP4 PUSH1 0x40 MLOAD PUSH2 0x1D38 SWAP2 SWAP1 PUSH2 0x2611 JUMP JUMPDEST PUSH1 0x40 MLOAD DUP1 SWAP2 SUB SWAP1 LOG3 POP POP POP JUMP JUMPDEST PUSH2 0x1D50 DUP5 DUP5 DUP5 PUSH2 0x175F JUMP JUMPDEST PUSH2 0x1D5C DUP5 DUP5 DUP5 DUP5 PUSH2 0x1EF8 JUMP JUMPDEST PUSH2 0x1D9B JUMPI PUSH1 0x40 MLOAD PUSH32 0x8C379A000000000000000000000000000000000000000000000000000000000 DUP2 MSTORE PUSH1 0x4 ADD PUSH2 0x1D92 SWAP1 PUSH2 0x36E6 JUMP JUMPDEST PUSH1 0x40 MLOAD DUP1 SWAP2 SUB SWAP1 REVERT JUMPDEST POP POP POP POP JUMP JUMPDEST PUSH1 0x60 PUSH1 0x40 MLOAD DUP1 PUSH1 0x20 ADD PUSH1 0x40 MSTORE DUP1 PUSH1 0x0 DUP2 MSTORE POP SWAP1 POP SWAP1 JUMP JUMPDEST PUSH1 0x60 PUSH2 0x1DC3 DUP3 PUSH2 0x1439 JUMP JUMPDEST PUSH1 0x0 PUSH2 0x1DCD PUSH2 0x1DA1 JUMP JUMPDEST SWAP1 POP PUSH1 0x0 DUP2 MLOAD GT PUSH2 0x1DED JUMPI PUSH1 0x40 MLOAD DUP1 PUSH1 0x20 ADD PUSH1 0x40 MSTORE DUP1 PUSH1 0x0 DUP2 MSTORE POP PUSH2 0x1E18 JUMP JUMPDEST DUP1 PUSH2 0x1DF7 DUP5 PUSH2 0x207F JUMP JUMPDEST PUSH1 0x40 MLOAD PUSH1 0x20 ADD PUSH2 0x1E08 SWAP3 SWAP2 SWAP1 PUSH2 0x3339 JUMP JUMPDEST PUSH1 0x40 MLOAD PUSH1 0x20 DUP2 DUP4 SUB SUB DUP2 MSTORE SWAP1 PUSH1 0x40 MSTORE JUMPDEST SWAP2 POP POP SWAP2 SWAP1 POP JUMP JUMPDEST PUSH1 0x0 DUP1 PUSH20 0xFFFFFFFFFFFFFFFFFFFFFFFFFFFFFFFFFFFFFFFF AND PUSH2 0x1E42 DUP4 PUSH2 0x1AD6 JUMP JUMPDEST PUSH20 0xFFFFFFFFFFFFFFFFFFFFFFFFFFFFFFFFFFFFFFFF AND EQ ISZERO SWAP1 POP SWAP2 SWAP1 POP JUMP JUMPDEST PUSH2 0x1E7B DUP3 DUP3 PUSH1 0x40 MLOAD DUP1 PUSH1 0x20 ADD PUSH1 0x40 MSTORE DUP1 PUSH1 0x0 DUP2 MSTORE POP PUSH2 0x214D JUMP JUMPDEST POP POP JUMP JUMPDEST PUSH2 0x1E88 DUP3 PUSH2 0x1E20 JUMP JUMPDEST PUSH2 0x1EC7 JUMPI PUSH1 0x40 MLOAD PUSH32 0x8C379A000000000000000000000000000000000000000000000000000000000 DUP2 MSTORE PUSH1 0x4 ADD PUSH2 0x1EBE SWAP1 PUSH2 0x3778 JUMP JUMPDEST PUSH1 0x40 MLOAD DUP1 SWAP2 SUB SWAP1 REVERT JUMPDEST DUP1 PUSH1 0x6 PUSH1 0x0 DUP5 DUP2 MSTORE PUSH1 0x20 ADD SWAP1 DUP2 MSTORE PUSH1 0x20 ADD PUSH1 0x0 KECCAK256 SWAP1 DUP2 PUSH2 0x1EE7 SWAP2 SWAP1 PUSH2 0x3944 JUMP JUMPDEST POP POP POP JUMP JUMPDEST POP POP POP POP JUMP JUMPDEST POP POP POP POP JUMP JUMPDEST PUSH1 0x0 PUSH2 0x1F19 DUP5 PUSH20 0xFFFFFFFFFFFFFFFFFFFFFFFFFFFFFFFFFFFFFFFF AND PUSH2 0x21A8 JUMP JUMPDEST ISZERO PUSH2 0x2072 JUMPI DUP4 PUSH20 0xFFFFFFFFFFFFFFFFFFFFFFFFFFFFFFFFFFFFFFFF AND PUSH4 0x150B7A02 PUSH2 0x1F42 PUSH2 0x1484 JUMP JUMPDEST DUP8 DUP7 DUP7 PUSH1 0x40 MLOAD DUP6 PUSH4 0xFFFFFFFF AND PUSH1 0xE0 SHL DUP2 MSTORE PUSH1 0x4 ADD PUSH2 0x1F64 SWAP5 SWAP4 SWAP3 SWAP2 SWAP1 PUSH2 0x3A6B JUMP JUMPDEST PUSH1 0x20 PUSH1 0x40 MLOAD DUP1 DUP4 SUB DUP2 PUSH1 0x0 DUP8 GAS CALL SWAP3 POP POP POP DUP1 ISZERO PUSH2 0x1FA0 JUMPI POP PUSH1 0x40 MLOAD RETURNDATASIZE PUSH1 0x1F NOT PUSH1 0x1F DUP3 ADD AND DUP3 ADD DUP1 PUSH1 0x40 MSTORE POP DUP2 ADD SWAP1 PUSH2 0x1F9D SWAP2 SWAP1 PUSH2 0x3ACC JUMP JUMPDEST PUSH1 0x1 JUMPDEST PUSH2 0x2022 JUMPI RETURNDATASIZE DUP1 PUSH1 0x0 DUP2 EQ PUSH2 0x1FD0 JUMPI PUSH1 0x40 MLOAD SWAP2 POP PUSH1 0x1F NOT PUSH1 0x3F RETURNDATASIZE ADD AND DUP3 ADD PUSH1 0x40 MSTORE RETURNDATASIZE DUP3 MSTORE RETURNDATASIZE PUSH1 0x0 PUSH1 0x20 DUP5 ADD RETURNDATACOPY PUSH2 0x1FD5 JUMP JUMPDEST PUSH1 0x60 SWAP2 POP JUMPDEST POP PUSH1 0x0 DUP2 MLOAD SUB PUSH2 0x201A JUMPI PUSH1 0x40 MLOAD PUSH32 0x8C379A000000000000000000000000000000000000000000000000000000000 DUP2 MSTORE PUSH1 0x4 ADD PUSH2 0x2011 SWAP1 PUSH2 0x36E6 JUMP JUMPDEST PUSH1 0x40 MLOAD DUP1 SWAP2 SUB SWAP1 REVERT JUMPDEST DUP1 MLOAD DUP2 PUSH1 0x20 ADD REVERT JUMPDEST PUSH4 0x150B7A02 PUSH1 0xE0 SHL PUSH28 0xFFFFFFFFFFFFFFFFFFFFFFFFFFFFFFFFFFFFFFFFFFFFFFFFFFFFFFFF NOT AND DUP2 PUSH28 0xFFFFFFFFFFFFFFFFFFFFFFFFFFFFFFFFFFFFFFFFFFFFFFFFFFFFFFFF NOT AND EQ SWAP2 POP POP PUSH2 0x2077 JUMP JUMPDEST PUSH1 0x1 SWAP1 POP JUMPDEST SWAP5 SWAP4 POP POP POP POP JUMP JUMPDEST PUSH1 0x60 PUSH1 0x0 PUSH1 0x1 PUSH2 0x208E DUP5 PUSH2 0x21CB JUMP JUMPDEST ADD SWAP1 POP PUSH1 0x0 DUP2 PUSH8 0xFFFFFFFFFFFFFFFF DUP2 GT ISZERO PUSH2 0x20AD JUMPI PUSH2 0x20AC PUSH2 0x2838 JUMP JUMPDEST JUMPDEST PUSH1 0x40 MLOAD SWAP1 DUP1 DUP3 MSTORE DUP1 PUSH1 0x1F ADD PUSH1 0x1F NOT AND PUSH1 0x20 ADD DUP3 ADD PUSH1 0x40 MSTORE DUP1 ISZERO PUSH2 0x20DF JUMPI DUP2 PUSH1 0x20 ADD PUSH1 0x1 DUP3 MUL DUP1 CALLDATASIZE DUP4 CALLDATACOPY DUP1 DUP3 ADD SWAP2 POP POP SWAP1 POP JUMPDEST POP SWAP1 POP PUSH1 0x0 DUP3 PUSH1 0x20 ADD DUP3 ADD SWAP1 POP JUMPDEST PUSH1 0x1 ISZERO PUSH2 0x2142 JUMPI DUP1 DUP1 PUSH1 0x1 SWAP1 SUB SWAP2 POP POP PUSH32 0x3031323334353637383961626364656600000000000000000000000000000000 PUSH1 0xA DUP7 MOD BYTE DUP2 MSTORE8 PUSH1 0xA DUP6 DUP2 PUSH2 0x2136 JUMPI PUSH2 0x2135 PUSH2 0x33EF JUMP JUMPDEST JUMPDEST DIV SWAP5 POP PUSH1 0x0 DUP6 SUB PUSH2 0x20ED JUMPI JUMPDEST DUP2 SWAP4 POP POP POP POP SWAP2 SWAP1 POP JUMP JUMPDEST PUSH2 0x2157 DUP4 DUP4 PUSH2 0x231E JUMP JUMPDEST PUSH2 0x2164 PUSH1 0x0 DUP5 DUP5 DUP5 PUSH2 0x1EF8 JUMP JUMPDEST PUSH2 0x21A3 JUMPI PUSH1 0x40 MLOAD PUSH32 0x8C379A000000000000000000000000000000000000000000000000000000000 DUP2 MSTORE PUSH1 0x4 ADD PUSH2 0x219A SWAP1 PUSH2 0x36E6 JUMP JUMPDEST PUSH1 0x40 MLOAD DUP1 SWAP2 SUB SWAP1 REVERT JUMPDEST POP POP POP JUMP JUMPDEST PUSH1 0x0 DUP1 DUP3 PUSH20 0xFFFFFFFFFFFFFFFFFFFFFFFFFFFFFFFFFFFFFFFF AND EXTCODESIZE GT SWAP1 POP SWAP2 SWAP1 POP JUMP JUMPDEST PUSH1 0x0 DUP1 PUSH1 0x0 SWAP1 POP PUSH27 0x184F03E93FF9F4DAA797ED6E38ED64BF6A1F010000000000000000 DUP4 LT PUSH2 0x2229 JUMPI PUSH27 0x184F03E93FF9F4DAA797ED6E38ED64BF6A1F010000000000000000 DUP4 DUP2 PUSH2 0x221F JUMPI PUSH2 0x221E PUSH2 0x33EF JUMP JUMPDEST JUMPDEST DIV SWAP3 POP PUSH1 0x40 DUP2 ADD SWAP1 POP JUMPDEST PUSH14 0x4EE2D6D415B85ACEF8100000000 DUP4 LT PUSH2 0x2266 JUMPI PUSH14 0x4EE2D6D415B85ACEF8100000000 DUP4 DUP2 PUSH2 0x225C JUMPI PUSH2 0x225B PUSH2 0x33EF JUMP JUMPDEST JUMPDEST DIV SWAP3 POP PUSH1 0x20 DUP2 ADD SWAP1 POP JUMPDEST PUSH7 0x2386F26FC10000 DUP4 LT PUSH2 0x2295 JUMPI PUSH7 0x2386F26FC10000 DUP4 DUP2 PUSH2 0x228B JUMPI PUSH2 0x228A PUSH2 0x33EF JUMP JUMPDEST JUMPDEST DIV SWAP3 POP PUSH1 0x10 DUP2 ADD SWAP1 POP JUMPDEST PUSH4 0x5F5E100 DUP4 LT PUSH2 0x22BE JUMPI PUSH4 0x5F5E100 DUP4 DUP2 PUSH2 0x22B4 JUMPI PUSH2 0x22B3 PUSH2 0x33EF JUMP JUMPDEST JUMPDEST DIV SWAP3 POP PUSH1 0x8 DUP2 ADD SWAP1 POP JUMPDEST PUSH2 0x2710 DUP4 LT PUSH2 0x22E3 JUMPI PUSH2 0x2710 DUP4 DUP2 PUSH2 0x22D9 JUMPI PUSH2 0x22D8 PUSH2 0x33EF JUMP JUMPDEST JUMPDEST DIV SWAP3 POP PUSH1 0x4 DUP2 ADD SWAP1 POP JUMPDEST PUSH1 0x64 DUP4 LT PUSH2 0x2306 JUMPI PUSH1 0x64 DUP4 DUP2 PUSH2 0x22FC JUMPI PUSH2 0x22FB PUSH2 0x33EF JUMP JUMPDEST JUMPDEST DIV SWAP3 POP PUSH1 0x2 DUP2 ADD SWAP1 POP JUMPDEST PUSH1 0xA DUP4 LT PUSH2 0x2315 JUMPI PUSH1 0x1 DUP2 ADD SWAP1 POP JUMPDEST DUP1 SWAP2 POP POP SWAP2 SWAP1 POP JUMP JUMPDEST PUSH1 0x0 PUSH20 0xFFFFFFFFFFFFFFFFFFFFFFFFFFFFFFFFFFFFFFFF AND DUP3 PUSH20 0xFFFFFFFFFFFFFFFFFFFFFFFFFFFFFFFFFFFFFFFF AND SUB PUSH2 0x238D JUMPI PUSH1 0x40 MLOAD PUSH32 0x8C379A000000000000000000000000000000000000000000000000000000000 DUP2 MSTORE PUSH1 0x4 ADD PUSH2 0x2384 SWAP1 PUSH2 0x3B45 JUMP JUMPDEST PUSH1 0x40 MLOAD DUP1 SWAP2 SUB SWAP1 REVERT JUMPDEST PUSH2 0x2396 DUP2 PUSH2 0x1E20 JUMP JUMPDEST ISZERO PUSH2 0x23D6 JUMPI PUSH1 0x40 MLOAD PUSH32 0x8C379A000000000000000000000000000000000000000000000000000000000 DUP2 MSTORE PUSH1 0x4 ADD PUSH2 0x23CD SWAP1 PUSH2 0x3BB1 JUMP JUMPDEST PUSH1 0x40 MLOAD DUP1 SWAP2 SUB SWAP1 REVERT JUMPDEST PUSH2 0x23E4 PUSH1 0x0 DUP4 DUP4 PUSH1 0x1 PUSH2 0x1EEC JUMP JUMPDEST PUSH2 0x23ED DUP2 PUSH2 0x1E20 JUMP JUMPDEST ISZERO PUSH2 0x242D JUMPI PUSH1 0x40 MLOAD PUSH32 0x8C379A000000000000000000000000000000000000000000000000000000000 DUP2 MSTORE PUSH1 0x4 ADD PUSH2 0x2424 SWAP1 PUSH2 0x3BB1 JUMP JUMPDEST PUSH1 0x40 MLOAD DUP1 SWAP2 SUB SWAP1 REVERT JUMPDEST PUSH1 0x1 PUSH1 0x3 PUSH1 0x0 DUP5 PUSH20 0xFFFFFFFFFFFFFFFFFFFFFFFFFFFFFFFFFFFFFFFF AND PUSH20 0xFFFFFFFFFFFFFFFFFFFFFFFFFFFFFFFFFFFFFFFF AND DUP2 MSTORE PUSH1 0x20 ADD SWAP1 DUP2 MSTORE PUSH1 0x20 ADD PUSH1 0x0 KECCAK256 PUSH1 0x0 DUP3 DUP3 SLOAD ADD SWAP3 POP POP DUP2 SWAP1 SSTORE POP DUP2 PUSH1 0x2 PUSH1 0x0 DUP4 DUP2 MSTORE PUSH1 0x20 ADD SWAP1 DUP2 MSTORE PUSH1 0x20 ADD PUSH1 0x0 KECCAK256 PUSH1 0x0 PUSH2 0x100 EXP DUP2 SLOAD DUP2 PUSH20 0xFFFFFFFFFFFFFFFFFFFFFFFFFFFFFFFFFFFFFFFF MUL NOT AND SWAP1 DUP4 PUSH20 0xFFFFFFFFFFFFFFFFFFFFFFFFFFFFFFFFFFFFFFFF AND MUL OR SWAP1 SSTORE POP DUP1 DUP3 PUSH20 0xFFFFFFFFFFFFFFFFFFFFFFFFFFFFFFFFFFFFFFFF AND PUSH1 0x0 PUSH20 0xFFFFFFFFFFFFFFFFFFFFFFFFFFFFFFFFFFFFFFFF AND PUSH32 0xDDF252AD1BE2C89B69C2B068FC378DAA952BA7F163C4A11628F55A4DF523B3EF PUSH1 0x40 MLOAD PUSH1 0x40 MLOAD DUP1 SWAP2 SUB SWAP1 LOG4 PUSH2 0x2537 PUSH1 0x0 DUP4 DUP4 PUSH1 0x1 PUSH2 0x1EF2 JUMP JUMPDEST POP POP JUMP JUMPDEST PUSH1 0x40 MLOAD DUP1 PUSH1 0x60 ADD PUSH1 0x40 MSTORE DUP1 PUSH1 0x3 SWAP1 PUSH1 0x20 DUP3 MUL DUP1 CALLDATASIZE DUP4 CALLDATACOPY DUP1 DUP3 ADD SWAP2 POP POP SWAP1 POP POP SWAP1 JUMP JUMPDEST PUSH1 0x0 PUSH1 0x40 MLOAD SWAP1 POP SWAP1 JUMP JUMPDEST PUSH1 0x0 DUP1 REVERT JUMPDEST PUSH1 0x0 DUP1 REVERT JUMPDEST PUSH1 0x0 PUSH32 0xFFFFFFFF00000000000000000000000000000000000000000000000000000000 DUP3 AND SWAP1 POP SWAP2 SWAP1 POP JUMP JUMPDEST PUSH2 0x25A6 DUP2 PUSH2 0x2571 JUMP JUMPDEST DUP2 EQ PUSH2 0x25B1 JUMPI PUSH1 0x0 DUP1 REVERT JUMPDEST POP JUMP JUMPDEST PUSH1 0x0 DUP2 CALLDATALOAD SWAP1 POP PUSH2 0x25C3 DUP2 PUSH2 0x259D JUMP JUMPDEST SWAP3 SWAP2 POP POP JUMP JUMPDEST PUSH1 0x0 PUSH1 0x20 DUP3 DUP5 SUB SLT ISZERO PUSH2 0x25DF JUMPI PUSH2 0x25DE PUSH2 0x2567 JUMP JUMPDEST JUMPDEST PUSH1 0x0 PUSH2 0x25ED DUP5 DUP3 DUP6 ADD PUSH2 0x25B4 JUMP JUMPDEST SWAP2 POP POP SWAP3 SWAP2 POP POP JUMP JUMPDEST PUSH1 0x0 DUP2 ISZERO ISZERO SWAP1 POP SWAP2 SWAP1 POP JUMP JUMPDEST PUSH2 0x260B DUP2 PUSH2 0x25F6 JUMP JUMPDEST DUP3 MSTORE POP POP JUMP JUMPDEST PUSH1 0x0 PUSH1 0x20 DUP3 ADD SWAP1 POP PUSH2 0x2626 PUSH1 0x0 DUP4 ADD DUP5 PUSH2 0x2602 JUMP JUMPDEST SWAP3 SWAP2 POP POP JUMP JUMPDEST PUSH1 0x0 DUP2 MLOAD SWAP1 POP SWAP2 SWAP1 POP JUMP JUMPDEST PUSH1 0x0 DUP3 DUP3 MSTORE PUSH1 0x20 DUP3 ADD SWAP1 POP SWAP3 SWAP2 POP POP JUMP JUMPDEST PUSH1 0x0 JUMPDEST DUP4 DUP2 LT ISZERO PUSH2 0x2666 JUMPI DUP1 DUP3 ADD MLOAD DUP2 DUP5 ADD MSTORE PUSH1 0x20 DUP2 ADD SWAP1 POP PUSH2 0x264B JUMP JUMPDEST PUSH1 0x0 DUP5 DUP5 ADD MSTORE POP POP POP POP JUMP JUMPDEST PUSH1 0x0 PUSH1 0x1F NOT PUSH1 0x1F DUP4 ADD AND SWAP1 POP SWAP2 SWAP1 POP JUMP JUMPDEST PUSH1 0x0 PUSH2 0x268E DUP3 PUSH2 0x262C JUMP JUMPDEST PUSH2 0x2698 DUP2 DUP6 PUSH2 0x2637 JUMP JUMPDEST SWAP4 POP PUSH2 0x26A8 DUP2 DUP6 PUSH1 0x20 DUP7 ADD PUSH2 0x2648 JUMP JUMPDEST PUSH2 0x26B1 DUP2 PUSH2 0x2672 JUMP JUMPDEST DUP5 ADD SWAP2 POP POP SWAP3 SWAP2 POP POP JUMP JUMPDEST PUSH1 0x0 PUSH1 0x20 DUP3 ADD SWAP1 POP DUP2 DUP2 SUB PUSH1 0x0 DUP4 ADD MSTORE PUSH2 0x26D6 DUP2 DUP5 PUSH2 0x2683 JUMP JUMPDEST SWAP1 POP SWAP3 SWAP2 POP POP JUMP JUMPDEST PUSH1 0x0 DUP2 SWAP1 POP SWAP2 SWAP1 POP JUMP JUMPDEST PUSH2 0x26F1 DUP2 PUSH2 0x26DE JUMP JUMPDEST DUP2 EQ PUSH2 0x26FC JUMPI PUSH1 0x0 DUP1 REVERT JUMPDEST POP JUMP JUMPDEST PUSH1 0x0 DUP2 CALLDATALOAD SWAP1 POP PUSH2 0x270E DUP2 PUSH2 0x26E8 JUMP JUMPDEST SWAP3 SWAP2 POP POP JUMP JUMPDEST PUSH1 0x0 PUSH1 0x20 DUP3 DUP5 SUB SLT ISZERO PUSH2 0x272A JUMPI PUSH2 0x2729 PUSH2 0x2567 JUMP JUMPDEST JUMPDEST PUSH1 0x0 PUSH2 0x2738 DUP5 DUP3 DUP6 ADD PUSH2 0x26FF JUMP JUMPDEST SWAP2 POP POP SWAP3 SWAP2 POP POP JUMP JUMPDEST PUSH1 0x0 PUSH20 0xFFFFFFFFFFFFFFFFFFFFFFFFFFFFFFFFFFFFFFFF DUP3 AND SWAP1 POP SWAP2 SWAP1 POP JUMP JUMPDEST PUSH1 0x0 PUSH2 0x276C DUP3 PUSH2 0x2741 JUMP JUMPDEST SWAP1 POP SWAP2 SWAP1 POP JUMP JUMPDEST PUSH2 0x277C DUP2 PUSH2 0x2761 JUMP JUMPDEST DUP3 MSTORE POP POP JUMP JUMPDEST PUSH1 0x0 PUSH1 0x20 DUP3 ADD SWAP1 POP PUSH2 0x2797 PUSH1 0x0 DUP4 ADD DUP5 PUSH2 0x2773 JUMP JUMPDEST SWAP3 SWAP2 POP POP JUMP JUMPDEST PUSH2 0x27A6 DUP2 PUSH2 0x2761 JUMP JUMPDEST DUP2 EQ PUSH2 0x27B1 JUMPI PUSH1 0x0 DUP1 REVERT JUMPDEST POP JUMP JUMPDEST PUSH1 0x0 DUP2 CALLDATALOAD SWAP1 POP PUSH2 0x27C3 DUP2 PUSH2 0x279D JUMP JUMPDEST SWAP3 SWAP2 POP POP JUMP JUMPDEST PUSH1 0x0 DUP1 PUSH1 0x40 DUP4 DUP6 SUB SLT ISZERO PUSH2 0x27E0 JUMPI PUSH2 0x27DF PUSH2 0x2567 JUMP JUMPDEST JUMPDEST PUSH1 0x0 PUSH2 0x27EE DUP6 DUP3 DUP7 ADD PUSH2 0x27B4 JUMP JUMPDEST SWAP3 POP POP PUSH1 0x20 PUSH2 0x27FF DUP6 DUP3 DUP7 ADD PUSH2 0x26FF JUMP JUMPDEST SWAP2 POP POP SWAP3 POP SWAP3 SWAP1 POP JUMP JUMPDEST PUSH2 0x2812 DUP2 PUSH2 0x26DE JUMP JUMPDEST DUP3 MSTORE POP POP JUMP JUMPDEST PUSH1 0x0 PUSH1 0x20 DUP3 ADD SWAP1 POP PUSH2 0x282D PUSH1 0x0 DUP4 ADD DUP5 PUSH2 0x2809 JUMP JUMPDEST SWAP3 SWAP2 POP POP JUMP JUMPDEST PUSH1 0x0 DUP1 REVERT JUMPDEST PUSH32 0x4E487B7100000000000000000000000000000000000000000000000000000000 PUSH1 0x0 MSTORE PUSH1 0x41 PUSH1 0x4 MSTORE PUSH1 0x24 PUSH1 0x0 REVERT JUMPDEST PUSH2 0x2870 DUP3 PUSH2 0x2672 JUMP JUMPDEST DUP2 ADD DUP2 DUP2 LT PUSH8 0xFFFFFFFFFFFFFFFF DUP3 GT OR ISZERO PUSH2 0x288F JUMPI PUSH2 0x288E PUSH2 0x2838 JUMP JUMPDEST JUMPDEST DUP1 PUSH1 0x40 MSTORE POP POP POP JUMP JUMPDEST PUSH1 0x0 PUSH2 0x28A2 PUSH2 0x255D JUMP JUMPDEST SWAP1 POP PUSH2 0x28AE DUP3 DUP3 PUSH2 0x2867 JUMP JUMPDEST SWAP2 SWAP1 POP JUMP JUMPDEST PUSH1 0x0 PUSH8 0xFFFFFFFFFFFFFFFF DUP3 GT ISZERO PUSH2 0x28CE JUMPI PUSH2 0x28CD PUSH2 0x2838 JUMP JUMPDEST JUMPDEST PUSH1 0x20 DUP3 MUL SWAP1 POP PUSH1 0x20 DUP2 ADD SWAP1 POP SWAP2 SWAP1 POP JUMP JUMPDEST PUSH1 0x0 DUP1 REVERT JUMPDEST PUSH1 0x0 PUSH2 0x28F7 PUSH2 0x28F2 DUP5 PUSH2 0x28B3 JUMP JUMPDEST PUSH2 0x2898 JUMP JUMPDEST SWAP1 POP DUP1 DUP4 DUP3 MSTORE PUSH1 0x20 DUP3 ADD SWAP1 POP PUSH1 0x20 DUP5 MUL DUP4 ADD DUP6 DUP2 GT ISZERO PUSH2 0x291A JUMPI PUSH2 0x2919 PUSH2 0x28DF JUMP JUMPDEST JUMPDEST DUP4 JUMPDEST DUP2 DUP2 LT ISZERO PUSH2 0x2943 JUMPI DUP1 PUSH2 0x292F DUP9 DUP3 PUSH2 0x26FF JUMP JUMPDEST DUP5 MSTORE PUSH1 0x20 DUP5 ADD SWAP4 POP POP PUSH1 0x20 DUP2 ADD SWAP1 POP PUSH2 0x291C JUMP JUMPDEST POP POP POP SWAP4 SWAP3 POP POP POP JUMP JUMPDEST PUSH1 0x0 DUP3 PUSH1 0x1F DUP4 ADD SLT PUSH2 0x2962 JUMPI PUSH2 0x2961 PUSH2 0x2833 JUMP JUMPDEST JUMPDEST DUP2 CALLDATALOAD PUSH2 0x2972 DUP5 DUP3 PUSH1 0x20 DUP7 ADD PUSH2 0x28E4 JUMP JUMPDEST SWAP2 POP POP SWAP3 SWAP2 POP POP JUMP JUMPDEST PUSH1 0x0 DUP1 PUSH1 0x40 DUP4 DUP6 SUB SLT ISZERO PUSH2 0x2992 JUMPI PUSH2 0x2991 PUSH2 0x2567 JUMP JUMPDEST JUMPDEST PUSH1 0x0 PUSH2 0x29A0 DUP6 DUP3 DUP7 ADD PUSH2 0x26FF JUMP JUMPDEST SWAP3 POP POP PUSH1 0x20 DUP4 ADD CALLDATALOAD PUSH8 0xFFFFFFFFFFFFFFFF DUP2 GT ISZERO PUSH2 0x29C1 JUMPI PUSH2 0x29C0 PUSH2 0x256C JUMP JUMPDEST JUMPDEST PUSH2 0x29CD DUP6 DUP3 DUP7 ADD PUSH2 0x294D JUMP JUMPDEST SWAP2 POP POP SWAP3 POP SWAP3 SWAP1 POP JUMP JUMPDEST PUSH1 0x0 DUP1 PUSH1 0x0 PUSH1 0x60 DUP5 DUP7 SUB SLT ISZERO PUSH2 0x29F0 JUMPI PUSH2 0x29EF PUSH2 0x2567 JUMP JUMPDEST JUMPDEST PUSH1 0x0 PUSH2 0x29FE DUP7 DUP3 DUP8 ADD PUSH2 0x27B4 JUMP JUMPDEST SWAP4 POP POP PUSH1 0x20 PUSH2 0x2A0F DUP7 DUP3 DUP8 ADD PUSH2 0x27B4 JUMP JUMPDEST SWAP3 POP POP PUSH1 0x40 PUSH2 0x2A20 DUP7 DUP3 DUP8 ADD PUSH2 0x26FF JUMP JUMPDEST SWAP2 POP POP SWAP3 POP SWAP3 POP SWAP3 JUMP JUMPDEST PUSH1 0x0 PUSH1 0x3 SWAP1 POP SWAP2 SWAP1 POP JUMP JUMPDEST PUSH1 0x0 DUP2 SWAP1 POP SWAP3 SWAP2 POP POP JUMP JUMPDEST PUSH1 0x0 DUP2 SWAP1 POP SWAP2 SWAP1 POP JUMP JUMPDEST PUSH2 0x2A53 DUP2 PUSH2 0x26DE JUMP JUMPDEST DUP3 MSTORE POP POP JUMP JUMPDEST PUSH1 0x0 PUSH2 0x2A65 DUP4 DUP4 PUSH2 0x2A4A JUMP JUMPDEST PUSH1 0x20 DUP4 ADD SWAP1 POP SWAP3 SWAP2 POP POP JUMP JUMPDEST PUSH1 0x0 PUSH1 0x20 DUP3 ADD SWAP1 POP SWAP2 SWAP1 POP JUMP JUMPDEST PUSH2 0x2A87 DUP2 PUSH2 0x2A2A JUMP JUMPDEST PUSH2 0x2A91 DUP2 DUP5 PUSH2 0x2A35 JUMP JUMPDEST SWAP3 POP PUSH2 0x2A9C DUP3 PUSH2 0x2A40 JUMP JUMPDEST DUP1 PUSH1 0x0 JUMPDEST DUP4 DUP2 LT ISZERO PUSH2 0x2ACD JUMPI DUP2 MLOAD PUSH2 0x2AB4 DUP8 DUP3 PUSH2 0x2A59 JUMP JUMPDEST SWAP7 POP PUSH2 0x2ABF DUP4 PUSH2 0x2A71 JUMP JUMPDEST SWAP3 POP POP PUSH1 0x1 DUP2 ADD SWAP1 POP PUSH2 0x2AA0 JUMP JUMPDEST POP POP POP POP POP POP JUMP JUMPDEST PUSH1 0x0 PUSH1 0x60 DUP3 ADD SWAP1 POP PUSH2 0x2AEA PUSH1 0x0 DUP4 ADD DUP5 PUSH2 0x2A7E JUMP JUMPDEST SWAP3 SWAP2 POP POP JUMP JUMPDEST PUSH1 0x0 PUSH1 0x20 DUP3 DUP5 SUB SLT ISZERO PUSH2 0x2B06 JUMPI PUSH2 0x2B05 PUSH2 0x2567 JUMP JUMPDEST JUMPDEST PUSH1 0x0 PUSH2 0x2B14 DUP5 DUP3 DUP6 ADD PUSH2 0x27B4 JUMP JUMPDEST SWAP2 POP POP SWAP3 SWAP2 POP POP JUMP JUMPDEST PUSH2 0x2B26 DUP2 PUSH2 0x25F6 JUMP JUMPDEST DUP2 EQ PUSH2 0x2B31 JUMPI PUSH1 0x0 DUP1 REVERT JUMPDEST POP JUMP JUMPDEST PUSH1 0x0 DUP2 CALLDATALOAD SWAP1 POP PUSH2 0x2B43 DUP2 PUSH2 0x2B1D JUMP JUMPDEST SWAP3 SWAP2 POP POP JUMP JUMPDEST PUSH1 0x0 DUP1 PUSH1 0x40 DUP4 DUP6 SUB SLT ISZERO PUSH2 0x2B60 JUMPI PUSH2 0x2B5F PUSH2 0x2567 JUMP JUMPDEST JUMPDEST PUSH1 0x0 PUSH2 0x2B6E DUP6 DUP3 DUP7 ADD PUSH2 0x27B4 JUMP JUMPDEST SWAP3 POP POP PUSH1 0x20 PUSH2 0x2B7F DUP6 DUP3 DUP7 ADD PUSH2 0x2B34 JUMP JUMPDEST SWAP2 POP POP SWAP3 POP SWAP3 SWAP1 POP JUMP JUMPDEST PUSH32 0x4E487B7100000000000000000000000000000000000000000000000000000000 PUSH1 0x0 MSTORE PUSH1 0x21 PUSH1 0x4 MSTORE PUSH1 0x24 PUSH1 0x0 REVERT JUMPDEST PUSH1 0x3 DUP2 LT PUSH2 0x2BC9 JUMPI PUSH2 0x2BC8 PUSH2 0x2B89 JUMP JUMPDEST JUMPDEST POP JUMP JUMPDEST PUSH1 0x0 DUP2 SWAP1 POP PUSH2 0x2BDA DUP3 PUSH2 0x2BB8 JUMP JUMPDEST SWAP2 SWAP1 POP JUMP JUMPDEST PUSH1 0x0 PUSH2 0x2BEA DUP3 PUSH2 0x2BCC JUMP JUMPDEST SWAP1 POP SWAP2 SWAP1 POP JUMP JUMPDEST PUSH2 0x2BFA DUP2 PUSH2 0x2BDF JUMP JUMPDEST DUP3 MSTORE POP POP JUMP JUMPDEST PUSH1 0x0 PUSH1 0x20 DUP3 ADD SWAP1 POP PUSH2 0x2C15 PUSH1 0x0 DUP4 ADD DUP5 PUSH2 0x2BF1 JUMP JUMPDEST SWAP3 SWAP2 POP POP JUMP JUMPDEST PUSH1 0x0 DUP1 REVERT JUMPDEST PUSH1 0x0 PUSH8 0xFFFFFFFFFFFFFFFF DUP3 GT ISZERO PUSH2 0x2C3B JUMPI PUSH2 0x2C3A PUSH2 0x2838 JUMP JUMPDEST JUMPDEST PUSH2 0x2C44 DUP3 PUSH2 0x2672 JUMP JUMPDEST SWAP1 POP PUSH1 0x20 DUP2 ADD SWAP1 POP SWAP2 SWAP1 POP JUMP JUMPDEST DUP3 DUP2 DUP4 CALLDATACOPY PUSH1 0x0 DUP4 DUP4 ADD MSTORE POP POP POP JUMP JUMPDEST PUSH1 0x0 PUSH2 0x2C73 PUSH2 0x2C6E DUP5 PUSH2 0x2C20 JUMP JUMPDEST PUSH2 0x2898 JUMP JUMPDEST SWAP1 POP DUP3 DUP2 MSTORE PUSH1 0x20 DUP2 ADD DUP5 DUP5 DUP5 ADD GT ISZERO PUSH2 0x2C8F JUMPI PUSH2 0x2C8E PUSH2 0x2C1B JUMP JUMPDEST JUMPDEST PUSH2 0x2C9A DUP5 DUP3 DUP6 PUSH2 0x2C51 JUMP JUMPDEST POP SWAP4 SWAP3 POP POP POP JUMP JUMPDEST PUSH1 0x0 DUP3 PUSH1 0x1F DUP4 ADD SLT PUSH2 0x2CB7 JUMPI PUSH2 0x2CB6 PUSH2 0x2833 JUMP JUMPDEST JUMPDEST DUP2 CALLDATALOAD PUSH2 0x2CC7 DUP5 DUP3 PUSH1 0x20 DUP7 ADD PUSH2 0x2C60 JUMP JUMPDEST SWAP2 POP POP SWAP3 SWAP2 POP POP JUMP JUMPDEST PUSH1 0x0 DUP1 PUSH1 0x0 DUP1 PUSH1 0x80 DUP6 DUP8 SUB SLT ISZERO PUSH2 0x2CEA JUMPI PUSH2 0x2CE9 PUSH2 0x2567 JUMP JUMPDEST JUMPDEST PUSH1 0x0 PUSH2 0x2CF8 DUP8 DUP3 DUP9 ADD PUSH2 0x27B4 JUMP JUMPDEST SWAP5 POP POP PUSH1 0x20 PUSH2 0x2D09 DUP8 DUP3 DUP9 ADD PUSH2 0x27B4 JUMP JUMPDEST SWAP4 POP POP PUSH1 0x40 PUSH2 0x2D1A DUP8 DUP3 DUP9 ADD PUSH2 0x26FF JUMP JUMPDEST SWAP3 POP POP PUSH1 0x60 DUP6 ADD CALLDATALOAD PUSH8 0xFFFFFFFFFFFFFFFF DUP2 GT ISZERO PUSH2 0x2D3B JUMPI PUSH2 0x2D3A PUSH2 0x256C JUMP JUMPDEST JUMPDEST PUSH2 0x2D47 DUP8 DUP3 DUP9 ADD PUSH2 0x2CA2 JUMP JUMPDEST SWAP2 POP POP SWAP3 SWAP6 SWAP2 SWAP5 POP SWAP3 POP JUMP JUMPDEST PUSH1 0x0 DUP1 PUSH1 0x40 DUP4 DUP6 SUB SLT ISZERO PUSH2 0x2D6A JUMPI PUSH2 0x2D69 PUSH2 0x2567 JUMP JUMPDEST JUMPDEST PUSH1 0x0 PUSH2 0x2D78 DUP6 DUP3 DUP7 ADD PUSH2 0x27B4 JUMP JUMPDEST SWAP3 POP POP PUSH1 0x20 PUSH2 0x2D89 DUP6 DUP3 DUP7 ADD PUSH2 0x27B4 JUMP JUMPDEST SWAP2 POP POP SWAP3 POP SWAP3 SWAP1 POP JUMP JUMPDEST PUSH32 0x4E487B7100000000000000000000000000000000000000000000000000000000 PUSH1 0x0 MSTORE PUSH1 0x22 PUSH1 0x4 MSTORE PUSH1 0x24 PUSH1 0x0 REVERT JUMPDEST PUSH1 0x0 PUSH1 0x2 DUP3 DIV SWAP1 POP PUSH1 0x1 DUP3 AND DUP1 PUSH2 0x2DDA JUMPI PUSH1 0x7F DUP3 AND SWAP2 POP JUMPDEST PUSH1 0x20 DUP3 LT DUP2 SUB PUSH2 0x2DED JUMPI PUSH2 0x2DEC PUSH2 0x2D93 JUMP JUMPDEST JUMPDEST POP SWAP2 SWAP1 POP JUMP JUMPDEST PUSH32 0x4552433732313A20617070726F76616C20746F2063757272656E74206F776E65 PUSH1 0x0 DUP3 ADD MSTORE PUSH32 0x7200000000000000000000000000000000000000000000000000000000000000 PUSH1 0x20 DUP3 ADD MSTORE POP JUMP JUMPDEST PUSH1 0x0 PUSH2 0x2E4F PUSH1 0x21 DUP4 PUSH2 0x2637 JUMP JUMPDEST SWAP2 POP PUSH2 0x2E5A DUP3 PUSH2 0x2DF3 JUMP JUMPDEST PUSH1 0x40 DUP3 ADD SWAP1 POP SWAP2 SWAP1 POP JUMP JUMPDEST PUSH1 0x0 PUSH1 0x20 DUP3 ADD SWAP1 POP DUP2 DUP2 SUB PUSH1 0x0 DUP4 ADD MSTORE PUSH2 0x2E7E DUP2 PUSH2 0x2E42 JUMP JUMPDEST SWAP1 POP SWAP2 SWAP1 POP JUMP JUMPDEST PUSH32 0x4552433732313A20617070726F76652063616C6C6572206973206E6F7420746F PUSH1 0x0 DUP3 ADD MSTORE PUSH32 0x6B656E206F776E6572206F7220617070726F76656420666F7220616C6C000000 PUSH1 0x20 DUP3 ADD MSTORE POP JUMP JUMPDEST PUSH1 0x0 PUSH2 0x2EE1 PUSH1 0x3D DUP4 PUSH2 0x2637 JUMP JUMPDEST SWAP2 POP PUSH2 0x2EEC DUP3 PUSH2 0x2E85 JUMP JUMPDEST PUSH1 0x40 DUP3 ADD SWAP1 POP SWAP2 SWAP1 POP JUMP JUMPDEST PUSH1 0x0 PUSH1 0x20 DUP3 ADD SWAP1 POP DUP2 DUP2 SUB PUSH1 0x0 DUP4 ADD MSTORE PUSH2 0x2F10 DUP2 PUSH2 0x2ED4 JUMP JUMPDEST SWAP1 POP SWAP2 SWAP1 POP JUMP JUMPDEST PUSH1 0x0 PUSH1 0x40 DUP3 ADD SWAP1 POP PUSH2 0x2F2C PUSH1 0x0 DUP4 ADD DUP6 PUSH2 0x2773 JUMP JUMPDEST PUSH2 0x2F39 PUSH1 0x20 DUP4 ADD DUP5 PUSH2 0x2773 JUMP JUMPDEST SWAP4 SWAP3 POP POP POP JUMP JUMPDEST PUSH32 0x4552433732313A2063616C6C6572206973206E6F7420746F6B656E206F776E65 PUSH1 0x0 DUP3 ADD MSTORE PUSH32 0x72206F7220617070726F76656400000000000000000000000000000000000000 PUSH1 0x20 DUP3 ADD MSTORE POP JUMP JUMPDEST PUSH1 0x0 PUSH2 0x2F9C PUSH1 0x2D DUP4 PUSH2 0x2637 JUMP JUMPDEST SWAP2 POP PUSH2 0x2FA7 DUP3 PUSH2 0x2F40 JUMP JUMPDEST PUSH1 0x40 DUP3 ADD SWAP1 POP SWAP2 SWAP1 POP JUMP JUMPDEST PUSH1 0x0 PUSH1 0x20 DUP3 ADD SWAP1 POP DUP2 DUP2 SUB PUSH1 0x0 DUP4 ADD MSTORE PUSH2 0x2FCB DUP2 PUSH2 0x2F8F JUMP JUMPDEST SWAP1 POP SWAP2 SWAP1 POP JUMP JUMPDEST PUSH32 0x4E487B7100000000000000000000000000000000000000000000000000000000 PUSH1 0x0 MSTORE PUSH1 0x32 PUSH1 0x4 MSTORE PUSH1 0x24 PUSH1 0x0 REVERT JUMPDEST PUSH1 0x0 DUP2 SWAP1 POP SWAP3 SWAP2 POP POP JUMP JUMPDEST POP JUMP JUMPDEST PUSH1 0x0 PUSH2 0x301C PUSH1 0x0 DUP4 PUSH2 0x3001 JUMP JUMPDEST SWAP2 POP PUSH2 0x3027 DUP3 PUSH2 0x300C JUMP JUMPDEST PUSH1 0x0 DUP3 ADD SWAP1 POP SWAP2 SWAP1 POP JUMP JUMPDEST PUSH1 0x0 PUSH2 0x303D DUP3 PUSH2 0x300F JUMP JUMPDEST SWAP2 POP DUP2 SWAP1 POP SWAP2 SWAP1 POP JUMP JUMPDEST PUSH32 0x4552433732313A20696E76616C696420746F6B656E2049440000000000000000 PUSH1 0x0 DUP3 ADD MSTORE POP JUMP JUMPDEST PUSH1 0x0 PUSH2 0x307D PUSH1 0x18 DUP4 PUSH2 0x2637 JUMP JUMPDEST SWAP2 POP PUSH2 0x3088 DUP3 PUSH2 0x3047 JUMP JUMPDEST PUSH1 0x20 DUP3 ADD SWAP1 POP SWAP2 SWAP1 POP JUMP JUMPDEST PUSH1 0x0 PUSH1 0x20 DUP3 ADD SWAP1 POP DUP2 DUP2 SUB PUSH1 0x0 DUP4 ADD MSTORE PUSH2 0x30AC DUP2 PUSH2 0x3070 JUMP JUMPDEST SWAP1 POP SWAP2 SWAP1 POP JUMP JUMPDEST PUSH32 0x4552433732313A2061646472657373207A65726F206973206E6F742061207661 PUSH1 0x0 DUP3 ADD MSTORE PUSH32 0x6C6964206F776E65720000000000000000000000000000000000000000000000 PUSH1 0x20 DUP3 ADD MSTORE POP JUMP JUMPDEST PUSH1 0x0 PUSH2 0x310F PUSH1 0x29 DUP4 PUSH2 0x2637 JUMP JUMPDEST SWAP2 POP PUSH2 0x311A DUP3 PUSH2 0x30B3 JUMP JUMPDEST PUSH1 0x40 DUP3 ADD SWAP1 POP SWAP2 SWAP1 POP JUMP JUMPDEST PUSH1 0x0 PUSH1 0x20 DUP3 ADD SWAP1 POP DUP2 DUP2 SUB PUSH1 0x0 DUP4 ADD MSTORE PUSH2 0x313E DUP2 PUSH2 0x3102 JUMP JUMPDEST SWAP1 POP SWAP2 SWAP1 POP JUMP JUMPDEST PUSH32 0x4E487B7100000000000000000000000000000000000000000000000000000000 PUSH1 0x0 MSTORE PUSH1 0x11 PUSH1 0x4 MSTORE PUSH1 0x24 PUSH1 0x0 REVERT JUMPDEST PUSH1 0x0 PUSH2 0x317F DUP3 PUSH2 0x26DE JUMP JUMPDEST SWAP2 POP PUSH2 0x318A DUP4 PUSH2 0x26DE JUMP JUMPDEST SWAP3 POP DUP3 DUP3 ADD SWAP1 POP DUP1 DUP3 GT ISZERO PUSH2 0x31A2 JUMPI PUSH2 0x31A1 PUSH2 0x3145 JUMP JUMPDEST JUMPDEST SWAP3 SWAP2 POP POP JUMP JUMPDEST PUSH1 0x0 PUSH2 0x31B3 DUP3 PUSH2 0x26DE JUMP JUMPDEST SWAP2 POP PUSH32 0xFFFFFFFFFFFFFFFFFFFFFFFFFFFFFFFFFFFFFFFFFFFFFFFFFFFFFFFFFFFFFFFF DUP3 SUB PUSH2 0x31E5 JUMPI PUSH2 0x31E4 PUSH2 0x3145 JUMP JUMPDEST JUMPDEST PUSH1 0x1 DUP3 ADD SWAP1 POP SWAP2 SWAP1 POP JUMP JUMPDEST PUSH1 0x0 DUP2 SWAP1 POP SWAP2 SWAP1 POP JUMP JUMPDEST PUSH2 0x3203 DUP2 PUSH2 0x31F0 JUMP JUMPDEST DUP3 MSTORE POP POP JUMP JUMPDEST PUSH1 0x0 PUSH8 0xFFFFFFFFFFFFFFFF DUP3 AND SWAP1 POP SWAP2 SWAP1 POP JUMP JUMPDEST PUSH2 0x3226 DUP2 PUSH2 0x3209 JUMP JUMPDEST DUP3 MSTORE POP POP JUMP JUMPDEST PUSH1 0x0 PUSH2 0xFFFF DUP3 AND SWAP1 POP SWAP2 SWAP1 POP JUMP JUMPDEST PUSH2 0x3243 DUP2 PUSH2 0x322C JUMP JUMPDEST DUP3 MSTORE POP POP JUMP JUMPDEST PUSH1 0x0 PUSH4 0xFFFFFFFF DUP3 AND SWAP1 POP SWAP2 SWAP1 POP JUMP JUMPDEST PUSH2 0x3262 DUP2 PUSH2 0x3249 JUMP JUMPDEST DUP3 MSTORE POP POP JUMP JUMPDEST PUSH1 0x0 PUSH1 0xA0 DUP3 ADD SWAP1 POP PUSH2 0x327D PUSH1 0x0 DUP4 ADD DUP9 PUSH2 0x31FA JUMP JUMPDEST PUSH2 0x328A PUSH1 0x20 DUP4 ADD DUP8 PUSH2 0x321D JUMP JUMPDEST PUSH2 0x3297 PUSH1 0x40 DUP4 ADD DUP7 PUSH2 0x323A JUMP JUMPDEST PUSH2 0x32A4 PUSH1 0x60 DUP4 ADD DUP6 PUSH2 0x3259 JUMP JUMPDEST PUSH2 0x32B1 PUSH1 0x80 DUP4 ADD DUP5 PUSH2 0x3259 JUMP JUMPDEST SWAP7 SWAP6 POP POP POP POP POP POP JUMP JUMPDEST PUSH1 0x0 DUP2 MLOAD SWAP1 POP PUSH2 0x32CA DUP2 PUSH2 0x26E8 JUMP JUMPDEST SWAP3 SWAP2 POP POP JUMP JUMPDEST PUSH1 0x0 PUSH1 0x20 DUP3 DUP5 SUB SLT ISZERO PUSH2 0x32E6 JUMPI PUSH2 0x32E5 PUSH2 0x2567 JUMP JUMPDEST JUMPDEST PUSH1 0x0 PUSH2 0x32F4 DUP5 DUP3 DUP6 ADD PUSH2 0x32BB JUMP JUMPDEST SWAP2 POP POP SWAP3 SWAP2 POP POP JUMP JUMPDEST PUSH1 0x0 DUP2 SWAP1 POP SWAP3 SWAP2 POP POP JUMP JUMPDEST PUSH1 0x0 PUSH2 0x3313 DUP3 PUSH2 0x262C JUMP JUMPDEST PUSH2 0x331D DUP2 DUP6 PUSH2 0x32FD JUMP JUMPDEST SWAP4 POP PUSH2 0x332D DUP2 DUP6 PUSH1 0x20 DUP7 ADD PUSH2 0x2648 JUMP JUMPDEST DUP1 DUP5 ADD SWAP2 POP POP SWAP3 SWAP2 POP POP JUMP JUMPDEST PUSH1 0x0 PUSH2 0x3345 DUP3 DUP6 PUSH2 0x3308 JUMP JUMPDEST SWAP2 POP PUSH2 0x3351 DUP3 DUP5 PUSH2 0x3308 JUMP JUMPDEST SWAP2 POP DUP2 SWAP1 POP SWAP4 SWAP3 POP POP POP JUMP JUMPDEST PUSH32 0x4F776E61626C653A206E6577206F776E657220697320746865207A65726F2061 PUSH1 0x0 DUP3 ADD MSTORE PUSH32 0x6464726573730000000000000000000000000000000000000000000000000000 PUSH1 0x20 DUP3 ADD MSTORE POP JUMP JUMPDEST PUSH1 0x0 PUSH2 0x33B9 PUSH1 0x26 DUP4 PUSH2 0x2637 JUMP JUMPDEST SWAP2 POP PUSH2 0x33C4 DUP3 PUSH2 0x335D JUMP JUMPDEST PUSH1 0x40 DUP3 ADD SWAP1 POP SWAP2 SWAP1 POP JUMP JUMPDEST PUSH1 0x0 PUSH1 0x20 DUP3 ADD SWAP1 POP DUP2 DUP2 SUB PUSH1 0x0 DUP4 ADD MSTORE PUSH2 0x33E8 DUP2 PUSH2 0x33AC JUMP JUMPDEST SWAP1 POP SWAP2 SWAP1 POP JUMP JUMPDEST PUSH32 0x4E487B7100000000000000000000000000000000000000000000000000000000 PUSH1 0x0 MSTORE PUSH1 0x12 PUSH1 0x4 MSTORE PUSH1 0x24 PUSH1 0x0 REVERT JUMPDEST PUSH1 0x0 PUSH2 0x3429 DUP3 PUSH2 0x26DE JUMP JUMPDEST SWAP2 POP PUSH2 0x3434 DUP4 PUSH2 0x26DE JUMP JUMPDEST SWAP3 POP DUP3 PUSH2 0x3444 JUMPI PUSH2 0x3443 PUSH2 0x33EF JUMP JUMPDEST JUMPDEST DUP3 DUP3 MOD SWAP1 POP SWAP3 SWAP2 POP POP JUMP JUMPDEST PUSH1 0x0 PUSH1 0x40 DUP3 ADD SWAP1 POP PUSH2 0x3464 PUSH1 0x0 DUP4 ADD DUP6 PUSH2 0x2BF1 JUMP JUMPDEST PUSH2 0x3471 PUSH1 0x20 DUP4 ADD DUP5 PUSH2 0x2773 JUMP JUMPDEST SWAP4 SWAP3 POP POP POP JUMP JUMPDEST PUSH32 0x4552433732313A207472616E736665722066726F6D20696E636F727265637420 PUSH1 0x0 DUP3 ADD MSTORE PUSH32 0x6F776E6572000000000000000000000000000000000000000000000000000000 PUSH1 0x20 DUP3 ADD MSTORE POP JUMP JUMPDEST PUSH1 0x0 PUSH2 0x34D4 PUSH1 0x25 DUP4 PUSH2 0x2637 JUMP JUMPDEST SWAP2 POP PUSH2 0x34DF DUP3 PUSH2 0x3478 JUMP JUMPDEST PUSH1 0x40 DUP3 ADD SWAP1 POP SWAP2 SWAP1 POP JUMP JUMPDEST PUSH1 0x0 PUSH1 0x20 DUP3 ADD SWAP1 POP DUP2 DUP2 SUB PUSH1 0x0 DUP4 ADD MSTORE PUSH2 0x3503 DUP2 PUSH2 0x34C7 JUMP JUMPDEST SWAP1 POP SWAP2 SWAP1 POP JUMP JUMPDEST PUSH32 0x4552433732313A207472616E7366657220746F20746865207A65726F20616464 PUSH1 0x0 DUP3 ADD MSTORE PUSH32 0x7265737300000000000000000000000000000000000000000000000000000000 PUSH1 0x20 DUP3 ADD MSTORE POP JUMP JUMPDEST PUSH1 0x0 PUSH2 0x3566 PUSH1 0x24 DUP4 PUSH2 0x2637 JUMP JUMPDEST SWAP2 POP PUSH2 0x3571 DUP3 PUSH2 0x350A JUMP JUMPDEST PUSH1 0x40 DUP3 ADD SWAP1 POP SWAP2 SWAP1 POP JUMP JUMPDEST PUSH1 0x0 PUSH1 0x20 DUP3 ADD SWAP1 POP DUP2 DUP2 SUB PUSH1 0x0 DUP4 ADD MSTORE PUSH2 0x3595 DUP2 PUSH2 0x3559 JUMP JUMPDEST SWAP1 POP SWAP2 SWAP1 POP JUMP JUMPDEST PUSH32 0x4F776E61626C653A2063616C6C6572206973206E6F7420746865206F776E6572 PUSH1 0x0 DUP3 ADD MSTORE POP JUMP JUMPDEST PUSH1 0x0 PUSH2 0x35D2 PUSH1 0x20 DUP4 PUSH2 0x2637 JUMP JUMPDEST SWAP2 POP PUSH2 0x35DD DUP3 PUSH2 0x359C JUMP JUMPDEST PUSH1 0x20 DUP3 ADD SWAP1 POP SWAP2 SWAP1 POP JUMP JUMPDEST PUSH1 0x0 PUSH1 0x20 DUP3 ADD SWAP1 POP DUP2 DUP2 SUB PUSH1 0x0 DUP4 ADD MSTORE PUSH2 0x3601 DUP2 PUSH2 0x35C5 JUMP JUMPDEST SWAP1 POP SWAP2 SWAP1 POP JUMP JUMPDEST PUSH32 0x4552433732313A20617070726F766520746F2063616C6C657200000000000000 PUSH1 0x0 DUP3 ADD MSTORE POP JUMP JUMPDEST PUSH1 0x0 PUSH2 0x363E PUSH1 0x19 DUP4 PUSH2 0x2637 JUMP JUMPDEST SWAP2 POP PUSH2 0x3649 DUP3 PUSH2 0x3608 JUMP JUMPDEST PUSH1 0x20 DUP3 ADD SWAP1 POP SWAP2 SWAP1 POP JUMP JUMPDEST PUSH1 0x0 PUSH1 0x20 DUP3 ADD SWAP1 POP DUP2 DUP2 SUB PUSH1 0x0 DUP4 ADD MSTORE PUSH2 0x366D DUP2 PUSH2 0x3631 JUMP JUMPDEST SWAP1 POP SWAP2 SWAP1 POP JUMP JUMPDEST PUSH32 0x4552433732313A207472616E7366657220746F206E6F6E204552433732315265 PUSH1 0x0 DUP3 ADD MSTORE PUSH32 0x63656976657220696D706C656D656E7465720000000000000000000000000000 PUSH1 0x20 DUP3 ADD MSTORE POP JUMP JUMPDEST PUSH1 0x0 PUSH2 0x36D0 PUSH1 0x32 DUP4 PUSH2 0x2637 JUMP JUMPDEST SWAP2 POP PUSH2 0x36DB DUP3 PUSH2 0x3674 JUMP JUMPDEST PUSH1 0x40 DUP3 ADD SWAP1 POP SWAP2 SWAP1 POP JUMP JUMPDEST PUSH1 0x0 PUSH1 0x20 DUP3 ADD SWAP1 POP DUP2 DUP2 SUB PUSH1 0x0 DUP4 ADD MSTORE PUSH2 0x36FF DUP2 PUSH2 0x36C3 JUMP JUMPDEST SWAP1 POP SWAP2 SWAP1 POP JUMP JUMPDEST PUSH32 0x45524337323155524953746F726167653A2055524920736574206F66206E6F6E PUSH1 0x0 DUP3 ADD MSTORE PUSH32 0x6578697374656E7420746F6B656E000000000000000000000000000000000000 PUSH1 0x20 DUP3 ADD MSTORE POP JUMP JUMPDEST PUSH1 0x0 PUSH2 0x3762 PUSH1 0x2E DUP4 PUSH2 0x2637 JUMP JUMPDEST SWAP2 POP PUSH2 0x376D DUP3 PUSH2 0x3706 JUMP JUMPDEST PUSH1 0x40 DUP3 ADD SWAP1 POP SWAP2 SWAP1 POP JUMP JUMPDEST PUSH1 0x0 PUSH1 0x20 DUP3 ADD SWAP1 POP DUP2 DUP2 SUB PUSH1 0x0 DUP4 ADD MSTORE PUSH2 0x3791 DUP2 PUSH2 0x3755 JUMP JUMPDEST SWAP1 POP SWAP2 SWAP1 POP JUMP JUMPDEST PUSH1 0x0 DUP2 SWAP1 POP DUP2 PUSH1 0x0 MSTORE PUSH1 0x20 PUSH1 0x0 KECCAK256 SWAP1 POP SWAP2 SWAP1 POP JUMP JUMPDEST PUSH1 0x0 PUSH1 0x20 PUSH1 0x1F DUP4 ADD DIV SWAP1 POP SWAP2 SWAP1 POP JUMP JUMPDEST PUSH1 0x0 DUP3 DUP3 SHL SWAP1 POP SWAP3 SWAP2 POP POP JUMP JUMPDEST PUSH1 0x0 PUSH1 0x8 DUP4 MUL PUSH2 0x37FA PUSH32 0xFFFFFFFFFFFFFFFFFFFFFFFFFFFFFFFFFFFFFFFFFFFFFFFFFFFFFFFFFFFFFFFF DUP3 PUSH2 0x37BD JUMP JUMPDEST PUSH2 0x3804 DUP7 DUP4 PUSH2 0x37BD JUMP JUMPDEST SWAP6 POP DUP1 NOT DUP5 AND SWAP4 POP DUP1 DUP7 AND DUP5 OR SWAP3 POP POP POP SWAP4 SWAP3 POP POP POP JUMP JUMPDEST PUSH1 0x0 DUP2 SWAP1 POP SWAP2 SWAP1 POP JUMP JUMPDEST PUSH1 0x0 PUSH2 0x3841 PUSH2 0x383C PUSH2 0x3837 DUP5 PUSH2 0x26DE JUMP JUMPDEST PUSH2 0x381C JUMP JUMPDEST PUSH2 0x26DE JUMP JUMPDEST SWAP1 POP SWAP2 SWAP1 POP JUMP JUMPDEST PUSH1 0x0 DUP2 SWAP1 POP SWAP2 SWAP1 POP JUMP JUMPDEST PUSH2 0x385B DUP4 PUSH2 0x3826 JUMP JUMPDEST PUSH2 0x386F PUSH2 0x3867 DUP3 PUSH2 0x3848 JUMP JUMPDEST DUP5 DUP5 SLOAD PUSH2 0x37CA JUMP JUMPDEST DUP3 SSTORE POP POP POP POP JUMP JUMPDEST PUSH1 0x0 SWAP1 JUMP JUMPDEST PUSH2 0x3884 PUSH2 0x3877 JUMP JUMPDEST PUSH2 0x388F DUP2 DUP5 DUP5 PUSH2 0x3852 JUMP JUMPDEST POP POP POP JUMP JUMPDEST JUMPDEST DUP2 DUP2 LT ISZERO PUSH2 0x38B3 JUMPI PUSH2 0x38A8 PUSH1 0x0 DUP3 PUSH2 0x387C JUMP JUMPDEST PUSH1 0x1 DUP2 ADD SWAP1 POP PUSH2 0x3895 JUMP JUMPDEST POP POP JUMP JUMPDEST PUSH1 0x1F DUP3 GT ISZERO PUSH2 0x38F8 JUMPI PUSH2 0x38C9 DUP2 PUSH2 0x3798 JUMP JUMPDEST PUSH2 0x38D2 DUP5 PUSH2 0x37AD JUMP JUMPDEST DUP2 ADD PUSH1 0x20 DUP6 LT ISZERO PUSH2 0x38E1 JUMPI DUP2 SWAP1 POP JUMPDEST PUSH2 0x38F5 PUSH2 0x38ED DUP6 PUSH2 0x37AD JUMP JUMPDEST DUP4 ADD DUP3 PUSH2 0x3894 JUMP JUMPDEST POP POP JUMPDEST POP POP POP JUMP JUMPDEST PUSH1 0x0 DUP3 DUP3 SHR SWAP1 POP SWAP3 SWAP2 POP POP JUMP JUMPDEST PUSH1 0x0 PUSH2 0x391B PUSH1 0x0 NOT DUP5 PUSH1 0x8 MUL PUSH2 0x38FD JUMP JUMPDEST NOT DUP1 DUP4 AND SWAP2 POP POP SWAP3 SWAP2 POP POP JUMP JUMPDEST PUSH1 0x0 PUSH2 0x3934 DUP4 DUP4 PUSH2 0x390A JUMP JUMPDEST SWAP2 POP DUP3 PUSH1 0x2 MUL DUP3 OR SWAP1 POP SWAP3 SWAP2 POP POP JUMP JUMPDEST PUSH2 0x394D DUP3 PUSH2 0x262C JUMP JUMPDEST PUSH8 0xFFFFFFFFFFFFFFFF DUP2 GT ISZERO PUSH2 0x3966 JUMPI PUSH2 0x3965 PUSH2 0x2838 JUMP JUMPDEST JUMPDEST PUSH2 0x3970 DUP3 SLOAD PUSH2 0x2DC2 JUMP JUMPDEST PUSH2 0x397B DUP3 DUP3 DUP6 PUSH2 0x38B7 JUMP JUMPDEST PUSH1 0x0 PUSH1 0x20 SWAP1 POP PUSH1 0x1F DUP4 GT PUSH1 0x1 DUP2 EQ PUSH2 0x39AE JUMPI PUSH1 0x0 DUP5 ISZERO PUSH2 0x399C JUMPI DUP3 DUP8 ADD MLOAD SWAP1 POP JUMPDEST PUSH2 0x39A6 DUP6 DUP3 PUSH2 0x3928 JUMP JUMPDEST DUP7 SSTORE POP PUSH2 0x3A0E JUMP JUMPDEST PUSH1 0x1F NOT DUP5 AND PUSH2 0x39BC DUP7 PUSH2 0x3798 JUMP JUMPDEST PUSH1 0x0 JUMPDEST DUP3 DUP2 LT ISZERO PUSH2 0x39E4 JUMPI DUP5 DUP10 ADD MLOAD DUP3 SSTORE PUSH1 0x1 DUP3 ADD SWAP2 POP PUSH1 0x20 DUP6 ADD SWAP5 POP PUSH1 0x20 DUP2 ADD SWAP1 POP PUSH2 0x39BF JUMP JUMPDEST DUP7 DUP4 LT ISZERO PUSH2 0x3A01 JUMPI DUP5 DUP10 ADD MLOAD PUSH2 0x39FD PUSH1 0x1F DUP10 AND DUP3 PUSH2 0x390A JUMP JUMPDEST DUP4 SSTORE POP JUMPDEST PUSH1 0x1 PUSH1 0x2 DUP9 MUL ADD DUP9 SSTORE POP POP POP JUMPDEST POP POP POP POP POP POP JUMP JUMPDEST PUSH1 0x0 DUP2 MLOAD SWAP1 POP SWAP2 SWAP1 POP JUMP JUMPDEST PUSH1 0x0 DUP3 DUP3 MSTORE PUSH1 0x20 DUP3 ADD SWAP1 POP SWAP3 SWAP2 POP POP JUMP JUMPDEST PUSH1 0x0 PUSH2 0x3A3D DUP3 PUSH2 0x3A16 JUMP JUMPDEST PUSH2 0x3A47 DUP2 DUP6 PUSH2 0x3A21 JUMP JUMPDEST SWAP4 POP PUSH2 0x3A57 DUP2 DUP6 PUSH1 0x20 DUP7 ADD PUSH2 0x2648 JUMP JUMPDEST PUSH2 0x3A60 DUP2 PUSH2 0x2672 JUMP JUMPDEST DUP5 ADD SWAP2 POP POP SWAP3 SWAP2 POP POP JUMP JUMPDEST PUSH1 0x0 PUSH1 0x80 DUP3 ADD SWAP1 POP PUSH2 0x3A80 PUSH1 0x0 DUP4 ADD DUP8 PUSH2 0x2773 JUMP JUMPDEST PUSH2 0x3A8D PUSH1 0x20 DUP4 ADD DUP7 PUSH2 0x2773 JUMP JUMPDEST PUSH2 0x3A9A PUSH1 0x40 DUP4 ADD DUP6 PUSH2 0x2809 JUMP JUMPDEST DUP2 DUP2 SUB PUSH1 0x60 DUP4 ADD MSTORE PUSH2 0x3AAC DUP2 DUP5 PUSH2 0x3A32 JUMP JUMPDEST SWAP1 POP SWAP6 SWAP5 POP POP POP POP POP JUMP JUMPDEST PUSH1 0x0 DUP2 MLOAD SWAP1 POP PUSH2 0x3AC6 DUP2 PUSH2 0x259D JUMP JUMPDEST SWAP3 SWAP2 POP POP JUMP JUMPDEST PUSH1 0x0 PUSH1 0x20 DUP3 DUP5 SUB SLT ISZERO PUSH2 0x3AE2 JUMPI PUSH2 0x3AE1 PUSH2 0x2567 JUMP JUMPDEST JUMPDEST PUSH1 0x0 PUSH2 0x3AF0 DUP5 DUP3 DUP6 ADD PUSH2 0x3AB7 JUMP JUMPDEST SWAP2 POP POP SWAP3 SWAP2 POP POP JUMP JUMPDEST PUSH32 0x4552433732313A206D696E7420746F20746865207A65726F2061646472657373 PUSH1 0x0 DUP3 ADD MSTORE POP JUMP JUMPDEST PUSH1 0x0 PUSH2 0x3B2F PUSH1 0x20 DUP4 PUSH2 0x2637 JUMP JUMPDEST SWAP2 POP PUSH2 0x3B3A DUP3 PUSH2 0x3AF9 JUMP JUMPDEST PUSH1 0x20 DUP3 ADD SWAP1 POP SWAP2 SWAP1 POP JUMP JUMPDEST PUSH1 0x0 PUSH1 0x20 DUP3 ADD SWAP1 POP DUP2 DUP2 SUB PUSH1 0x0 DUP4 ADD MSTORE PUSH2 0x3B5E DUP2 PUSH2 0x3B22 JUMP JUMPDEST SWAP1 POP SWAP2 SWAP1 POP JUMP JUMPDEST PUSH32 0x4552433732313A20746F6B656E20616C7265616479206D696E74656400000000 PUSH1 0x0 DUP3 ADD MSTORE POP JUMP JUMPDEST PUSH1 0x0 PUSH2 0x3B9B PUSH1 0x1C DUP4 PUSH2 0x2637 JUMP JUMPDEST SWAP2 POP PUSH2 0x3BA6 DUP3 PUSH2 0x3B65 JUMP JUMPDEST PUSH1 0x20 DUP3 ADD SWAP1 POP SWAP2 SWAP1 POP JUMP JUMPDEST PUSH1 0x0 PUSH1 0x20 DUP3 ADD SWAP1 POP DUP2 DUP2 SUB PUSH1 0x0 DUP4 ADD MSTORE PUSH2 0x3BCA DUP2 PUSH2 0x3B8E JUMP JUMPDEST SWAP1 POP SWAP2 SWAP1 POP JUMP INVALID LOG2 PUSH5 0x6970667358 0x22 SLT KECCAK256 DUP5 LOG2 CODESIZE 0xC 0xDE SWAP12 SWAP6 BALANCE PUSH29 0xE74065F8173DF3CAC376AE2DDDF7CB6D6A8E4E94CA5E064736F6C6343 STOP ADDMOD GT STOP CALLER "},"gasEstimates":{"creation":{"codeDepositCost":"3073400","executionCost":"infinite","totalCost":"infinite"},"external":{"approve(address,uint256)":"infinite","balanceOf(address)":"2921","getApproved(uint256)":"5300","getBreedFromModdedRng(uint256)":"infinite","getChanceArray()":"infinite","getDogTokenUris(uint256)":"infinite","getMinFee()":"infinite","getTokenCounter()":"2460","isApprovedForAll(address,address)":"infinite","name()":"infinite","owner()":"2611","ownerOf(uint256)":"3110","rawFulfillRandomWords(uint256,uint256[])":"infinite","renounceOwnership()":"30465","requestNft()":"infinite","s_requestIdToSender(uint256)":"2884","s_tokenCounter()":"2541","safeTransferFrom(address,address,uint256)":"infinite","safeTransferFrom(address,address,uint256,bytes)":"infinite","setApprovalForAll(address,bool)":"infinite","supportsInterface(bytes4)":"797","symbol()":"infinite","tokenURI(uint256)":"infinite","transferFrom(address,address,uint256)":"infinite","transferOwnership(address)":"30854","withdraw()":"infinite"},"internal":{"fulfillRandomWords(uint256,uint256[] memory)":"infinite"}},"methodIdentifiers":{"approve(address,uint256)":"095ea7b3","balanceOf(address)":"70a08231","getApproved(uint256)":"081812fc","getBreedFromModdedRng(uint256)":"a51cccf3","getChanceArray()":"5dacf5f4","getDogTokenUris(uint256)":"3af25975","getMinFee()":"5cf34bcf","getTokenCounter()":"6e02007d","isApprovedForAll(address,address)":"e985e9c5","name()":"06fdde03","owner()":"8da5cb5b","ownerOf(uint256)":"6352211e","rawFulfillRandomWords(uint256,uint256[])":"1fe543e3","renounceOwnership()":"715018a6","requestNft()":"aa152491","s_requestIdToSender(uint256)":"a36f573b","s_tokenCounter()":"0b21a83b","safeTransferFrom(address,address,uint256)":"42842e0e","safeTransferFrom(address,address,uint256,bytes)":"b88d4fde","setApprovalForAll(address,bool)":"a22cb465","supportsInterface(bytes4)":"01ffc9a7","symbol()":"95d89b41","tokenURI(uint256)":"c87b56dd","transferFrom(address,address,uint256)":"23b872dd","transferOwnership(address)":"f2fde38b","withdraw()":"3ccfd60b"}},"storageLayout":{"storage":[{"astId":292,"contract":"contracts/RandomIpfsNft.sol:RandomIpfsNft","label":"_name","offset":0,"slot":"0","type":"t_string_storage"},{"astId":294,"contract":"contracts/RandomIpfsNft.sol:RandomIpfsNft","label":"_symbol","offset":0,"slot":"1","type":"t_string_storage"},{"astId":298,"contract":"contracts/RandomIpfsNft.sol:RandomIpfsNft","label":"_owners","offset":0,"slot":"2","type":"t_mapping(t_uint256,t_address)"},{"astId":302,"contract":"contracts/RandomIpfsNft.sol:RandomIpfsNft","label":"_balances","offset":0,"slot":"3","type":"t_mapping(t_address,t_uint256)"},{"astId":306,"contract":"contracts/RandomIpfsNft.sol:RandomIpfsNft","label":"_tokenApprovals","offset":0,"slot":"4","type":"t_mapping(t_uint256,t_address)"},{"astId":312,"contract":"contracts/RandomIpfsNft.sol:RandomIpfsNft","label":"_operatorApprovals","offset":0,"slot":"5","type":"t_mapping(t_address,t_mapping(t_address,t_bool))"},{"astId":1340,"contract":"contracts/RandomIpfsNft.sol:RandomIpfsNft","label":"_tokenURIs","offset":0,"slot":"6","type":"t_mapping(t_uint256,t_string_storage)"},{"astId":161,"contract":"contracts/RandomIpfsNft.sol:RandomIpfsNft","label":"_owner","offset":0,"slot":"7","type":"t_address"},{"astId":2948,"contract":"contracts/RandomIpfsNft.sol:RandomIpfsNft","label":"s_requestIdToSender","offset":0,"slot":"8","type":"t_mapping(t_uint256,t_address)"},{"astId":2950,"contract":"contracts/RandomIpfsNft.sol:RandomIpfsNft","label":"s_tokenCounter","offset":0,"slot":"9","type":"t_uint256"},{"astId":2956,"contract":"contracts/RandomIpfsNft.sol:RandomIpfsNft","label":"s_dogTokenUris","offset":0,"slot":"10","type":"t_array(t_string_storage)dyn_storage"}],"types":{"t_address":{"encoding":"inplace","label":"address","numberOfBytes":"20"},"t_array(t_string_storage)dyn_storage":{"base":"t_string_storage","encoding":"dynamic_array","label":"string[]","numberOfBytes":"32"},"t_bool":{"encoding":"inplace","label":"bool","numberOfBytes":"1"},"t_mapping(t_address,t_bool)":{"encoding":"mapping","key":"t_address","label":"mapping(address => bool)","numberOfBytes":"32","value":"t_bool"},"t_mapping(t_address,t_mapping(t_address,t_bool))":{"encoding":"mapping","key":"t_address","label":"mapping(address => mapping(address => bool))","numberOfBytes":"32","value":"t_mapping(t_address,t_bool)"},"t_mapping(t_address,t_uint256)":{"encoding":"mapping","key":"t_address","label":"mapping(address => uint256)","numberOfBytes":"32","value":"t_uint256"},"t_mapping(t_uint256,t_address)":{"encoding":"mapping","key":"t_uint256","label":"mapping(uint256 => address)","numberOfBytes":"32","value":"t_address"},"t_mapping(t_uint256,t_string_storage)":{"encoding":"mapping","key":"t_uint256","label":"mapping(uint256 => string)","numberOfBytes":"32","value":"t_string_storage"},"t_string_storage":{"encoding":"bytes","label":"string","numberOfBytes":"32"},"t_uint256":{"encoding":"inplace","label":"uint256","numberOfBytes":"32"}}},"userdoc":{"kind":"user","methods":{},"version":1}}}}