{
  "_format": "hh-sol-artifact-1",
  "contractName": "callAnyting",
  "sourceName": "contracts/lowLevel/callAnything.sol",
  "abi": [
    {
      "inputs": [
        {
          "internalType": "address",
          "name": "someAddress",
          "type": "address"
        },
        {
          "internalType": "uint256",
          "name": "amount",
          "type": "uint256"
        }
      ],
      "name": "callTransferFunctionDirectly",
      "outputs": [
        {
          "internalType": "bytes4",
          "name": "",
          "type": "bytes4"
        },
        {
          "internalType": "bool",
          "name": "",
          "type": "bool"
        }
      ],
      "stateMutability": "nonpayable",
      "type": "function"
    },
    {
      "inputs": [
        {
          "internalType": "address",
          "name": "someAddress",
          "type": "address"
        },
        {
          "internalType": "uint256",
          "name": "amount",
          "type": "uint256"
        }
      ],
      "name": "callTransferFunctionDirectlySig",
      "outputs": [
        {
          "internalType": "bytes4",
          "name": "",
          "type": "bytes4"
        },
        {
          "internalType": "bool",
          "name": "",
          "type": "bool"
        }
      ],
      "stateMutability": "nonpayable",
      "type": "function"
    },
    {
      "inputs": [
        {
          "internalType": "address",
          "name": "someAddress",
          "type": "address"
        },
        {
          "internalType": "uint256",
          "name": "amount",
          "type": "uint256"
        }
      ],
      "name": "getDataToCallTransfer",
      "outputs": [
        {
          "internalType": "bytes",
          "name": "",
          "type": "bytes"
        }
      ],
      "stateMutability": "pure",
      "type": "function"
    },
    {
      "inputs": [],
      "name": "getSelectorOne",
      "outputs": [
        {
          "internalType": "bytes4",
          "name": "selector",
          "type": "bytes4"
        }
      ],
      "stateMutability": "pure",
      "type": "function"
    },
    {
      "inputs": [],
      "name": "s_amount",
      "outputs": [
        {
          "internalType": "uint256",
          "name": "",
          "type": "uint256"
        }
      ],
      "stateMutability": "view",
      "type": "function"
    },
    {
      "inputs": [],
      "name": "s_someAddress",
      "outputs": [
        {
          "internalType": "address",
          "name": "",
          "type": "address"
        }
      ],
      "stateMutability": "view",
      "type": "function"
    },
    {
      "inputs": [
        {
          "internalType": "address",
          "name": "someAddress",
          "type": "address"
        },
        {
          "internalType": "uint256",
          "name": "amount",
          "type": "uint256"
        }
      ],
      "name": "transfer",
      "outputs": [],
      "stateMutability": "nonpayable",
      "type": "function"
    }
  ],
  "bytecode": "0x608060405234801561001057600080fd5b506108a3806100206000396000f3fe608060405234801561001057600080fd5b506004361061007d5760003560e01c8063a5694e4a1161005b578063a5694e4a14610101578063a9059cbb14610132578063aad229d51461014e578063c6e93bad1461016c5761007d565b80637c0c5f231461008257806388af190b146100b25780639a41d3ad146100e3575b600080fd5b61009c60048036038101906100979190610578565b61018a565b6040516100a99190610648565b60405180910390f35b6100cc60048036038101906100c79190610578565b61020c565b6040516100da9291906106c0565b60405180910390f35b6100eb610325565b6040516100f891906106e9565b60405180910390f35b61011b60048036038101906101169190610578565b610369565b6040516101299291906106c0565b60405180910390f35b61014c60048036038101906101479190610578565b61046a565b005b6101566104b5565b6040516101639190610713565b60405180910390f35b6101746104d9565b604051610181919061073d565b60405180910390f35b6060610194610325565b83836040516024016101a7929190610758565b604051602081830303815290604052907bffffffffffffffffffffffffffffffffffffffffffffffffffffffff19166020820180517bffffffffffffffffffffffffffffffffffffffffffffffffffffffff8381831617835250505050905092915050565b6000806000803073ffffffffffffffffffffffffffffffffffffffff16868660405160240161023c929190610758565b6040516020818303038152906040527fa9059cbb000000000000000000000000000000000000000000000000000000007bffffffffffffffffffffffffffffffffffffffffffffffffffffffff19166020820180517bffffffffffffffffffffffffffffffffffffffffffffffffffffffff83818316178352505050506040516102c691906107bd565b6000604051808303816000865af19150503d8060008114610303576040519150601f19603f3d011682016040523d82523d6000602084013e610308565b606091505b50915091508061031790610806565b829350935050509250929050565b60006040518060400160405280601981526020017f7472616e7366657228616464726573732c75696e74323536290000000000000081525080519060200120905090565b6000806000803073ffffffffffffffffffffffffffffffffffffffff1661038e610325565b87876040516024016103a1929190610758565b604051602081830303815290604052907bffffffffffffffffffffffffffffffffffffffffffffffffffffffff19166020820180517bffffffffffffffffffffffffffffffffffffffffffffffffffffffff838183161783525050505060405161040b91906107bd565b6000604051808303816000865af19150503d8060008114610448576040519150601f19603f3d011682016040523d82523d6000602084013e61044d565b606091505b50915091508061045c90610806565b829350935050509250929050565b816000806101000a81548173ffffffffffffffffffffffffffffffffffffffff021916908373ffffffffffffffffffffffffffffffffffffffff160217905550806001819055505050565b60008054906101000a900473ffffffffffffffffffffffffffffffffffffffff1681565b60015481565b600080fd5b600073ffffffffffffffffffffffffffffffffffffffff82169050919050565b600061050f826104e4565b9050919050565b61051f81610504565b811461052a57600080fd5b50565b60008135905061053c81610516565b92915050565b6000819050919050565b61055581610542565b811461056057600080fd5b50565b6000813590506105728161054c565b92915050565b6000806040838503121561058f5761058e6104df565b5b600061059d8582860161052d565b92505060206105ae85828601610563565b9150509250929050565b600081519050919050565b600082825260208201905092915050565b60005b838110156105f25780820151818401526020810190506105d7565b60008484015250505050565b6000601f19601f8301169050919050565b600061061a826105b8565b61062481856105c3565b93506106348185602086016105d4565b61063d816105fe565b840191505092915050565b60006020820190508181036000830152610662818461060f565b905092915050565b60007fffffffff0000000000000000000000000000000000000000000000000000000082169050919050565b61069f8161066a565b82525050565b60008115159050919050565b6106ba816106a5565b82525050565b60006040820190506106d56000830185610696565b6106e260208301846106b1565b9392505050565b60006020820190506106fe6000830184610696565b92915050565b61070d81610504565b82525050565b60006020820190506107286000830184610704565b92915050565b61073781610542565b82525050565b6000602082019050610752600083018461072e565b92915050565b600060408201905061076d6000830185610704565b61077a602083018461072e565b9392505050565b600081905092915050565b6000610797826105b8565b6107a18185610781565b93506107b18185602086016105d4565b80840191505092915050565b60006107c9828461078c565b915081905092915050565b6000819050602082019050919050565b60006107f0825161066a565b80915050919050565b600082821b905092915050565b6000610811826105b8565b8261081b846107d4565b9050610826816107e4565b92506004821015610866576108617fffffffff00000000000000000000000000000000000000000000000000000000836004036008026107f9565b831692505b505091905056fea26469706673582212200df5863497ea18e7bf205a220d0f612eaa98db747db2373e13c8008a0a87f81464736f6c63430008110033",
  "linkReferences": {},
  "deployedLinkReferences": {}
}