{
  "_format": "hh-sol-artifact-1",
  "contractName": "DynamicSvgNft",
  "sourceName": "contracts/dynamicSvgNft.sol",
  "abi": [
    {
      "inputs": [
        {
          "internalType": "address",
          "name": "priceFeedAddress",
          "type": "address"
        },
        {
          "internalType": "string",
          "name": "lowSvg",
          "type": "string"
        },
        {
          "internalType": "string",
          "name": "highSvg",
          "type": "string"
        }
      ],
      "stateMutability": "nonpayable",
      "type": "constructor"
    },
    {
      "anonymous": false,
      "inputs": [
        {
          "indexed": true,
          "internalType": "address",
          "name": "owner",
          "type": "address"
        },
        {
          "indexed": true,
          "internalType": "address",
          "name": "approved",
          "type": "address"
        },
        {
          "indexed": true,
          "internalType": "uint256",
          "name": "tokenId",
          "type": "uint256"
        }
      ],
      "name": "Approval",
      "type": "event"
    },
    {
      "anonymous": false,
      "inputs": [
        {
          "indexed": true,
          "internalType": "address",
          "name": "owner",
          "type": "address"
        },
        {
          "indexed": true,
          "internalType": "address",
          "name": "operator",
          "type": "address"
        },
        {
          "indexed": false,
          "internalType": "bool",
          "name": "approved",
          "type": "bool"
        }
      ],
      "name": "ApprovalForAll",
      "type": "event"
    },
    {
      "anonymous": false,
      "inputs": [
        {
          "indexed": true,
          "internalType": "uint256",
          "name": "tokenId",
          "type": "uint256"
        },
        {
          "indexed": false,
          "internalType": "int256",
          "name": "highValue",
          "type": "int256"
        }
      ],
      "name": "CreatedNFT",
      "type": "event"
    },
    {
      "anonymous": false,
      "inputs": [
        {
          "indexed": true,
          "internalType": "address",
          "name": "from",
          "type": "address"
        },
        {
          "indexed": true,
          "internalType": "address",
          "name": "to",
          "type": "address"
        },
        {
          "indexed": true,
          "internalType": "uint256",
          "name": "tokenId",
          "type": "uint256"
        }
      ],
      "name": "Transfer",
      "type": "event"
    },
    {
      "inputs": [
        {
          "internalType": "address",
          "name": "to",
          "type": "address"
        },
        {
          "internalType": "uint256",
          "name": "tokenId",
          "type": "uint256"
        }
      ],
      "name": "approve",
      "outputs": [],
      "stateMutability": "nonpayable",
      "type": "function"
    },
    {
      "inputs": [
        {
          "internalType": "address",
          "name": "owner",
          "type": "address"
        }
      ],
      "name": "balanceOf",
      "outputs": [
        {
          "internalType": "uint256",
          "name": "",
          "type": "uint256"
        }
      ],
      "stateMutability": "view",
      "type": "function"
    },
    {
      "inputs": [
        {
          "internalType": "uint256",
          "name": "tokenId",
          "type": "uint256"
        }
      ],
      "name": "getApproved",
      "outputs": [
        {
          "internalType": "address",
          "name": "",
          "type": "address"
        }
      ],
      "stateMutability": "view",
      "type": "function"
    },
    {
      "inputs": [
        {
          "internalType": "address",
          "name": "owner",
          "type": "address"
        },
        {
          "internalType": "address",
          "name": "operator",
          "type": "address"
        }
      ],
      "name": "isApprovedForAll",
      "outputs": [
        {
          "internalType": "bool",
          "name": "",
          "type": "bool"
        }
      ],
      "stateMutability": "view",
      "type": "function"
    },
    {
      "inputs": [
        {
          "internalType": "int256",
          "name": "highValue",
          "type": "int256"
        }
      ],
      "name": "mintNft",
      "outputs": [],
      "stateMutability": "nonpayable",
      "type": "function"
    },
    {
      "inputs": [],
      "name": "name",
      "outputs": [
        {
          "internalType": "string",
          "name": "",
          "type": "string"
        }
      ],
      "stateMutability": "view",
      "type": "function"
    },
    {
      "inputs": [
        {
          "internalType": "uint256",
          "name": "tokenId",
          "type": "uint256"
        }
      ],
      "name": "ownerOf",
      "outputs": [
        {
          "internalType": "address",
          "name": "",
          "type": "address"
        }
      ],
      "stateMutability": "view",
      "type": "function"
    },
    {
      "inputs": [
        {
          "internalType": "uint256",
          "name": "",
          "type": "uint256"
        }
      ],
      "name": "s_tokenIdToHighValue",
      "outputs": [
        {
          "internalType": "int256",
          "name": "",
          "type": "int256"
        }
      ],
      "stateMutability": "view",
      "type": "function"
    },
    {
      "inputs": [
        {
          "internalType": "address",
          "name": "from",
          "type": "address"
        },
        {
          "internalType": "address",
          "name": "to",
          "type": "address"
        },
        {
          "internalType": "uint256",
          "name": "tokenId",
          "type": "uint256"
        }
      ],
      "name": "safeTransferFrom",
      "outputs": [],
      "stateMutability": "nonpayable",
      "type": "function"
    },
    {
      "inputs": [
        {
          "internalType": "address",
          "name": "from",
          "type": "address"
        },
        {
          "internalType": "address",
          "name": "to",
          "type": "address"
        },
        {
          "internalType": "uint256",
          "name": "tokenId",
          "type": "uint256"
        },
        {
          "internalType": "bytes",
          "name": "data",
          "type": "bytes"
        }
      ],
      "name": "safeTransferFrom",
      "outputs": [],
      "stateMutability": "nonpayable",
      "type": "function"
    },
    {
      "inputs": [
        {
          "internalType": "address",
          "name": "operator",
          "type": "address"
        },
        {
          "internalType": "bool",
          "name": "approved",
          "type": "bool"
        }
      ],
      "name": "setApprovalForAll",
      "outputs": [],
      "stateMutability": "nonpayable",
      "type": "function"
    },
    {
      "inputs": [
        {
          "internalType": "bytes4",
          "name": "interfaceId",
          "type": "bytes4"
        }
      ],
      "name": "supportsInterface",
      "outputs": [
        {
          "internalType": "bool",
          "name": "",
          "type": "bool"
        }
      ],
      "stateMutability": "view",
      "type": "function"
    },
    {
      "inputs": [
        {
          "internalType": "string",
          "name": "svg",
          "type": "string"
        }
      ],
      "name": "svgToImageURI",
      "outputs": [
        {
          "internalType": "string",
          "name": "",
          "type": "string"
        }
      ],
      "stateMutability": "pure",
      "type": "function"
    },
    {
      "inputs": [],
      "name": "symbol",
      "outputs": [
        {
          "internalType": "string",
          "name": "",
          "type": "string"
        }
      ],
      "stateMutability": "view",
      "type": "function"
    },
    {
      "inputs": [
        {
          "internalType": "uint256",
          "name": "tokenId",
          "type": "uint256"
        }
      ],
      "name": "tokenURI",
      "outputs": [
        {
          "internalType": "string",
          "name": "",
          "type": "string"
        }
      ],
      "stateMutability": "view",
      "type": "function"
    },
    {
      "inputs": [
        {
          "internalType": "address",
          "name": "from",
          "type": "address"
        },
        {
          "internalType": "address",
          "name": "to",
          "type": "address"
        },
        {
          "internalType": "uint256",
          "name": "tokenId",
          "type": "uint256"
        }
      ],
      "name": "transferFrom",
      "outputs": [],
      "stateMutability": "nonpayable",
      "type": "function"
    }
  ],
  "bytecode": "0x60a06040523480156200001157600080fd5b50604051620038a0380380620038a0833981810160405281019062000037919062000575565b6040518060400160405280600f81526020017f44796e616d696320535647204e465400000000000000000000000000000000008152506040518060400160405280600381526020017f44534e00000000000000000000000000000000000000000000000000000000008152508160009081620000b491906200085a565b508060019081620000c691906200085a565b5050506000600681905550620000e2826200015260201b60201c565b60079081620000f291906200085a565b5062000104816200015260201b60201c565b600890816200011491906200085a565b508273ffffffffffffffffffffffffffffffffffffffff1660808173ffffffffffffffffffffffffffffffffffffffff168152505050505062000ae0565b606060006200018d836040516020016200016d919062000983565b604051602081830303815290604052620001f060201b62000d231760201c565b90506040518060400160405280601a81526020017f646174613a696d6167652f7376672b786d6c3b6261736536342c00000000000081525081604051602001620001d99291906200099c565b604051602081830303815290604052915050919050565b60606000825103620002145760405180602001604052806000815250905062000378565b6000604051806060016040528060408152602001620038606040913990506000600360028551620002469190620009f3565b62000252919062000a5d565b600462000260919062000a95565b90506000602082620002739190620009f3565b67ffffffffffffffff8111156200028f576200028e62000411565b5b6040519080825280601f01601f191660200182016040528015620002c25781602001600182028036833780820191505090505b509050818152600183018586518101602084015b8183101562000333576003830192508251603f8160121c168501518253600182019150603f81600c1c168501518253600182019150603f8160061c168501518253600182019150603f8116850151825360018201915050620002d6565b60038951066001811462000350576002811462000361576200036c565b613d3d60f01b60028303526200036c565b603d60f81b60018303525b50505050508093505050505b919050565b6000604051905090565b600080fd5b600080fd5b600073ffffffffffffffffffffffffffffffffffffffff82169050919050565b6000620003be8262000391565b9050919050565b620003d081620003b1565b8114620003dc57600080fd5b50565b600081519050620003f081620003c5565b92915050565b600080fd5b600080fd5b6000601f19601f8301169050919050565b7f4e487b7100000000000000000000000000000000000000000000000000000000600052604160045260246000fd5b6200044b8262000400565b810181811067ffffffffffffffff821117156200046d576200046c62000411565b5b80604052505050565b6000620004826200037d565b905062000490828262000440565b919050565b600067ffffffffffffffff821115620004b357620004b262000411565b5b620004be8262000400565b9050602081019050919050565b60005b83811015620004eb578082015181840152602081019050620004ce565b60008484015250505050565b60006200050e620005088462000495565b62000476565b9050828152602081018484840111156200052d576200052c620003fb565b5b6200053a848285620004cb565b509392505050565b600082601f8301126200055a5762000559620003f6565b5b81516200056c848260208601620004f7565b91505092915050565b60008060006060848603121562000591576200059062000387565b5b6000620005a186828701620003df565b935050602084015167ffffffffffffffff811115620005c557620005c46200038c565b5b620005d38682870162000542565b925050604084015167ffffffffffffffff811115620005f757620005f66200038c565b5b620006058682870162000542565b9150509250925092565b600081519050919050565b7f4e487b7100000000000000000000000000000000000000000000000000000000600052602260045260246000fd5b600060028204905060018216806200066257607f821691505b6020821081036200067857620006776200061a565b5b50919050565b60008190508160005260206000209050919050565b60006020601f8301049050919050565b600082821b905092915050565b600060088302620006e27fffffffffffffffffffffffffffffffffffffffffffffffffffffffffffffffff82620006a3565b620006ee8683620006a3565b95508019841693508086168417925050509392505050565b6000819050919050565b6000819050919050565b60006200073b620007356200072f8462000706565b62000710565b62000706565b9050919050565b6000819050919050565b62000757836200071a565b6200076f620007668262000742565b848454620006b0565b825550505050565b600090565b6200078662000777565b620007938184846200074c565b505050565b5b81811015620007bb57620007af6000826200077c565b60018101905062000799565b5050565b601f8211156200080a57620007d4816200067e565b620007df8462000693565b81016020851015620007ef578190505b62000807620007fe8562000693565b83018262000798565b50505b505050565b600082821c905092915050565b60006200082f600019846008026200080f565b1980831691505092915050565b60006200084a83836200081c565b9150826002028217905092915050565b62000865826200060f565b67ffffffffffffffff81111562000881576200088062000411565b5b6200088d825462000649565b6200089a828285620007bf565b600060209050601f831160018114620008d25760008415620008bd578287015190505b620008c985826200083c565b86555062000939565b601f198416620008e2866200067e565b60005b828110156200090c57848901518255600182019150602085019450602081019050620008e5565b868310156200092c578489015162000928601f8916826200081c565b8355505b6001600288020188555050505b505050505050565b600081905092915050565b600062000959826200060f565b62000965818562000941565b935062000977818560208601620004cb565b80840191505092915050565b60006200099182846200094c565b915081905092915050565b6000620009aa82856200094c565b9150620009b882846200094c565b91508190509392505050565b7f4e487b7100000000000000000000000000000000000000000000000000000000600052601160045260246000fd5b600062000a008262000706565b915062000a0d8362000706565b925082820190508082111562000a285762000a27620009c4565b5b92915050565b7f4e487b7100000000000000000000000000000000000000000000000000000000600052601260045260246000fd5b600062000a6a8262000706565b915062000a778362000706565b92508262000a8a5762000a8962000a2e565b5b828204905092915050565b600062000aa28262000706565b915062000aaf8362000706565b925082820262000abf8162000706565b9150828204841483151762000ad95762000ad8620009c4565b5b5092915050565b608051612d6462000afc6000396000610a540152612d646000f3fe608060405234801561001057600080fd5b50600436106101005760003560e01c80636352211e11610097578063b88d4fde11610066578063b88d4fde146102bd578063c87b56dd146102d9578063e425aded14610309578063e985e9c51461033957610100565b80636352211e1461022357806370a082311461025357806395d89b4114610283578063a22cb465146102a157610100565b80631e930812116100d35780631e9308121461019f57806323b872dd146101bb57806330d871c6146101d757806342842e0e1461020757610100565b806301ffc9a71461010557806306fdde0314610135578063081812fc14610153578063095ea7b314610183575b600080fd5b61011f600480360381019061011a9190611a9d565b610369565b60405161012c9190611ae5565b60405180910390f35b61013d61044b565b60405161014a9190611b90565b60405180910390f35b61016d60048036038101906101689190611be8565b6104dd565b60405161017a9190611c56565b60405180910390f35b61019d60048036038101906101989190611c9d565b610523565b005b6101b960048036038101906101b49190611d13565b61063a565b005b6101d560048036038101906101d09190611d40565b6106b2565b005b6101f160048036038101906101ec9190611ec8565b610712565b6040516101fe9190611b90565b60405180910390f35b610221600480360381019061021c9190611d40565b61079f565b005b61023d60048036038101906102389190611be8565b6107bf565b60405161024a9190611c56565b60405180910390f35b61026d60048036038101906102689190611f11565b610845565b60405161027a9190611f4d565b60405180910390f35b61028b6108fc565b6040516102989190611b90565b60405180910390f35b6102bb60048036038101906102b69190611f94565b61098e565b005b6102d760048036038101906102d29190612075565b6109a4565b005b6102f360048036038101906102ee9190611be8565b610a06565b6040516103009190611b90565b60405180910390f35b610323600480360381019061031e9190611be8565b610c77565b6040516103309190612107565b60405180910390f35b610353600480360381019061034e9190612122565b610c8f565b6040516103609190611ae5565b60405180910390f35b60007f80ac58cd000000000000000000000000000000000000000000000000000000007bffffffffffffffffffffffffffffffffffffffffffffffffffffffff1916827bffffffffffffffffffffffffffffffffffffffffffffffffffffffff1916148061043457507f5b5e139f000000000000000000000000000000000000000000000000000000007bffffffffffffffffffffffffffffffffffffffffffffffffffffffff1916827bffffffffffffffffffffffffffffffffffffffffffffffffffffffff1916145b80610444575061044382610e9b565b5b9050919050565b60606000805461045a90612191565b80601f016020809104026020016040519081016040528092919081815260200182805461048690612191565b80156104d35780601f106104a8576101008083540402835291602001916104d3565b820191906000526020600020905b8154815290600101906020018083116104b657829003601f168201915b5050505050905090565b60006104e882610f05565b6004600083815260200190815260200160002060009054906101000a900473ffffffffffffffffffffffffffffffffffffffff169050919050565b600061052e826107bf565b90508073ffffffffffffffffffffffffffffffffffffffff168373ffffffffffffffffffffffffffffffffffffffff160361059e576040517f08c379a000000000000000000000000000000000000000000000000000000000815260040161059590612234565b60405180910390fd5b8073ffffffffffffffffffffffffffffffffffffffff166105bd610f50565b73ffffffffffffffffffffffffffffffffffffffff1614806105ec57506105eb816105e6610f50565b610c8f565b5b61062b576040517f08c379a0000000000000000000000000000000000000000000000000000000008152600401610622906122c6565b60405180910390fd5b6106358383610f58565b505050565b806009600060065481526020019081526020016000208190555061066033600654611011565b600160065461066f9190612315565b6006819055506006547f882d3b5a729a8bb95cf6c0083c99b42ecd9637123d4425bd7b768877fd8af8b0826040516106a79190612107565b60405180910390a250565b6106c36106bd610f50565b8261102f565b610702576040517f08c379a00000000000000000000000000000000000000000000000000000000081526004016106f9906123bb565b60405180910390fd5b61070d8383836110c4565b505050565b6060600061073e8360405160200161072a9190612417565b604051602081830303815290604052610d23565b90506040518060400160405280601a81526020017f646174613a696d6167652f7376672b786d6c3b6261736536342c0000000000008152508160405160200161078892919061242e565b604051602081830303815290604052915050919050565b6107ba838383604051806020016040528060008152506109a4565b505050565b6000806107cb836113bd565b9050600073ffffffffffffffffffffffffffffffffffffffff168173ffffffffffffffffffffffffffffffffffffffff160361083c576040517f08c379a00000000000000000000000000000000000000000000000000000000081526004016108339061249e565b60405180910390fd5b80915050919050565b60008073ffffffffffffffffffffffffffffffffffffffff168273ffffffffffffffffffffffffffffffffffffffff16036108b5576040517f08c379a00000000000000000000000000000000000000000000000000000000081526004016108ac90612530565b60405180910390fd5b600360008373ffffffffffffffffffffffffffffffffffffffff1673ffffffffffffffffffffffffffffffffffffffff168152602001908152602001600020549050919050565b60606001805461090b90612191565b80601f016020809104026020016040519081016040528092919081815260200182805461093790612191565b80156109845780601f1061095957610100808354040283529160200191610984565b820191906000526020600020905b81548152906001019060200180831161096757829003601f168201915b5050505050905090565b6109a0610999610f50565b83836113fa565b5050565b6109b56109af610f50565b8361102f565b6109f4576040517f08c379a00000000000000000000000000000000000000000000000000000000081526004016109eb906123bb565b60405180910390fd5b610a0084848484611566565b50505050565b6060610a11826115c2565b610a50576040517f08c379a0000000000000000000000000000000000000000000000000000000008152600401610a479061259c565b60405180910390fd5b60007f000000000000000000000000000000000000000000000000000000000000000073ffffffffffffffffffffffffffffffffffffffff1663feaf968c6040518163ffffffff1660e01b815260040160a060405180830381865afa158015610abd573d6000803e3d6000fd5b505050506040513d601f19601f82011682018060405250810190610ae19190612628565b505050915050600060078054610af690612191565b80601f0160208091040260200160405190810160405280929190818152602001828054610b2290612191565b8015610b6f5780601f10610b4457610100808354040283529160200191610b6f565b820191906000526020600020905b815481529060010190602001808311610b5257829003601f168201915b5050505050905060096000858152602001908152602001600020548212610c1e5760088054610b9d90612191565b80601f0160208091040260200160405190810160405280929190818152602001828054610bc990612191565b8015610c165780601f10610beb57610100808354040283529160200191610c16565b820191906000526020600020905b815481529060010190602001808311610bf957829003601f168201915b505050505090505b610c4f610c2961044b565b82604051602001610c3b92919061281f565b604051602081830303815290604052610d23565b604051602001610c5f9190612417565b60405160208183030381529060405292505050919050565b60096020528060005260406000206000915090505481565b6000600560008473ffffffffffffffffffffffffffffffffffffffff1673ffffffffffffffffffffffffffffffffffffffff16815260200190815260200160002060008373ffffffffffffffffffffffffffffffffffffffff1673ffffffffffffffffffffffffffffffffffffffff16815260200190815260200160002060009054906101000a900460ff16905092915050565b60606000825103610d4557604051806020016040528060008152509050610e96565b6000604051806060016040528060408152602001612cef6040913990506000600360028551610d749190612315565b610d7e919061289e565b6004610d8a91906128cf565b90506000602082610d9b9190612315565b67ffffffffffffffff811115610db457610db3611d9d565b5b6040519080825280601f01601f191660200182016040528015610de65781602001600182028036833780820191505090505b509050818152600183018586518101602084015b81831015610e55576003830192508251603f8160121c168501518253600182019150603f81600c1c168501518253600182019150603f8160061c168501518253600182019150603f8116850151825360018201915050610dfa565b600389510660018114610e6f5760028114610e7f57610e8a565b613d3d60f01b6002830352610e8a565b603d60f81b60018303525b50505050508093505050505b919050565b60007f01ffc9a7000000000000000000000000000000000000000000000000000000007bffffffffffffffffffffffffffffffffffffffffffffffffffffffff1916827bffffffffffffffffffffffffffffffffffffffffffffffffffffffff1916149050919050565b610f0e816115c2565b610f4d576040517f08c379a0000000000000000000000000000000000000000000000000000000008152600401610f449061249e565b60405180910390fd5b50565b600033905090565b816004600083815260200190815260200160002060006101000a81548173ffffffffffffffffffffffffffffffffffffffff021916908373ffffffffffffffffffffffffffffffffffffffff160217905550808273ffffffffffffffffffffffffffffffffffffffff16610fcb836107bf565b73ffffffffffffffffffffffffffffffffffffffff167f8c5be1e5ebec7d5bd14f71427d1e84f3dd0314c0f7b2291e5b200ac8c7c3b92560405160405180910390a45050565b61102b828260405180602001604052806000815250611603565b5050565b60008061103b836107bf565b90508073ffffffffffffffffffffffffffffffffffffffff168473ffffffffffffffffffffffffffffffffffffffff16148061107d575061107c8185610c8f565b5b806110bb57508373ffffffffffffffffffffffffffffffffffffffff166110a3846104dd565b73ffffffffffffffffffffffffffffffffffffffff16145b91505092915050565b8273ffffffffffffffffffffffffffffffffffffffff166110e4826107bf565b73ffffffffffffffffffffffffffffffffffffffff161461113a576040517f08c379a000000000000000000000000000000000000000000000000000000000815260040161113190612983565b60405180910390fd5b600073ffffffffffffffffffffffffffffffffffffffff168273ffffffffffffffffffffffffffffffffffffffff16036111a9576040517f08c379a00000000000000000000000000000000000000000000000000000000081526004016111a090612a15565b60405180910390fd5b6111b6838383600161165e565b8273ffffffffffffffffffffffffffffffffffffffff166111d6826107bf565b73ffffffffffffffffffffffffffffffffffffffff161461122c576040517f08c379a000000000000000000000000000000000000000000000000000000000815260040161122390612983565b60405180910390fd5b6004600082815260200190815260200160002060006101000a81549073ffffffffffffffffffffffffffffffffffffffff02191690556001600360008573ffffffffffffffffffffffffffffffffffffffff1673ffffffffffffffffffffffffffffffffffffffff168152602001908152602001600020600082825403925050819055506001600360008473ffffffffffffffffffffffffffffffffffffffff1673ffffffffffffffffffffffffffffffffffffffff16815260200190815260200160002060008282540192505081905550816002600083815260200190815260200160002060006101000a81548173ffffffffffffffffffffffffffffffffffffffff021916908373ffffffffffffffffffffffffffffffffffffffff160217905550808273ffffffffffffffffffffffffffffffffffffffff168473ffffffffffffffffffffffffffffffffffffffff167fddf252ad1be2c89b69c2b068fc378daa952ba7f163c4a11628f55a4df523b3ef60405160405180910390a46113b88383836001611664565b505050565b60006002600083815260200190815260200160002060009054906101000a900473ffffffffffffffffffffffffffffffffffffffff169050919050565b8173ffffffffffffffffffffffffffffffffffffffff168373ffffffffffffffffffffffffffffffffffffffff1603611468576040517f08c379a000000000000000000000000000000000000000000000000000000000815260040161145f90612a81565b60405180910390fd5b80600560008573ffffffffffffffffffffffffffffffffffffffff1673ffffffffffffffffffffffffffffffffffffffff16815260200190815260200160002060008473ffffffffffffffffffffffffffffffffffffffff1673ffffffffffffffffffffffffffffffffffffffff16815260200190815260200160002060006101000a81548160ff0219169083151502179055508173ffffffffffffffffffffffffffffffffffffffff168373ffffffffffffffffffffffffffffffffffffffff167f17307eab39ab6107e8899845ad3d59bd9653f200f220920489ca2b5937696c31836040516115599190611ae5565b60405180910390a3505050565b6115718484846110c4565b61157d8484848461166a565b6115bc576040517f08c379a00000000000000000000000000000000000000000000000000000000081526004016115b390612b13565b60405180910390fd5b50505050565b60008073ffffffffffffffffffffffffffffffffffffffff166115e4836113bd565b73ffffffffffffffffffffffffffffffffffffffff1614159050919050565b61160d83836117f1565b61161a600084848461166a565b611659576040517f08c379a000000000000000000000000000000000000000000000000000000000815260040161165090612b13565b60405180910390fd5b505050565b50505050565b50505050565b600061168b8473ffffffffffffffffffffffffffffffffffffffff16611a0e565b156117e4578373ffffffffffffffffffffffffffffffffffffffff1663150b7a026116b4610f50565b8786866040518563ffffffff1660e01b81526004016116d69493929190612b88565b6020604051808303816000875af192505050801561171257506040513d601f19601f8201168201806040525081019061170f9190612be9565b60015b611794573d8060008114611742576040519150601f19603f3d011682016040523d82523d6000602084013e611747565b606091505b50600081510361178c576040517f08c379a000000000000000000000000000000000000000000000000000000000815260040161178390612b13565b60405180910390fd5b805181602001fd5b63150b7a0260e01b7bffffffffffffffffffffffffffffffffffffffffffffffffffffffff1916817bffffffffffffffffffffffffffffffffffffffffffffffffffffffff1916149150506117e9565b600190505b949350505050565b600073ffffffffffffffffffffffffffffffffffffffff168273ffffffffffffffffffffffffffffffffffffffff1603611860576040517f08c379a000000000000000000000000000000000000000000000000000000000815260040161185790612c62565b60405180910390fd5b611869816115c2565b156118a9576040517f08c379a00000000000000000000000000000000000000000000000000000000081526004016118a090612cce565b60405180910390fd5b6118b760008383600161165e565b6118c0816115c2565b15611900576040517f08c379a00000000000000000000000000000000000000000000000000000000081526004016118f790612cce565b60405180910390fd5b6001600360008473ffffffffffffffffffffffffffffffffffffffff1673ffffffffffffffffffffffffffffffffffffffff16815260200190815260200160002060008282540192505081905550816002600083815260200190815260200160002060006101000a81548173ffffffffffffffffffffffffffffffffffffffff021916908373ffffffffffffffffffffffffffffffffffffffff160217905550808273ffffffffffffffffffffffffffffffffffffffff16600073ffffffffffffffffffffffffffffffffffffffff167fddf252ad1be2c89b69c2b068fc378daa952ba7f163c4a11628f55a4df523b3ef60405160405180910390a4611a0a600083836001611664565b5050565b6000808273ffffffffffffffffffffffffffffffffffffffff163b119050919050565b6000604051905090565b600080fd5b600080fd5b60007fffffffff0000000000000000000000000000000000000000000000000000000082169050919050565b611a7a81611a45565b8114611a8557600080fd5b50565b600081359050611a9781611a71565b92915050565b600060208284031215611ab357611ab2611a3b565b5b6000611ac184828501611a88565b91505092915050565b60008115159050919050565b611adf81611aca565b82525050565b6000602082019050611afa6000830184611ad6565b92915050565b600081519050919050565b600082825260208201905092915050565b60005b83811015611b3a578082015181840152602081019050611b1f565b60008484015250505050565b6000601f19601f8301169050919050565b6000611b6282611b00565b611b6c8185611b0b565b9350611b7c818560208601611b1c565b611b8581611b46565b840191505092915050565b60006020820190508181036000830152611baa8184611b57565b905092915050565b6000819050919050565b611bc581611bb2565b8114611bd057600080fd5b50565b600081359050611be281611bbc565b92915050565b600060208284031215611bfe57611bfd611a3b565b5b6000611c0c84828501611bd3565b91505092915050565b600073ffffffffffffffffffffffffffffffffffffffff82169050919050565b6000611c4082611c15565b9050919050565b611c5081611c35565b82525050565b6000602082019050611c6b6000830184611c47565b92915050565b611c7a81611c35565b8114611c8557600080fd5b50565b600081359050611c9781611c71565b92915050565b60008060408385031215611cb457611cb3611a3b565b5b6000611cc285828601611c88565b9250506020611cd385828601611bd3565b9150509250929050565b6000819050919050565b611cf081611cdd565b8114611cfb57600080fd5b50565b600081359050611d0d81611ce7565b92915050565b600060208284031215611d2957611d28611a3b565b5b6000611d3784828501611cfe565b91505092915050565b600080600060608486031215611d5957611d58611a3b565b5b6000611d6786828701611c88565b9350506020611d7886828701611c88565b9250506040611d8986828701611bd3565b9150509250925092565b600080fd5b600080fd5b7f4e487b7100000000000000000000000000000000000000000000000000000000600052604160045260246000fd5b611dd582611b46565b810181811067ffffffffffffffff82111715611df457611df3611d9d565b5b80604052505050565b6000611e07611a31565b9050611e138282611dcc565b919050565b600067ffffffffffffffff821115611e3357611e32611d9d565b5b611e3c82611b46565b9050602081019050919050565b82818337600083830152505050565b6000611e6b611e6684611e18565b611dfd565b905082815260208101848484011115611e8757611e86611d98565b5b611e92848285611e49565b509392505050565b600082601f830112611eaf57611eae611d93565b5b8135611ebf848260208601611e58565b91505092915050565b600060208284031215611ede57611edd611a3b565b5b600082013567ffffffffffffffff811115611efc57611efb611a40565b5b611f0884828501611e9a565b91505092915050565b600060208284031215611f2757611f26611a3b565b5b6000611f3584828501611c88565b91505092915050565b611f4781611bb2565b82525050565b6000602082019050611f626000830184611f3e565b92915050565b611f7181611aca565b8114611f7c57600080fd5b50565b600081359050611f8e81611f68565b92915050565b60008060408385031215611fab57611faa611a3b565b5b6000611fb985828601611c88565b9250506020611fca85828601611f7f565b9150509250929050565b600067ffffffffffffffff821115611fef57611fee611d9d565b5b611ff882611b46565b9050602081019050919050565b600061201861201384611fd4565b611dfd565b90508281526020810184848401111561203457612033611d98565b5b61203f848285611e49565b509392505050565b600082601f83011261205c5761205b611d93565b5b813561206c848260208601612005565b91505092915050565b6000806000806080858703121561208f5761208e611a3b565b5b600061209d87828801611c88565b94505060206120ae87828801611c88565b93505060406120bf87828801611bd3565b925050606085013567ffffffffffffffff8111156120e0576120df611a40565b5b6120ec87828801612047565b91505092959194509250565b61210181611cdd565b82525050565b600060208201905061211c60008301846120f8565b92915050565b6000806040838503121561213957612138611a3b565b5b600061214785828601611c88565b925050602061215885828601611c88565b9150509250929050565b7f4e487b7100000000000000000000000000000000000000000000000000000000600052602260045260246000fd5b600060028204905060018216806121a957607f821691505b6020821081036121bc576121bb612162565b5b50919050565b7f4552433732313a20617070726f76616c20746f2063757272656e74206f776e6560008201527f7200000000000000000000000000000000000000000000000000000000000000602082015250565b600061221e602183611b0b565b9150612229826121c2565b604082019050919050565b6000602082019050818103600083015261224d81612211565b9050919050565b7f4552433732313a20617070726f76652063616c6c6572206973206e6f7420746f60008201527f6b656e206f776e6572206f7220617070726f76656420666f7220616c6c000000602082015250565b60006122b0603d83611b0b565b91506122bb82612254565b604082019050919050565b600060208201905081810360008301526122df816122a3565b9050919050565b7f4e487b7100000000000000000000000000000000000000000000000000000000600052601160045260246000fd5b600061232082611bb2565b915061232b83611bb2565b9250828201905080821115612343576123426122e6565b5b92915050565b7f4552433732313a2063616c6c6572206973206e6f7420746f6b656e206f776e6560008201527f72206f7220617070726f76656400000000000000000000000000000000000000602082015250565b60006123a5602d83611b0b565b91506123b082612349565b604082019050919050565b600060208201905081810360008301526123d481612398565b9050919050565b600081905092915050565b60006123f182611b00565b6123fb81856123db565b935061240b818560208601611b1c565b80840191505092915050565b600061242382846123e6565b915081905092915050565b600061243a82856123e6565b915061244682846123e6565b91508190509392505050565b7f4552433732313a20696e76616c696420746f6b656e2049440000000000000000600082015250565b6000612488601883611b0b565b915061249382612452565b602082019050919050565b600060208201905081810360008301526124b78161247b565b9050919050565b7f4552433732313a2061646472657373207a65726f206973206e6f74206120766160008201527f6c6964206f776e65720000000000000000000000000000000000000000000000602082015250565b600061251a602983611b0b565b9150612525826124be565b604082019050919050565b600060208201905081810360008301526125498161250d565b9050919050565b7f55524920517565727920666f72206e6f6e6578697374656e7420746f6b656e00600082015250565b6000612586601f83611b0b565b915061259182612550565b602082019050919050565b600060208201905081810360008301526125b581612579565b9050919050565b600069ffffffffffffffffffff82169050919050565b6125db816125bc565b81146125e657600080fd5b50565b6000815190506125f8816125d2565b92915050565b60008151905061260d81611ce7565b92915050565b60008151905061262281611bbc565b92915050565b600080600080600060a0868803121561264457612643611a3b565b5b6000612652888289016125e9565b9550506020612663888289016125fe565b945050604061267488828901612613565b935050606061268588828901612613565b9250506080612696888289016125e9565b9150509295509295909350565b7f7b226e616d65223a000000000000000000000000000000000000000000000000600082015250565b60006126d96008836123db565b91506126e4826126a3565b600882019050919050565b7f222c6465736372697074696f6e223a22416e204e46542074686174206368616e60008201527f6765732062617365206f6e2074686520436861696e6c696e6b20466565642200602082015250565b600061274b603f836123db565b9150612756826126ef565b603f82019050919050565b7f2261747472696275746573223a5b7b2274726169745f74797065223a22636f6f60008201527f6c6e657373222c2276616c7565223a3130307d5d2c22696d616765223a220000602082015250565b60006127bd603e836123db565b91506127c882612761565b603e82019050919050565b7f227d220000000000000000000000000000000000000000000000000000000000600082015250565b60006128096003836123db565b9150612814826127d3565b600382019050919050565b600061282a826126cc565b915061283682856123e6565b91506128418261273e565b915061284c826127b0565b915061285882846123e6565b9150612863826127fc565b91508190509392505050565b7f4e487b7100000000000000000000000000000000000000000000000000000000600052601260045260246000fd5b60006128a982611bb2565b91506128b483611bb2565b9250826128c4576128c361286f565b5b828204905092915050565b60006128da82611bb2565b91506128e583611bb2565b92508282026128f381611bb2565b9150828204841483151761290a576129096122e6565b5b5092915050565b7f4552433732313a207472616e736665722066726f6d20696e636f72726563742060008201527f6f776e6572000000000000000000000000000000000000000000000000000000602082015250565b600061296d602583611b0b565b915061297882612911565b604082019050919050565b6000602082019050818103600083015261299c81612960565b9050919050565b7f4552433732313a207472616e7366657220746f20746865207a65726f2061646460008201527f7265737300000000000000000000000000000000000000000000000000000000602082015250565b60006129ff602483611b0b565b9150612a0a826129a3565b604082019050919050565b60006020820190508181036000830152612a2e816129f2565b9050919050565b7f4552433732313a20617070726f766520746f2063616c6c657200000000000000600082015250565b6000612a6b601983611b0b565b9150612a7682612a35565b602082019050919050565b60006020820190508181036000830152612a9a81612a5e565b9050919050565b7f4552433732313a207472616e7366657220746f206e6f6e20455243373231526560008201527f63656976657220696d706c656d656e7465720000000000000000000000000000602082015250565b6000612afd603283611b0b565b9150612b0882612aa1565b604082019050919050565b60006020820190508181036000830152612b2c81612af0565b9050919050565b600081519050919050565b600082825260208201905092915050565b6000612b5a82612b33565b612b648185612b3e565b9350612b74818560208601611b1c565b612b7d81611b46565b840191505092915050565b6000608082019050612b9d6000830187611c47565b612baa6020830186611c47565b612bb76040830185611f3e565b8181036060830152612bc98184612b4f565b905095945050505050565b600081519050612be381611a71565b92915050565b600060208284031215612bff57612bfe611a3b565b5b6000612c0d84828501612bd4565b91505092915050565b7f4552433732313a206d696e7420746f20746865207a65726f2061646472657373600082015250565b6000612c4c602083611b0b565b9150612c5782612c16565b602082019050919050565b60006020820190508181036000830152612c7b81612c3f565b9050919050565b7f4552433732313a20746f6b656e20616c7265616479206d696e74656400000000600082015250565b6000612cb8601c83611b0b565b9150612cc382612c82565b602082019050919050565b60006020820190508181036000830152612ce781612cab565b905091905056fe4142434445464748494a4b4c4d4e4f505152535455565758595a6162636465666768696a6b6c6d6e6f707172737475767778797a303132333435363738392b2fa264697066735822122074e930c1bc769ad7651a98498cd60e17b833dc7634d41c3d1503a785896f5bd564736f6c634300081100334142434445464748494a4b4c4d4e4f505152535455565758595a6162636465666768696a6b6c6d6e6f707172737475767778797a303132333435363738392b2f",
  "linkReferences": {},
  "deployedLinkReferences": {}
}