{
  "address": "0xdf204af5928A72716e05c6fc5bADC46aD250dE43",
  "abi": [
    {
      "inputs": [
        {
          "internalType": "address",
          "name": "vrfCoordinatorV2",
          "type": "address"
        },
        {
          "internalType": "uint64",
          "name": "subscriptionId",
          "type": "uint64"
        },
        {
          "internalType": "bytes32",
          "name": "gasLane",
          "type": "bytes32"
        },
        {
          "internalType": "uint256",
          "name": "mintFee",
          "type": "uint256"
        },
        {
          "internalType": "uint32",
          "name": "callbackGasLimit",
          "type": "uint32"
        },
        {
          "internalType": "string[3]",
          "name": "dogTokenUris",
          "type": "string[3]"
        }
      ],
      "stateMutability": "nonpayable",
      "type": "constructor"
    },
    {
      "inputs": [
        {
          "internalType": "address",
          "name": "have",
          "type": "address"
        },
        {
          "internalType": "address",
          "name": "want",
          "type": "address"
        }
      ],
      "name": "OnlyCoordinatorCanFulfill",
      "type": "error"
    },
    {
      "inputs": [],
      "name": "RandomIpfsNft__AlreadyInitialized",
      "type": "error"
    },
    {
      "inputs": [],
      "name": "RandomIpfsNft__NeedMoreETHSent",
      "type": "error"
    },
    {
      "inputs": [],
      "name": "RandomIpfsNft__RangeOutOfBounds",
      "type": "error"
    },
    {
      "inputs": [],
      "name": "RandomIpfsNft__TransferFailed",
      "type": "error"
    },
    {
      "anonymous": false,
      "inputs": [
        {
          "indexed": true,
          "internalType": "address",
          "name": "owner",
          "type": "address"
        },
        {
          "indexed": true,
          "internalType": "address",
          "name": "approved",
          "type": "address"
        },
        {
          "indexed": true,
          "internalType": "uint256",
          "name": "tokenId",
          "type": "uint256"
        }
      ],
      "name": "Approval",
      "type": "event"
    },
    {
      "anonymous": false,
      "inputs": [
        {
          "indexed": true,
          "internalType": "address",
          "name": "owner",
          "type": "address"
        },
        {
          "indexed": true,
          "internalType": "address",
          "name": "operator",
          "type": "address"
        },
        {
          "indexed": false,
          "internalType": "bool",
          "name": "approved",
          "type": "bool"
        }
      ],
      "name": "ApprovalForAll",
      "type": "event"
    },
    {
      "anonymous": false,
      "inputs": [
        {
          "indexed": false,
          "internalType": "enum RandomIpfsNft.Breed",
          "name": "breed",
          "type": "uint8"
        },
        {
          "indexed": false,
          "internalType": "address",
          "name": "minter",
          "type": "address"
        }
      ],
      "name": "NftMinted",
      "type": "event"
    },
    {
      "anonymous": false,
      "inputs": [
        {
          "indexed": true,
          "internalType": "uint256",
          "name": "requestId",
          "type": "uint256"
        },
        {
          "indexed": false,
          "internalType": "address",
          "name": "requester",
          "type": "address"
        }
      ],
      "name": "NftRequested",
      "type": "event"
    },
    {
      "anonymous": false,
      "inputs": [
        {
          "indexed": true,
          "internalType": "address",
          "name": "previousOwner",
          "type": "address"
        },
        {
          "indexed": true,
          "internalType": "address",
          "name": "newOwner",
          "type": "address"
        }
      ],
      "name": "OwnershipTransferred",
      "type": "event"
    },
    {
      "anonymous": false,
      "inputs": [
        {
          "indexed": true,
          "internalType": "address",
          "name": "from",
          "type": "address"
        },
        {
          "indexed": true,
          "internalType": "address",
          "name": "to",
          "type": "address"
        },
        {
          "indexed": true,
          "internalType": "uint256",
          "name": "tokenId",
          "type": "uint256"
        }
      ],
      "name": "Transfer",
      "type": "event"
    },
    {
      "inputs": [
        {
          "internalType": "address",
          "name": "to",
          "type": "address"
        },
        {
          "internalType": "uint256",
          "name": "tokenId",
          "type": "uint256"
        }
      ],
      "name": "approve",
      "outputs": [],
      "stateMutability": "nonpayable",
      "type": "function"
    },
    {
      "inputs": [
        {
          "internalType": "address",
          "name": "owner",
          "type": "address"
        }
      ],
      "name": "balanceOf",
      "outputs": [
        {
          "internalType": "uint256",
          "name": "",
          "type": "uint256"
        }
      ],
      "stateMutability": "view",
      "type": "function"
    },
    {
      "inputs": [
        {
          "internalType": "uint256",
          "name": "tokenId",
          "type": "uint256"
        }
      ],
      "name": "getApproved",
      "outputs": [
        {
          "internalType": "address",
          "name": "",
          "type": "address"
        }
      ],
      "stateMutability": "view",
      "type": "function"
    },
    {
      "inputs": [
        {
          "internalType": "uint256",
          "name": "moddedRng",
          "type": "uint256"
        }
      ],
      "name": "getBreedFromModdedRng",
      "outputs": [
        {
          "internalType": "enum RandomIpfsNft.Breed",
          "name": "",
          "type": "uint8"
        }
      ],
      "stateMutability": "pure",
      "type": "function"
    },
    {
      "inputs": [],
      "name": "getChanceArray",
      "outputs": [
        {
          "internalType": "uint256[3]",
          "name": "",
          "type": "uint256[3]"
        }
      ],
      "stateMutability": "pure",
      "type": "function"
    },
    {
      "inputs": [
        {
          "internalType": "uint256",
          "name": "index",
          "type": "uint256"
        }
      ],
      "name": "getDogTokenUris",
      "outputs": [
        {
          "internalType": "string",
          "name": "",
          "type": "string"
        }
      ],
      "stateMutability": "view",
      "type": "function"
    },
    {
      "inputs": [],
      "name": "getInitialized",
      "outputs": [
        {
          "internalType": "bool",
          "name": "",
          "type": "bool"
        }
      ],
      "stateMutability": "view",
      "type": "function"
    },
    {
      "inputs": [],
      "name": "getMintFee",
      "outputs": [
        {
          "internalType": "uint256",
          "name": "",
          "type": "uint256"
        }
      ],
      "stateMutability": "view",
      "type": "function"
    },
    {
      "inputs": [],
      "name": "getTokenCounter",
      "outputs": [
        {
          "internalType": "uint256",
          "name": "",
          "type": "uint256"
        }
      ],
      "stateMutability": "view",
      "type": "function"
    },
    {
      "inputs": [
        {
          "internalType": "address",
          "name": "owner",
          "type": "address"
        },
        {
          "internalType": "address",
          "name": "operator",
          "type": "address"
        }
      ],
      "name": "isApprovedForAll",
      "outputs": [
        {
          "internalType": "bool",
          "name": "",
          "type": "bool"
        }
      ],
      "stateMutability": "view",
      "type": "function"
    },
    {
      "inputs": [],
      "name": "name",
      "outputs": [
        {
          "internalType": "string",
          "name": "",
          "type": "string"
        }
      ],
      "stateMutability": "view",
      "type": "function"
    },
    {
      "inputs": [],
      "name": "owner",
      "outputs": [
        {
          "internalType": "address",
          "name": "",
          "type": "address"
        }
      ],
      "stateMutability": "view",
      "type": "function"
    },
    {
      "inputs": [
        {
          "internalType": "uint256",
          "name": "tokenId",
          "type": "uint256"
        }
      ],
      "name": "ownerOf",
      "outputs": [
        {
          "internalType": "address",
          "name": "",
          "type": "address"
        }
      ],
      "stateMutability": "view",
      "type": "function"
    },
    {
      "inputs": [
        {
          "internalType": "uint256",
          "name": "requestId",
          "type": "uint256"
        },
        {
          "internalType": "uint256[]",
          "name": "randomWords",
          "type": "uint256[]"
        }
      ],
      "name": "rawFulfillRandomWords",
      "outputs": [],
      "stateMutability": "nonpayable",
      "type": "function"
    },
    {
      "inputs": [],
      "name": "renounceOwnership",
      "outputs": [],
      "stateMutability": "nonpayable",
      "type": "function"
    },
    {
      "inputs": [],
      "name": "requestNft",
      "outputs": [
        {
          "internalType": "uint256",
          "name": "requestId",
          "type": "uint256"
        }
      ],
      "stateMutability": "payable",
      "type": "function"
    },
    {
      "inputs": [
        {
          "internalType": "uint256",
          "name": "",
          "type": "uint256"
        }
      ],
      "name": "s_requestIdToSender",
      "outputs": [
        {
          "internalType": "address",
          "name": "",
          "type": "address"
        }
      ],
      "stateMutability": "view",
      "type": "function"
    },
    {
      "inputs": [
        {
          "internalType": "address",
          "name": "from",
          "type": "address"
        },
        {
          "internalType": "address",
          "name": "to",
          "type": "address"
        },
        {
          "internalType": "uint256",
          "name": "tokenId",
          "type": "uint256"
        }
      ],
      "name": "safeTransferFrom",
      "outputs": [],
      "stateMutability": "nonpayable",
      "type": "function"
    },
    {
      "inputs": [
        {
          "internalType": "address",
          "name": "from",
          "type": "address"
        },
        {
          "internalType": "address",
          "name": "to",
          "type": "address"
        },
        {
          "internalType": "uint256",
          "name": "tokenId",
          "type": "uint256"
        },
        {
          "internalType": "bytes",
          "name": "data",
          "type": "bytes"
        }
      ],
      "name": "safeTransferFrom",
      "outputs": [],
      "stateMutability": "nonpayable",
      "type": "function"
    },
    {
      "inputs": [
        {
          "internalType": "address",
          "name": "operator",
          "type": "address"
        },
        {
          "internalType": "bool",
          "name": "approved",
          "type": "bool"
        }
      ],
      "name": "setApprovalForAll",
      "outputs": [],
      "stateMutability": "nonpayable",
      "type": "function"
    },
    {
      "inputs": [
        {
          "internalType": "bytes4",
          "name": "interfaceId",
          "type": "bytes4"
        }
      ],
      "name": "supportsInterface",
      "outputs": [
        {
          "internalType": "bool",
          "name": "",
          "type": "bool"
        }
      ],
      "stateMutability": "view",
      "type": "function"
    },
    {
      "inputs": [],
      "name": "symbol",
      "outputs": [
        {
          "internalType": "string",
          "name": "",
          "type": "string"
        }
      ],
      "stateMutability": "view",
      "type": "function"
    },
    {
      "inputs": [
        {
          "internalType": "uint256",
          "name": "tokenId",
          "type": "uint256"
        }
      ],
      "name": "tokenURI",
      "outputs": [
        {
          "internalType": "string",
          "name": "",
          "type": "string"
        }
      ],
      "stateMutability": "view",
      "type": "function"
    },
    {
      "inputs": [
        {
          "internalType": "address",
          "name": "from",
          "type": "address"
        },
        {
          "internalType": "address",
          "name": "to",
          "type": "address"
        },
        {
          "internalType": "uint256",
          "name": "tokenId",
          "type": "uint256"
        }
      ],
      "name": "transferFrom",
      "outputs": [],
      "stateMutability": "nonpayable",
      "type": "function"
    },
    {
      "inputs": [
        {
          "internalType": "address",
          "name": "newOwner",
          "type": "address"
        }
      ],
      "name": "transferOwnership",
      "outputs": [],
      "stateMutability": "nonpayable",
      "type": "function"
    },
    {
      "inputs": [],
      "name": "withdraw",
      "outputs": [],
      "stateMutability": "nonpayable",
      "type": "function"
    }
  ],
  "transactionHash": "0x86708344b05ad50efd425a84e7bd6e8280bb3ec00fa035577b2c0bd6bde8e7d8",
  "args": [
    "0x8103B0A8A00be2DDC778e6e7eaa21791Cd364625",
    "970",
    "0x474e34a077df58807dbe9c96d3c009b23b3c6d0cce433e59bbf5b34f823bc56c",
    "10000000000000",
    "2500000",
    [
      "ipfs://QmaVkBn2tKmjbhphU7eyztbvSQU5EXDdqRyXZtRhSGgJGo",
      "ipfs://QmYQC5aGZu2PTH8XzbJrbDnvhj3gVs7ya33H9mqUNvST3d",
      "ipfs://QmZYmH5iDbD6v3U2ixoVAjioSzvWJszDzYdbeCLquGSpVm"
    ]
  ],
  "numDeployments": 1,
  "solcInputHash": "36bef9e7175a6dbb19a4c94ee06e20ff",
  "bytecode": "0x6101406040523480156200001257600080fd5b5060405162004826380380620048268339818101604052810190620000389190620007ce565b856040518060400160405280600f81526020017f52616e646f6d2049504653204e465400000000000000000000000000000000008152506040518060400160405280600381526020017f52494e00000000000000000000000000000000000000000000000000000000008152508160009081620000b6919062000aca565b508060019081620000c8919062000aca565b5050508073ffffffffffffffffffffffffffffffffffffffff1660808173ffffffffffffffffffffffffffffffffffffffff1681525050506200012062000114620001bb60201b60201c565b620001c360201b60201c565b8573ffffffffffffffffffffffffffffffffffffffff1660a08173ffffffffffffffffffffffffffffffffffffffff16815250508360e081815250508467ffffffffffffffff1660c08167ffffffffffffffff16815250508261012081815250508163ffffffff166101008163ffffffff1681525050620001a7816200028960201b60201c565b600060088190555050505050505062000bb1565b600033905090565b6000600760009054906101000a900473ffffffffffffffffffffffffffffffffffffffff16905081600760006101000a81548173ffffffffffffffffffffffffffffffffffffffff021916908373ffffffffffffffffffffffffffffffffffffffff1602179055508173ffffffffffffffffffffffffffffffffffffffff168173ffffffffffffffffffffffffffffffffffffffff167f8be0079c531659141344cd1fd0a4f28419497f9722a3daafe3b4186f6b6457e060405160405180910390a35050565b600a60009054906101000a900460ff1615620002d1576040517fddf8bf7000000000000000000000000000000000000000000000000000000000815260040160405180910390fd5b806009906003620002e492919062000303565b506001600a60006101000a81548160ff02191690831515021790555050565b82805482825590600052602060002090810192821562000350579160200282015b828111156200034f5782518290816200033e919062000aca565b509160200191906001019062000324565b5b5090506200035f919062000363565b5090565b5b808211156200038757600081816200037d91906200038b565b5060010162000364565b5090565b5080546200039990620008c3565b6000825580601f10620003ad5750620003ce565b601f016020900490600052602060002090810190620003cd9190620003d1565b5b50565b5b80821115620003ec576000816000905550600101620003d2565b5090565b6000604051905090565b600080fd5b600080fd5b600073ffffffffffffffffffffffffffffffffffffffff82169050919050565b6000620004318262000404565b9050919050565b620004438162000424565b81146200044f57600080fd5b50565b600081519050620004638162000438565b92915050565b600067ffffffffffffffff82169050919050565b620004888162000469565b81146200049457600080fd5b50565b600081519050620004a8816200047d565b92915050565b6000819050919050565b620004c381620004ae565b8114620004cf57600080fd5b50565b600081519050620004e381620004b8565b92915050565b6000819050919050565b620004fe81620004e9565b81146200050a57600080fd5b50565b6000815190506200051e81620004f3565b92915050565b600063ffffffff82169050919050565b6200053f8162000524565b81146200054b57600080fd5b50565b6000815190506200055f8162000534565b92915050565b600080fd5b6000601f19601f8301169050919050565b7f4e487b7100000000000000000000000000000000000000000000000000000000600052604160045260246000fd5b620005b5826200056a565b810181811067ffffffffffffffff82111715620005d757620005d66200057b565b5b80604052505050565b6000620005ec620003f0565b9050620005fa8282620005aa565b919050565b600067ffffffffffffffff8211156200061d576200061c6200057b565b5b602082029050919050565b600080fd5b600080fd5b600067ffffffffffffffff82111562000650576200064f6200057b565b5b6200065b826200056a565b9050602081019050919050565b60005b83811015620006885780820151818401526020810190506200066b565b60008484015250505050565b6000620006ab620006a58462000632565b620005e0565b905082815260208101848484011115620006ca57620006c96200062d565b5b620006d784828562000668565b509392505050565b600082601f830112620006f757620006f662000565565b5b81516200070984826020860162000694565b91505092915050565b6000620007296200072384620005ff565b620005e0565b9050806020840283018581111562000746576200074562000628565b5b835b818110156200079457805167ffffffffffffffff8111156200076f576200076e62000565565b5b8086016200077e8982620006df565b8552602085019450505060208101905062000748565b5050509392505050565b600082601f830112620007b657620007b562000565565b5b6003620007c584828562000712565b91505092915050565b60008060008060008060c08789031215620007ee57620007ed620003fa565b5b6000620007fe89828a0162000452565b96505060206200081189828a0162000497565b95505060406200082489828a01620004d2565b94505060606200083789828a016200050d565b93505060806200084a89828a016200054e565b92505060a087015167ffffffffffffffff8111156200086e576200086d620003ff565b5b6200087c89828a016200079e565b9150509295509295509295565b600081519050919050565b7f4e487b7100000000000000000000000000000000000000000000000000000000600052602260045260246000fd5b60006002820490506001821680620008dc57607f821691505b602082108103620008f257620008f162000894565b5b50919050565b60008190508160005260206000209050919050565b60006020601f8301049050919050565b600082821b905092915050565b6000600883026200095c7fffffffffffffffffffffffffffffffffffffffffffffffffffffffffffffffff826200091d565b6200096886836200091d565b95508019841693508086168417925050509392505050565b6000819050919050565b6000620009ab620009a56200099f84620004e9565b62000980565b620004e9565b9050919050565b6000819050919050565b620009c7836200098a565b620009df620009d682620009b2565b8484546200092a565b825550505050565b600090565b620009f6620009e7565b62000a03818484620009bc565b505050565b5b8181101562000a2b5762000a1f600082620009ec565b60018101905062000a09565b5050565b601f82111562000a7a5762000a4481620008f8565b62000a4f846200090d565b8101602085101562000a5f578190505b62000a7762000a6e856200090d565b83018262000a08565b50505b505050565b600082821c905092915050565b600062000a9f6000198460080262000a7f565b1980831691505092915050565b600062000aba838362000a8c565b9150826002028217905092915050565b62000ad58262000889565b67ffffffffffffffff81111562000af15762000af06200057b565b5b62000afd8254620008c3565b62000b0a82828562000a2f565b600060209050601f83116001811462000b42576000841562000b2d578287015190505b62000b39858262000aac565b86555062000ba9565b601f19841662000b5286620008f8565b60005b8281101562000b7c5784890151825560018201915060208501945060208101905062000b55565b8683101562000b9c578489015162000b98601f89168262000a8c565b8355505b6001600288020188555050505b505050505050565b60805160a05160c05160e0516101005161012051613c1762000c0f60003960008181610d420152610f3b0152600061101501526000610fd101526000610ff201526000610f95015260008181610916015261096a0152613c176000f3fe6080604052600436106101815760003560e01c8063715018a6116100d1578063a51cccf31161008a578063c87b56dd11610064578063c87b56dd14610575578063e985e9c5146105b2578063ee89dab4146105ef578063f2fde38b1461061a57610181565b8063a51cccf3146104f1578063aa1524911461052e578063b88d4fde1461054c57610181565b8063715018a6146103f35780637a5caab31461040a5780638da5cb5b1461043557806395d89b4114610460578063a22cb4651461048b578063a36f573b146104b457610181565b80633af259751161013e5780635dacf5f4116101185780635dacf5f4146103235780636352211e1461034e5780636e02007d1461038b57806370a08231146103b657610181565b80633af25975146102a65780633ccfd60b146102e357806342842e0e146102fa57610181565b806301ffc9a71461018657806306fdde03146101c3578063081812fc146101ee578063095ea7b31461022b5780631fe543e31461025457806323b872dd1461027d575b600080fd5b34801561019257600080fd5b506101ad60048036038101906101a891906125d9565b610643565b6040516101ba9190612621565b60405180910390f35b3480156101cf57600080fd5b506101d8610725565b6040516101e591906126cc565b60405180910390f35b3480156101fa57600080fd5b5061021560048036038101906102109190612724565b6107b7565b6040516102229190612792565b60405180910390f35b34801561023757600080fd5b50610252600480360381019061024d91906127d9565b6107fd565b005b34801561026057600080fd5b5061027b60048036038101906102769190612961565b610914565b005b34801561028957600080fd5b506102a4600480360381019061029f91906129bd565b6109d4565b005b3480156102b257600080fd5b506102cd60048036038101906102c89190612724565b610a34565b6040516102da91906126cc565b60405180910390f35b3480156102ef57600080fd5b506102f8610ae4565b005b34801561030657600080fd5b50610321600480360381019061031c91906129bd565b610b98565b005b34801561032f57600080fd5b50610338610bb8565b6040516103459190612abb565b60405180910390f35b34801561035a57600080fd5b5061037560048036038101906103709190612724565b610be3565b6040516103829190612792565b60405180910390f35b34801561039757600080fd5b506103a0610c69565b6040516103ad9190612ae5565b60405180910390f35b3480156103c257600080fd5b506103dd60048036038101906103d89190612b00565b610c73565b6040516103ea9190612ae5565b60405180910390f35b3480156103ff57600080fd5b50610408610d2a565b005b34801561041657600080fd5b5061041f610d3e565b60405161042c9190612ae5565b60405180910390f35b34801561044157600080fd5b5061044a610d66565b6040516104579190612792565b60405180910390f35b34801561046c57600080fd5b50610475610d90565b60405161048291906126cc565b60405180910390f35b34801561049757600080fd5b506104b260048036038101906104ad9190612b59565b610e22565b005b3480156104c057600080fd5b506104db60048036038101906104d69190612724565b610e38565b6040516104e89190612792565b60405180910390f35b3480156104fd57600080fd5b5061051860048036038101906105139190612724565b610e6b565b6040516105259190612c10565b60405180910390f35b610536610f37565b6040516105439190612ae5565b60405180910390f35b34801561055857600080fd5b50610573600480360381019061056e9190612ce0565b611128565b005b34801561058157600080fd5b5061059c60048036038101906105979190612724565b61118a565b6040516105a991906126cc565b60405180910390f35b3480156105be57600080fd5b506105d960048036038101906105d49190612d63565b61129c565b6040516105e69190612621565b60405180910390f35b3480156105fb57600080fd5b50610604611330565b6040516106119190612621565b60405180910390f35b34801561062657600080fd5b50610641600480360381019061063c9190612b00565b611347565b005b60007f80ac58cd000000000000000000000000000000000000000000000000000000007bffffffffffffffffffffffffffffffffffffffffffffffffffffffff1916827bffffffffffffffffffffffffffffffffffffffffffffffffffffffff1916148061070e57507f5b5e139f000000000000000000000000000000000000000000000000000000007bffffffffffffffffffffffffffffffffffffffffffffffffffffffff1916827bffffffffffffffffffffffffffffffffffffffffffffffffffffffff1916145b8061071e575061071d826113ca565b5b9050919050565b60606000805461073490612dd2565b80601f016020809104026020016040519081016040528092919081815260200182805461076090612dd2565b80156107ad5780601f10610782576101008083540402835291602001916107ad565b820191906000526020600020905b81548152906001019060200180831161079057829003601f168201915b5050505050905090565b60006107c282611434565b6004600083815260200190815260200160002060009054906101000a900473ffffffffffffffffffffffffffffffffffffffff169050919050565b600061080882610be3565b90508073ffffffffffffffffffffffffffffffffffffffff168373ffffffffffffffffffffffffffffffffffffffff1603610878576040517f08c379a000000000000000000000000000000000000000000000000000000000815260040161086f90612e75565b60405180910390fd5b8073ffffffffffffffffffffffffffffffffffffffff1661089761147f565b73ffffffffffffffffffffffffffffffffffffffff1614806108c657506108c5816108c061147f565b61129c565b5b610905576040517f08c379a00000000000000000000000000000000000000000000000000000000081526004016108fc90612f07565b60405180910390fd5b61090f8383611487565b505050565b7f000000000000000000000000000000000000000000000000000000000000000073ffffffffffffffffffffffffffffffffffffffff163373ffffffffffffffffffffffffffffffffffffffff16146109c657337f00000000000000000000000000000000000000000000000000000000000000006040517f1cf993f40000000000000000000000000000000000000000000000000000000081526004016109bd929190612f27565b60405180910390fd5b6109d08282611540565b5050565b6109e56109df61147f565b826116da565b610a24576040517f08c379a0000000000000000000000000000000000000000000000000000000008152600401610a1b90612fc2565b60405180910390fd5b610a2f83838361176f565b505050565b606060098281548110610a4a57610a49612fe2565b5b906000526020600020018054610a5f90612dd2565b80601f0160208091040260200160405190810160405280929190818152602001828054610a8b90612dd2565b8015610ad85780601f10610aad57610100808354040283529160200191610ad8565b820191906000526020600020905b815481529060010190602001808311610abb57829003601f168201915b50505050509050919050565b610aec611a68565b600047905060003373ffffffffffffffffffffffffffffffffffffffff1682604051610b1790613042565b60006040518083038185875af1925050503d8060008114610b54576040519150601f19603f3d011682016040523d82523d6000602084013e610b59565b606091505b5050905080610b94576040517fca7e25b700000000000000000000000000000000000000000000000000000000815260040160405180910390fd5b5050565b610bb383838360405180602001604052806000815250611128565b505050565b610bc061254b565b6040518060600160405280600a8152602001602881526020016064815250905090565b600080610bef83611ae6565b9050600073ffffffffffffffffffffffffffffffffffffffff168173ffffffffffffffffffffffffffffffffffffffff1603610c60576040517f08c379a0000000000000000000000000000000000000000000000000000000008152600401610c57906130a3565b60405180910390fd5b80915050919050565b6000600854905090565b60008073ffffffffffffffffffffffffffffffffffffffff168273ffffffffffffffffffffffffffffffffffffffff1603610ce3576040517f08c379a0000000000000000000000000000000000000000000000000000000008152600401610cda90613135565b60405180910390fd5b600360008373ffffffffffffffffffffffffffffffffffffffff1673ffffffffffffffffffffffffffffffffffffffff168152602001908152602001600020549050919050565b610d32611a68565b610d3c6000611b23565b565b60007f0000000000000000000000000000000000000000000000000000000000000000905090565b6000600760009054906101000a900473ffffffffffffffffffffffffffffffffffffffff16905090565b606060018054610d9f90612dd2565b80601f0160208091040260200160405190810160405280929190818152602001828054610dcb90612dd2565b8015610e185780601f10610ded57610100808354040283529160200191610e18565b820191906000526020600020905b815481529060010190602001808311610dfb57829003601f168201915b5050505050905090565b610e34610e2d61147f565b8383611be9565b5050565b600b6020528060005260406000206000915054906101000a900473ffffffffffffffffffffffffffffffffffffffff1681565b600080600090506000610e7c610bb8565b905060005b6003811015610eff57828510158015610eb05750818160038110610ea857610ea7612fe2565b5b602002015185105b15610ed257806002811115610ec857610ec7612b99565b5b9350505050610f32565b818160038110610ee557610ee4612fe2565b5b602002015192508080610ef790613184565b915050610e81565b506040517f12806c9d00000000000000000000000000000000000000000000000000000000815260040160405180910390fd5b919050565b60007f0000000000000000000000000000000000000000000000000000000000000000341015610f93576040517fb90f491000000000000000000000000000000000000000000000000000000000815260040160405180910390fd5b7f000000000000000000000000000000000000000000000000000000000000000073ffffffffffffffffffffffffffffffffffffffff16635d3b1d307f00000000000000000000000000000000000000000000000000000000000000007f000000000000000000000000000000000000000000000000000000000000000060037f000000000000000000000000000000000000000000000000000000000000000060016040518663ffffffff1660e01b8152600401611056959493929190613244565b6020604051808303816000875af1158015611075573d6000803e3d6000fd5b505050506040513d601f19601f8201168201806040525081019061109991906132ac565b905033600b600083815260200190815260200160002060006101000a81548173ffffffffffffffffffffffffffffffffffffffff021916908373ffffffffffffffffffffffffffffffffffffffff160217905550807ff873236e6cc0ecc5be1a9a35c95ee5b8d1ac4cc7bfef0cc5060391d6cc98e26b3360405161111d9190612792565b60405180910390a290565b61113961113361147f565b836116da565b611178576040517f08c379a000000000000000000000000000000000000000000000000000000000815260040161116f90612fc2565b60405180910390fd5b61118484848484611d55565b50505050565b606061119582611434565b60006006600084815260200190815260200160002080546111b590612dd2565b80601f01602080910402602001604051908101604052809291908181526020018280546111e190612dd2565b801561122e5780601f106112035761010080835404028352916020019161122e565b820191906000526020600020905b81548152906001019060200180831161121157829003601f168201915b50505050509050600061123f611db1565b90506000815103611254578192505050611297565b600082511115611289578082604051602001611271929190613315565b60405160208183030381529060405292505050611297565b61129284611dc8565b925050505b919050565b6000600560008473ffffffffffffffffffffffffffffffffffffffff1673ffffffffffffffffffffffffffffffffffffffff16815260200190815260200160002060008373ffffffffffffffffffffffffffffffffffffffff1673ffffffffffffffffffffffffffffffffffffffff16815260200190815260200160002060009054906101000a900460ff16905092915050565b6000600a60009054906101000a900460ff16905090565b61134f611a68565b600073ffffffffffffffffffffffffffffffffffffffff168173ffffffffffffffffffffffffffffffffffffffff16036113be576040517f08c379a00000000000000000000000000000000000000000000000000000000081526004016113b5906133ab565b60405180910390fd5b6113c781611b23565b50565b60007f01ffc9a7000000000000000000000000000000000000000000000000000000007bffffffffffffffffffffffffffffffffffffffffffffffffffffffff1916827bffffffffffffffffffffffffffffffffffffffffffffffffffffffff1916149050919050565b61143d81611e30565b61147c576040517f08c379a0000000000000000000000000000000000000000000000000000000008152600401611473906130a3565b60405180910390fd5b50565b600033905090565b816004600083815260200190815260200160002060006101000a81548173ffffffffffffffffffffffffffffffffffffffff021916908373ffffffffffffffffffffffffffffffffffffffff160217905550808273ffffffffffffffffffffffffffffffffffffffff166114fa83610be3565b73ffffffffffffffffffffffffffffffffffffffff167f8c5be1e5ebec7d5bd14f71427d1e84f3dd0314c0f7b2291e5b200ac8c7c3b92560405160405180910390a45050565b6000600b600084815260200190815260200160002060009054906101000a900473ffffffffffffffffffffffffffffffffffffffff16905060006008549050600160085461158e91906133cb565b60088190555060006064846000815181106115ac576115ab612fe2565b5b60200260200101516115be919061342e565b905060006115cb82610e6b565b90506115d78484611e71565b6116998360098360028111156115f0576115ef612b99565b5b8154811061160157611600612fe2565b5b90600052602060002001805461161690612dd2565b80601f016020809104026020016040519081016040528092919081815260200182805461164290612dd2565b801561168f5780601f106116645761010080835404028352916020019161168f565b820191906000526020600020905b81548152906001019060200180831161167257829003601f168201915b5050505050611e8f565b7f8a269f26b688e110e9cbd887d163dab35cae678fa353a0292de532c0cac1ecdc81856040516116ca92919061345f565b60405180910390a1505050505050565b6000806116e683610be3565b90508073ffffffffffffffffffffffffffffffffffffffff168473ffffffffffffffffffffffffffffffffffffffff1614806117285750611727818561129c565b5b8061176657508373ffffffffffffffffffffffffffffffffffffffff1661174e846107b7565b73ffffffffffffffffffffffffffffffffffffffff16145b91505092915050565b8273ffffffffffffffffffffffffffffffffffffffff1661178f82610be3565b73ffffffffffffffffffffffffffffffffffffffff16146117e5576040517f08c379a00000000000000000000000000000000000000000000000000000000081526004016117dc906134fa565b60405180910390fd5b600073ffffffffffffffffffffffffffffffffffffffff168273ffffffffffffffffffffffffffffffffffffffff1603611854576040517f08c379a000000000000000000000000000000000000000000000000000000000815260040161184b9061358c565b60405180910390fd5b6118618383836001611efc565b8273ffffffffffffffffffffffffffffffffffffffff1661188182610be3565b73ffffffffffffffffffffffffffffffffffffffff16146118d7576040517f08c379a00000000000000000000000000000000000000000000000000000000081526004016118ce906134fa565b60405180910390fd5b6004600082815260200190815260200160002060006101000a81549073ffffffffffffffffffffffffffffffffffffffff02191690556001600360008573ffffffffffffffffffffffffffffffffffffffff1673ffffffffffffffffffffffffffffffffffffffff168152602001908152602001600020600082825403925050819055506001600360008473ffffffffffffffffffffffffffffffffffffffff1673ffffffffffffffffffffffffffffffffffffffff16815260200190815260200160002060008282540192505081905550816002600083815260200190815260200160002060006101000a81548173ffffffffffffffffffffffffffffffffffffffff021916908373ffffffffffffffffffffffffffffffffffffffff160217905550808273ffffffffffffffffffffffffffffffffffffffff168473ffffffffffffffffffffffffffffffffffffffff167fddf252ad1be2c89b69c2b068fc378daa952ba7f163c4a11628f55a4df523b3ef60405160405180910390a4611a638383836001611f02565b505050565b611a7061147f565b73ffffffffffffffffffffffffffffffffffffffff16611a8e610d66565b73ffffffffffffffffffffffffffffffffffffffff1614611ae4576040517f08c379a0000000000000000000000000000000000000000000000000000000008152600401611adb906135f8565b60405180910390fd5b565b60006002600083815260200190815260200160002060009054906101000a900473ffffffffffffffffffffffffffffffffffffffff169050919050565b6000600760009054906101000a900473ffffffffffffffffffffffffffffffffffffffff16905081600760006101000a81548173ffffffffffffffffffffffffffffffffffffffff021916908373ffffffffffffffffffffffffffffffffffffffff1602179055508173ffffffffffffffffffffffffffffffffffffffff168173ffffffffffffffffffffffffffffffffffffffff167f8be0079c531659141344cd1fd0a4f28419497f9722a3daafe3b4186f6b6457e060405160405180910390a35050565b8173ffffffffffffffffffffffffffffffffffffffff168373ffffffffffffffffffffffffffffffffffffffff1603611c57576040517f08c379a0000000000000000000000000000000000000000000000000000000008152600401611c4e90613664565b60405180910390fd5b80600560008573ffffffffffffffffffffffffffffffffffffffff1673ffffffffffffffffffffffffffffffffffffffff16815260200190815260200160002060008473ffffffffffffffffffffffffffffffffffffffff1673ffffffffffffffffffffffffffffffffffffffff16815260200190815260200160002060006101000a81548160ff0219169083151502179055508173ffffffffffffffffffffffffffffffffffffffff168373ffffffffffffffffffffffffffffffffffffffff167f17307eab39ab6107e8899845ad3d59bd9653f200f220920489ca2b5937696c3183604051611d489190612621565b60405180910390a3505050565b611d6084848461176f565b611d6c84848484611f08565b611dab576040517f08c379a0000000000000000000000000000000000000000000000000000000008152600401611da2906136f6565b60405180910390fd5b50505050565b606060405180602001604052806000815250905090565b6060611dd382611434565b6000611ddd611db1565b90506000815111611dfd5760405180602001604052806000815250611e28565b80611e078461208f565b604051602001611e18929190613315565b6040516020818303038152906040525b915050919050565b60008073ffffffffffffffffffffffffffffffffffffffff16611e5283611ae6565b73ffffffffffffffffffffffffffffffffffffffff1614159050919050565b611e8b82826040518060200160405280600081525061215d565b5050565b611e9882611e30565b611ed7576040517f08c379a0000000000000000000000000000000000000000000000000000000008152600401611ece90613788565b60405180910390fd5b80600660008481526020019081526020016000209081611ef79190613954565b505050565b50505050565b50505050565b6000611f298473ffffffffffffffffffffffffffffffffffffffff166121b8565b15612082578373ffffffffffffffffffffffffffffffffffffffff1663150b7a02611f5261147f565b8786866040518563ffffffff1660e01b8152600401611f749493929190613a7b565b6020604051808303816000875af1925050508015611fb057506040513d601f19601f82011682018060405250810190611fad9190613adc565b60015b612032573d8060008114611fe0576040519150601f19603f3d011682016040523d82523d6000602084013e611fe5565b606091505b50600081510361202a576040517f08c379a0000000000000000000000000000000000000000000000000000000008152600401612021906136f6565b60405180910390fd5b805181602001fd5b63150b7a0260e01b7bffffffffffffffffffffffffffffffffffffffffffffffffffffffff1916817bffffffffffffffffffffffffffffffffffffffffffffffffffffffff191614915050612087565b600190505b949350505050565b60606000600161209e846121db565b01905060008167ffffffffffffffff8111156120bd576120bc61281e565b5b6040519080825280601f01601f1916602001820160405280156120ef5781602001600182028036833780820191505090505b509050600082602001820190505b600115612152578080600190039150507f3031323334353637383961626364656600000000000000000000000000000000600a86061a8153600a8581612146576121456133ff565b5b049450600085036120fd575b819350505050919050565b612167838361232e565b6121746000848484611f08565b6121b3576040517f08c379a00000000000000000000000000000000000000000000000000000000081526004016121aa906136f6565b60405180910390fd5b505050565b6000808273ffffffffffffffffffffffffffffffffffffffff163b119050919050565b600080600090507a184f03e93ff9f4daa797ed6e38ed64bf6a1f0100000000000000008310612239577a184f03e93ff9f4daa797ed6e38ed64bf6a1f010000000000000000838161222f5761222e6133ff565b5b0492506040810190505b6d04ee2d6d415b85acef81000000008310612276576d04ee2d6d415b85acef8100000000838161226c5761226b6133ff565b5b0492506020810190505b662386f26fc1000083106122a557662386f26fc10000838161229b5761229a6133ff565b5b0492506010810190505b6305f5e10083106122ce576305f5e10083816122c4576122c36133ff565b5b0492506008810190505b61271083106122f35761271083816122e9576122e86133ff565b5b0492506004810190505b60648310612316576064838161230c5761230b6133ff565b5b0492506002810190505b600a8310612325576001810190505b80915050919050565b600073ffffffffffffffffffffffffffffffffffffffff168273ffffffffffffffffffffffffffffffffffffffff160361239d576040517f08c379a000000000000000000000000000000000000000000000000000000000815260040161239490613b55565b60405180910390fd5b6123a681611e30565b156123e6576040517f08c379a00000000000000000000000000000000000000000000000000000000081526004016123dd90613bc1565b60405180910390fd5b6123f4600083836001611efc565b6123fd81611e30565b1561243d576040517f08c379a000000000000000000000000000000000000000000000000000000000815260040161243490613bc1565b60405180910390fd5b6001600360008473ffffffffffffffffffffffffffffffffffffffff1673ffffffffffffffffffffffffffffffffffffffff16815260200190815260200160002060008282540192505081905550816002600083815260200190815260200160002060006101000a81548173ffffffffffffffffffffffffffffffffffffffff021916908373ffffffffffffffffffffffffffffffffffffffff160217905550808273ffffffffffffffffffffffffffffffffffffffff16600073ffffffffffffffffffffffffffffffffffffffff167fddf252ad1be2c89b69c2b068fc378daa952ba7f163c4a11628f55a4df523b3ef60405160405180910390a4612547600083836001611f02565b5050565b6040518060600160405280600390602082028036833780820191505090505090565b6000604051905090565b600080fd5b600080fd5b60007fffffffff0000000000000000000000000000000000000000000000000000000082169050919050565b6125b681612581565b81146125c157600080fd5b50565b6000813590506125d3816125ad565b92915050565b6000602082840312156125ef576125ee612577565b5b60006125fd848285016125c4565b91505092915050565b60008115159050919050565b61261b81612606565b82525050565b60006020820190506126366000830184612612565b92915050565b600081519050919050565b600082825260208201905092915050565b60005b8381101561267657808201518184015260208101905061265b565b60008484015250505050565b6000601f19601f8301169050919050565b600061269e8261263c565b6126a88185612647565b93506126b8818560208601612658565b6126c181612682565b840191505092915050565b600060208201905081810360008301526126e68184612693565b905092915050565b6000819050919050565b612701816126ee565b811461270c57600080fd5b50565b60008135905061271e816126f8565b92915050565b60006020828403121561273a57612739612577565b5b60006127488482850161270f565b91505092915050565b600073ffffffffffffffffffffffffffffffffffffffff82169050919050565b600061277c82612751565b9050919050565b61278c81612771565b82525050565b60006020820190506127a76000830184612783565b92915050565b6127b681612771565b81146127c157600080fd5b50565b6000813590506127d3816127ad565b92915050565b600080604083850312156127f0576127ef612577565b5b60006127fe858286016127c4565b925050602061280f8582860161270f565b9150509250929050565b600080fd5b7f4e487b7100000000000000000000000000000000000000000000000000000000600052604160045260246000fd5b61285682612682565b810181811067ffffffffffffffff821117156128755761287461281e565b5b80604052505050565b600061288861256d565b9050612894828261284d565b919050565b600067ffffffffffffffff8211156128b4576128b361281e565b5b602082029050602081019050919050565b600080fd5b60006128dd6128d884612899565b61287e565b90508083825260208201905060208402830185811115612900576128ff6128c5565b5b835b818110156129295780612915888261270f565b845260208401935050602081019050612902565b5050509392505050565b600082601f83011261294857612947612819565b5b81356129588482602086016128ca565b91505092915050565b6000806040838503121561297857612977612577565b5b60006129868582860161270f565b925050602083013567ffffffffffffffff8111156129a7576129a661257c565b5b6129b385828601612933565b9150509250929050565b6000806000606084860312156129d6576129d5612577565b5b60006129e4868287016127c4565b93505060206129f5868287016127c4565b9250506040612a068682870161270f565b9150509250925092565b600060039050919050565b600081905092915050565b6000819050919050565b612a39816126ee565b82525050565b6000612a4b8383612a30565b60208301905092915050565b6000602082019050919050565b612a6d81612a10565b612a778184612a1b565b9250612a8282612a26565b8060005b83811015612ab3578151612a9a8782612a3f565b9650612aa583612a57565b925050600181019050612a86565b505050505050565b6000606082019050612ad06000830184612a64565b92915050565b612adf816126ee565b82525050565b6000602082019050612afa6000830184612ad6565b92915050565b600060208284031215612b1657612b15612577565b5b6000612b24848285016127c4565b91505092915050565b612b3681612606565b8114612b4157600080fd5b50565b600081359050612b5381612b2d565b92915050565b60008060408385031215612b7057612b6f612577565b5b6000612b7e858286016127c4565b9250506020612b8f85828601612b44565b9150509250929050565b7f4e487b7100000000000000000000000000000000000000000000000000000000600052602160045260246000fd5b60038110612bd957612bd8612b99565b5b50565b6000819050612bea82612bc8565b919050565b6000612bfa82612bdc565b9050919050565b612c0a81612bef565b82525050565b6000602082019050612c256000830184612c01565b92915050565b600080fd5b600067ffffffffffffffff821115612c4b57612c4a61281e565b5b612c5482612682565b9050602081019050919050565b82818337600083830152505050565b6000612c83612c7e84612c30565b61287e565b905082815260208101848484011115612c9f57612c9e612c2b565b5b612caa848285612c61565b509392505050565b600082601f830112612cc757612cc6612819565b5b8135612cd7848260208601612c70565b91505092915050565b60008060008060808587031215612cfa57612cf9612577565b5b6000612d08878288016127c4565b9450506020612d19878288016127c4565b9350506040612d2a8782880161270f565b925050606085013567ffffffffffffffff811115612d4b57612d4a61257c565b5b612d5787828801612cb2565b91505092959194509250565b60008060408385031215612d7a57612d79612577565b5b6000612d88858286016127c4565b9250506020612d99858286016127c4565b9150509250929050565b7f4e487b7100000000000000000000000000000000000000000000000000000000600052602260045260246000fd5b60006002820490506001821680612dea57607f821691505b602082108103612dfd57612dfc612da3565b5b50919050565b7f4552433732313a20617070726f76616c20746f2063757272656e74206f776e6560008201527f7200000000000000000000000000000000000000000000000000000000000000602082015250565b6000612e5f602183612647565b9150612e6a82612e03565b604082019050919050565b60006020820190508181036000830152612e8e81612e52565b9050919050565b7f4552433732313a20617070726f76652063616c6c6572206973206e6f7420746f60008201527f6b656e206f776e6572206f7220617070726f76656420666f7220616c6c000000602082015250565b6000612ef1603d83612647565b9150612efc82612e95565b604082019050919050565b60006020820190508181036000830152612f2081612ee4565b9050919050565b6000604082019050612f3c6000830185612783565b612f496020830184612783565b9392505050565b7f4552433732313a2063616c6c6572206973206e6f7420746f6b656e206f776e6560008201527f72206f7220617070726f76656400000000000000000000000000000000000000602082015250565b6000612fac602d83612647565b9150612fb782612f50565b604082019050919050565b60006020820190508181036000830152612fdb81612f9f565b9050919050565b7f4e487b7100000000000000000000000000000000000000000000000000000000600052603260045260246000fd5b600081905092915050565b50565b600061302c600083613011565b91506130378261301c565b600082019050919050565b600061304d8261301f565b9150819050919050565b7f4552433732313a20696e76616c696420746f6b656e2049440000000000000000600082015250565b600061308d601883612647565b915061309882613057565b602082019050919050565b600060208201905081810360008301526130bc81613080565b9050919050565b7f4552433732313a2061646472657373207a65726f206973206e6f74206120766160008201527f6c6964206f776e65720000000000000000000000000000000000000000000000602082015250565b600061311f602983612647565b915061312a826130c3565b604082019050919050565b6000602082019050818103600083015261314e81613112565b9050919050565b7f4e487b7100000000000000000000000000000000000000000000000000000000600052601160045260246000fd5b600061318f826126ee565b91507fffffffffffffffffffffffffffffffffffffffffffffffffffffffffffffffff82036131c1576131c0613155565b5b600182019050919050565b6000819050919050565b6131df816131cc565b82525050565b600067ffffffffffffffff82169050919050565b613202816131e5565b82525050565b600061ffff82169050919050565b61321f81613208565b82525050565b600063ffffffff82169050919050565b61323e81613225565b82525050565b600060a08201905061325960008301886131d6565b61326660208301876131f9565b6132736040830186613216565b6132806060830185613235565b61328d6080830184613235565b9695505050505050565b6000815190506132a6816126f8565b92915050565b6000602082840312156132c2576132c1612577565b5b60006132d084828501613297565b91505092915050565b600081905092915050565b60006132ef8261263c565b6132f981856132d9565b9350613309818560208601612658565b80840191505092915050565b600061332182856132e4565b915061332d82846132e4565b91508190509392505050565b7f4f776e61626c653a206e6577206f776e657220697320746865207a65726f206160008201527f6464726573730000000000000000000000000000000000000000000000000000602082015250565b6000613395602683612647565b91506133a082613339565b604082019050919050565b600060208201905081810360008301526133c481613388565b9050919050565b60006133d6826126ee565b91506133e1836126ee565b92508282019050808211156133f9576133f8613155565b5b92915050565b7f4e487b7100000000000000000000000000000000000000000000000000000000600052601260045260246000fd5b6000613439826126ee565b9150613444836126ee565b925082613454576134536133ff565b5b828206905092915050565b60006040820190506134746000830185612c01565b6134816020830184612783565b9392505050565b7f4552433732313a207472616e736665722066726f6d20696e636f72726563742060008201527f6f776e6572000000000000000000000000000000000000000000000000000000602082015250565b60006134e4602583612647565b91506134ef82613488565b604082019050919050565b60006020820190508181036000830152613513816134d7565b9050919050565b7f4552433732313a207472616e7366657220746f20746865207a65726f2061646460008201527f7265737300000000000000000000000000000000000000000000000000000000602082015250565b6000613576602483612647565b91506135818261351a565b604082019050919050565b600060208201905081810360008301526135a581613569565b9050919050565b7f4f776e61626c653a2063616c6c6572206973206e6f7420746865206f776e6572600082015250565b60006135e2602083612647565b91506135ed826135ac565b602082019050919050565b60006020820190508181036000830152613611816135d5565b9050919050565b7f4552433732313a20617070726f766520746f2063616c6c657200000000000000600082015250565b600061364e601983612647565b915061365982613618565b602082019050919050565b6000602082019050818103600083015261367d81613641565b9050919050565b7f4552433732313a207472616e7366657220746f206e6f6e20455243373231526560008201527f63656976657220696d706c656d656e7465720000000000000000000000000000602082015250565b60006136e0603283612647565b91506136eb82613684565b604082019050919050565b6000602082019050818103600083015261370f816136d3565b9050919050565b7f45524337323155524953746f726167653a2055524920736574206f66206e6f6e60008201527f6578697374656e7420746f6b656e000000000000000000000000000000000000602082015250565b6000613772602e83612647565b915061377d82613716565b604082019050919050565b600060208201905081810360008301526137a181613765565b9050919050565b60008190508160005260206000209050919050565b60006020601f8301049050919050565b600082821b905092915050565b60006008830261380a7fffffffffffffffffffffffffffffffffffffffffffffffffffffffffffffffff826137cd565b61381486836137cd565b95508019841693508086168417925050509392505050565b6000819050919050565b600061385161384c613847846126ee565b61382c565b6126ee565b9050919050565b6000819050919050565b61386b83613836565b61387f61387782613858565b8484546137da565b825550505050565b600090565b613894613887565b61389f818484613862565b505050565b5b818110156138c3576138b860008261388c565b6001810190506138a5565b5050565b601f821115613908576138d9816137a8565b6138e2846137bd565b810160208510156138f1578190505b6139056138fd856137bd565b8301826138a4565b50505b505050565b600082821c905092915050565b600061392b6000198460080261390d565b1980831691505092915050565b6000613944838361391a565b9150826002028217905092915050565b61395d8261263c565b67ffffffffffffffff8111156139765761397561281e565b5b6139808254612dd2565b61398b8282856138c7565b600060209050601f8311600181146139be57600084156139ac578287015190505b6139b68582613938565b865550613a1e565b601f1984166139cc866137a8565b60005b828110156139f4578489015182556001820191506020850194506020810190506139cf565b86831015613a115784890151613a0d601f89168261391a565b8355505b6001600288020188555050505b505050505050565b600081519050919050565b600082825260208201905092915050565b6000613a4d82613a26565b613a578185613a31565b9350613a67818560208601612658565b613a7081612682565b840191505092915050565b6000608082019050613a906000830187612783565b613a9d6020830186612783565b613aaa6040830185612ad6565b8181036060830152613abc8184613a42565b905095945050505050565b600081519050613ad6816125ad565b92915050565b600060208284031215613af257613af1612577565b5b6000613b0084828501613ac7565b91505092915050565b7f4552433732313a206d696e7420746f20746865207a65726f2061646472657373600082015250565b6000613b3f602083612647565b9150613b4a82613b09565b602082019050919050565b60006020820190508181036000830152613b6e81613b32565b9050919050565b7f4552433732313a20746f6b656e20616c7265616479206d696e74656400000000600082015250565b6000613bab601c83612647565b9150613bb682613b75565b602082019050919050565b60006020820190508181036000830152613bda81613b9e565b905091905056fea2646970667358221220d3f0b405d9c84e7053ddc3c20b076c0c1ad7a2515e06ba14e8bfb877a6fe0e4f64736f6c63430008110033",
  "devdoc": {
    "kind": "dev",
    "methods": {
      "approve(address,uint256)": {
        "details": "See {IERC721-approve}."
      },
      "balanceOf(address)": {
        "details": "See {IERC721-balanceOf}."
      },
      "getApproved(uint256)": {
        "details": "See {IERC721-getApproved}."
      },
      "isApprovedForAll(address,address)": {
        "details": "See {IERC721-isApprovedForAll}."
      },
      "name()": {
        "details": "See {IERC721Metadata-name}."
      },
      "owner()": {
        "details": "Returns the address of the current owner."
      },
      "ownerOf(uint256)": {
        "details": "See {IERC721-ownerOf}."
      },
      "renounceOwnership()": {
        "details": "Leaves the contract without owner. It will not be possible to call `onlyOwner` functions anymore. Can only be called by the current owner. NOTE: Renouncing ownership will leave the contract without an owner, thereby removing any functionality that is only available to the owner."
      },
      "safeTransferFrom(address,address,uint256)": {
        "details": "See {IERC721-safeTransferFrom}."
      },
      "safeTransferFrom(address,address,uint256,bytes)": {
        "details": "See {IERC721-safeTransferFrom}."
      },
      "setApprovalForAll(address,bool)": {
        "details": "See {IERC721-setApprovalForAll}."
      },
      "supportsInterface(bytes4)": {
        "details": "See {IERC165-supportsInterface}."
      },
      "symbol()": {
        "details": "See {IERC721Metadata-symbol}."
      },
      "tokenURI(uint256)": {
        "details": "See {IERC721Metadata-tokenURI}."
      },
      "transferFrom(address,address,uint256)": {
        "details": "See {IERC721-transferFrom}."
      },
      "transferOwnership(address)": {
        "details": "Transfers ownership of the contract to a new account (`newOwner`). Can only be called by the current owner."
      }
    },
    "version": 1
  },
  "userdoc": {
    "kind": "user",
    "methods": {},
    "version": 1
  },
  "storageLayout": {
    "storage": [
      {
        "astId": 1296,
        "contract": "contracts/RandomIpfsNft.sol:RandomIpfsNft",
        "label": "_name",
        "offset": 0,
        "slot": "0",
        "type": "t_string_storage"
      },
      {
        "astId": 1298,
        "contract": "contracts/RandomIpfsNft.sol:RandomIpfsNft",
        "label": "_symbol",
        "offset": 0,
        "slot": "1",
        "type": "t_string_storage"
      },
      {
        "astId": 1302,
        "contract": "contracts/RandomIpfsNft.sol:RandomIpfsNft",
        "label": "_owners",
        "offset": 0,
        "slot": "2",
        "type": "t_mapping(t_uint256,t_address)"
      },
      {
        "astId": 1306,
        "contract": "contracts/RandomIpfsNft.sol:RandomIpfsNft",
        "label": "_balances",
        "offset": 0,
        "slot": "3",
        "type": "t_mapping(t_address,t_uint256)"
      },
      {
        "astId": 1310,
        "contract": "contracts/RandomIpfsNft.sol:RandomIpfsNft",
        "label": "_tokenApprovals",
        "offset": 0,
        "slot": "4",
        "type": "t_mapping(t_uint256,t_address)"
      },
      {
        "astId": 1316,
        "contract": "contracts/RandomIpfsNft.sol:RandomIpfsNft",
        "label": "_operatorApprovals",
        "offset": 0,
        "slot": "5",
        "type": "t_mapping(t_address,t_mapping(t_address,t_bool))"
      },
      {
        "astId": 2344,
        "contract": "contracts/RandomIpfsNft.sol:RandomIpfsNft",
        "label": "_tokenURIs",
        "offset": 0,
        "slot": "6",
        "type": "t_mapping(t_uint256,t_string_storage)"
      },
      {
        "astId": 1165,
        "contract": "contracts/RandomIpfsNft.sol:RandomIpfsNft",
        "label": "_owner",
        "offset": 0,
        "slot": "7",
        "type": "t_address"
      },
      {
        "astId": 4200,
        "contract": "contracts/RandomIpfsNft.sol:RandomIpfsNft",
        "label": "s_tokenCounter",
        "offset": 0,
        "slot": "8",
        "type": "t_uint256"
      },
      {
        "astId": 4206,
        "contract": "contracts/RandomIpfsNft.sol:RandomIpfsNft",
        "label": "s_dogTokenUris",
        "offset": 0,
        "slot": "9",
        "type": "t_array(t_string_storage)dyn_storage"
      },
      {
        "astId": 4208,
        "contract": "contracts/RandomIpfsNft.sol:RandomIpfsNft",
        "label": "s_initialized",
        "offset": 0,
        "slot": "10",
        "type": "t_bool"
      },
      {
        "astId": 4212,
        "contract": "contracts/RandomIpfsNft.sol:RandomIpfsNft",
        "label": "s_requestIdToSender",
        "offset": 0,
        "slot": "11",
        "type": "t_mapping(t_uint256,t_address)"
      }
    ],
    "types": {
      "t_address": {
        "encoding": "inplace",
        "label": "address",
        "numberOfBytes": "20"
      },
      "t_array(t_string_storage)dyn_storage": {
        "base": "t_string_storage",
        "encoding": "dynamic_array",
        "label": "string[]",
        "numberOfBytes": "32"
      },
      "t_bool": {
        "encoding": "inplace",
        "label": "bool",
        "numberOfBytes": "1"
      },
      "t_mapping(t_address,t_bool)": {
        "encoding": "mapping",
        "key": "t_address",
        "label": "mapping(address => bool)",
        "numberOfBytes": "32",
        "value": "t_bool"
      },
      "t_mapping(t_address,t_mapping(t_address,t_bool))": {
        "encoding": "mapping",
        "key": "t_address",
        "label": "mapping(address => mapping(address => bool))",
        "numberOfBytes": "32",
        "value": "t_mapping(t_address,t_bool)"
      },
      "t_mapping(t_address,t_uint256)": {
        "encoding": "mapping",
        "key": "t_address",
        "label": "mapping(address => uint256)",
        "numberOfBytes": "32",
        "value": "t_uint256"
      },
      "t_mapping(t_uint256,t_address)": {
        "encoding": "mapping",
        "key": "t_uint256",
        "label": "mapping(uint256 => address)",
        "numberOfBytes": "32",
        "value": "t_address"
      },
      "t_mapping(t_uint256,t_string_storage)": {
        "encoding": "mapping",
        "key": "t_uint256",
        "label": "mapping(uint256 => string)",
        "numberOfBytes": "32",
        "value": "t_string_storage"
      },
      "t_string_storage": {
        "encoding": "bytes",
        "label": "string",
        "numberOfBytes": "32"
      },
      "t_uint256": {
        "encoding": "inplace",
        "label": "uint256",
        "numberOfBytes": "32"
      }
    }
  }
}