{
  "_format": "hh-sol-artifact-1",
  "contractName": "RandomIpfsNft",
  "sourceName": "contracts/RandomIpfsNft.sol",
  "abi": [
    {
      "inputs": [
        {
          "internalType": "address",
          "name": "vrfCoordinatorV2",
          "type": "address"
        },
        {
          "internalType": "uint64",
          "name": "subscriptionId",
          "type": "uint64"
        },
        {
          "internalType": "bytes32",
          "name": "gasLane",
          "type": "bytes32"
        },
        {
          "internalType": "uint32",
          "name": "callbackGasLimit",
          "type": "uint32"
        },
        {
          "internalType": "string[3]",
          "name": "dogTokenUris",
          "type": "string[3]"
        },
        {
          "internalType": "uint256",
          "name": "mintFee",
          "type": "uint256"
        }
      ],
      "stateMutability": "nonpayable",
      "type": "constructor"
    },
    {
      "inputs": [
        {
          "internalType": "address",
          "name": "have",
          "type": "address"
        },
        {
          "internalType": "address",
          "name": "want",
          "type": "address"
        }
      ],
      "name": "OnlyCoordinatorCanFulfill",
      "type": "error"
    },
    {
      "inputs": [],
      "name": "RandomIpfsNft__NeedMoreETHSent",
      "type": "error"
    },
    {
      "inputs": [],
      "name": "RandomIpfsNft__RangeOutOfBounds",
      "type": "error"
    },
    {
      "inputs": [],
      "name": "RandomIpfsNft__TransferFailed",
      "type": "error"
    },
    {
      "anonymous": false,
      "inputs": [
        {
          "indexed": true,
          "internalType": "address",
          "name": "owner",
          "type": "address"
        },
        {
          "indexed": true,
          "internalType": "address",
          "name": "approved",
          "type": "address"
        },
        {
          "indexed": true,
          "internalType": "uint256",
          "name": "tokenId",
          "type": "uint256"
        }
      ],
      "name": "Approval",
      "type": "event"
    },
    {
      "anonymous": false,
      "inputs": [
        {
          "indexed": true,
          "internalType": "address",
          "name": "owner",
          "type": "address"
        },
        {
          "indexed": true,
          "internalType": "address",
          "name": "operator",
          "type": "address"
        },
        {
          "indexed": false,
          "internalType": "bool",
          "name": "approved",
          "type": "bool"
        }
      ],
      "name": "ApprovalForAll",
      "type": "event"
    },
    {
      "anonymous": false,
      "inputs": [
        {
          "indexed": false,
          "internalType": "enum RandomIpfsNft.Breed",
          "name": "dogBreed",
          "type": "uint8"
        },
        {
          "indexed": false,
          "internalType": "address",
          "name": "minter",
          "type": "address"
        }
      ],
      "name": "NftMinted",
      "type": "event"
    },
    {
      "anonymous": false,
      "inputs": [
        {
          "indexed": true,
          "internalType": "uint256",
          "name": "requestId",
          "type": "uint256"
        },
        {
          "indexed": false,
          "internalType": "address",
          "name": "requester",
          "type": "address"
        }
      ],
      "name": "NftRequested",
      "type": "event"
    },
    {
      "anonymous": false,
      "inputs": [
        {
          "indexed": true,
          "internalType": "address",
          "name": "previousOwner",
          "type": "address"
        },
        {
          "indexed": true,
          "internalType": "address",
          "name": "newOwner",
          "type": "address"
        }
      ],
      "name": "OwnershipTransferred",
      "type": "event"
    },
    {
      "anonymous": false,
      "inputs": [
        {
          "indexed": true,
          "internalType": "address",
          "name": "from",
          "type": "address"
        },
        {
          "indexed": true,
          "internalType": "address",
          "name": "to",
          "type": "address"
        },
        {
          "indexed": true,
          "internalType": "uint256",
          "name": "tokenId",
          "type": "uint256"
        }
      ],
      "name": "Transfer",
      "type": "event"
    },
    {
      "inputs": [
        {
          "internalType": "address",
          "name": "to",
          "type": "address"
        },
        {
          "internalType": "uint256",
          "name": "tokenId",
          "type": "uint256"
        }
      ],
      "name": "approve",
      "outputs": [],
      "stateMutability": "nonpayable",
      "type": "function"
    },
    {
      "inputs": [
        {
          "internalType": "address",
          "name": "owner",
          "type": "address"
        }
      ],
      "name": "balanceOf",
      "outputs": [
        {
          "internalType": "uint256",
          "name": "",
          "type": "uint256"
        }
      ],
      "stateMutability": "view",
      "type": "function"
    },
    {
      "inputs": [
        {
          "internalType": "uint256",
          "name": "tokenId",
          "type": "uint256"
        }
      ],
      "name": "getApproved",
      "outputs": [
        {
          "internalType": "address",
          "name": "",
          "type": "address"
        }
      ],
      "stateMutability": "view",
      "type": "function"
    },
    {
      "inputs": [
        {
          "internalType": "uint256",
          "name": "moddedRng",
          "type": "uint256"
        }
      ],
      "name": "getBreedFromModdedRng",
      "outputs": [
        {
          "internalType": "enum RandomIpfsNft.Breed",
          "name": "",
          "type": "uint8"
        }
      ],
      "stateMutability": "pure",
      "type": "function"
    },
    {
      "inputs": [],
      "name": "getChanceArray",
      "outputs": [
        {
          "internalType": "uint256[3]",
          "name": "",
          "type": "uint256[3]"
        }
      ],
      "stateMutability": "pure",
      "type": "function"
    },
    {
      "inputs": [
        {
          "internalType": "uint256",
          "name": "index",
          "type": "uint256"
        }
      ],
      "name": "getDogTokenUris",
      "outputs": [
        {
          "internalType": "string",
          "name": "",
          "type": "string"
        }
      ],
      "stateMutability": "view",
      "type": "function"
    },
    {
      "inputs": [],
      "name": "getMinFee",
      "outputs": [
        {
          "internalType": "uint256",
          "name": "",
          "type": "uint256"
        }
      ],
      "stateMutability": "view",
      "type": "function"
    },
    {
      "inputs": [],
      "name": "getTokenCounter",
      "outputs": [
        {
          "internalType": "uint256",
          "name": "",
          "type": "uint256"
        }
      ],
      "stateMutability": "view",
      "type": "function"
    },
    {
      "inputs": [
        {
          "internalType": "address",
          "name": "owner",
          "type": "address"
        },
        {
          "internalType": "address",
          "name": "operator",
          "type": "address"
        }
      ],
      "name": "isApprovedForAll",
      "outputs": [
        {
          "internalType": "bool",
          "name": "",
          "type": "bool"
        }
      ],
      "stateMutability": "view",
      "type": "function"
    },
    {
      "inputs": [],
      "name": "name",
      "outputs": [
        {
          "internalType": "string",
          "name": "",
          "type": "string"
        }
      ],
      "stateMutability": "view",
      "type": "function"
    },
    {
      "inputs": [],
      "name": "owner",
      "outputs": [
        {
          "internalType": "address",
          "name": "",
          "type": "address"
        }
      ],
      "stateMutability": "view",
      "type": "function"
    },
    {
      "inputs": [
        {
          "internalType": "uint256",
          "name": "tokenId",
          "type": "uint256"
        }
      ],
      "name": "ownerOf",
      "outputs": [
        {
          "internalType": "address",
          "name": "",
          "type": "address"
        }
      ],
      "stateMutability": "view",
      "type": "function"
    },
    {
      "inputs": [
        {
          "internalType": "uint256",
          "name": "requestId",
          "type": "uint256"
        },
        {
          "internalType": "uint256[]",
          "name": "randomWords",
          "type": "uint256[]"
        }
      ],
      "name": "rawFulfillRandomWords",
      "outputs": [],
      "stateMutability": "nonpayable",
      "type": "function"
    },
    {
      "inputs": [],
      "name": "renounceOwnership",
      "outputs": [],
      "stateMutability": "nonpayable",
      "type": "function"
    },
    {
      "inputs": [],
      "name": "requestNft",
      "outputs": [
        {
          "internalType": "uint256",
          "name": "requestId",
          "type": "uint256"
        }
      ],
      "stateMutability": "payable",
      "type": "function"
    },
    {
      "inputs": [
        {
          "internalType": "uint256",
          "name": "",
          "type": "uint256"
        }
      ],
      "name": "s_requestIdToSender",
      "outputs": [
        {
          "internalType": "address",
          "name": "",
          "type": "address"
        }
      ],
      "stateMutability": "view",
      "type": "function"
    },
    {
      "inputs": [],
      "name": "s_tokenCounter",
      "outputs": [
        {
          "internalType": "uint256",
          "name": "",
          "type": "uint256"
        }
      ],
      "stateMutability": "view",
      "type": "function"
    },
    {
      "inputs": [
        {
          "internalType": "address",
          "name": "from",
          "type": "address"
        },
        {
          "internalType": "address",
          "name": "to",
          "type": "address"
        },
        {
          "internalType": "uint256",
          "name": "tokenId",
          "type": "uint256"
        }
      ],
      "name": "safeTransferFrom",
      "outputs": [],
      "stateMutability": "nonpayable",
      "type": "function"
    },
    {
      "inputs": [
        {
          "internalType": "address",
          "name": "from",
          "type": "address"
        },
        {
          "internalType": "address",
          "name": "to",
          "type": "address"
        },
        {
          "internalType": "uint256",
          "name": "tokenId",
          "type": "uint256"
        },
        {
          "internalType": "bytes",
          "name": "data",
          "type": "bytes"
        }
      ],
      "name": "safeTransferFrom",
      "outputs": [],
      "stateMutability": "nonpayable",
      "type": "function"
    },
    {
      "inputs": [
        {
          "internalType": "address",
          "name": "operator",
          "type": "address"
        },
        {
          "internalType": "bool",
          "name": "approved",
          "type": "bool"
        }
      ],
      "name": "setApprovalForAll",
      "outputs": [],
      "stateMutability": "nonpayable",
      "type": "function"
    },
    {
      "inputs": [
        {
          "internalType": "bytes4",
          "name": "interfaceId",
          "type": "bytes4"
        }
      ],
      "name": "supportsInterface",
      "outputs": [
        {
          "internalType": "bool",
          "name": "",
          "type": "bool"
        }
      ],
      "stateMutability": "view",
      "type": "function"
    },
    {
      "inputs": [],
      "name": "symbol",
      "outputs": [
        {
          "internalType": "string",
          "name": "",
          "type": "string"
        }
      ],
      "stateMutability": "view",
      "type": "function"
    },
    {
      "inputs": [
        {
          "internalType": "uint256",
          "name": "tokenId",
          "type": "uint256"
        }
      ],
      "name": "tokenURI",
      "outputs": [
        {
          "internalType": "string",
          "name": "",
          "type": "string"
        }
      ],
      "stateMutability": "view",
      "type": "function"
    },
    {
      "inputs": [
        {
          "internalType": "address",
          "name": "from",
          "type": "address"
        },
        {
          "internalType": "address",
          "name": "to",
          "type": "address"
        },
        {
          "internalType": "uint256",
          "name": "tokenId",
          "type": "uint256"
        }
      ],
      "name": "transferFrom",
      "outputs": [],
      "stateMutability": "nonpayable",
      "type": "function"
    },
    {
      "inputs": [
        {
          "internalType": "address",
          "name": "newOwner",
          "type": "address"
        }
      ],
      "name": "transferOwnership",
      "outputs": [],
      "stateMutability": "nonpayable",
      "type": "function"
    },
    {
      "inputs": [],
      "name": "withdraw",
      "outputs": [],
      "stateMutability": "nonpayable",
      "type": "function"
    }
  ],
  "bytecode": "0x6101406040523480156200001257600080fd5b50604051620047973803806200479783398181016040528101906200003891906200074f565b6040518060400160405280600d81526020017f52616e646f6d497066734e6674000000000000000000000000000000000000008152506040518060400160405280600381526020017f52494e0000000000000000000000000000000000000000000000000000000000815250878073ffffffffffffffffffffffffffffffffffffffff1660808173ffffffffffffffffffffffffffffffffffffffff1681525050508160009081620000eb919062000a4b565b508060019081620000fd919062000a4b565b5050506200012062000114620001b660201b60201c565b620001be60201b60201c565b8573ffffffffffffffffffffffffffffffffffffffff1660a08173ffffffffffffffffffffffffffffffffffffffff16815250508467ffffffffffffffff1660c08167ffffffffffffffff16815250508360e081815250508263ffffffff166101008163ffffffff168152505081600a906003620001a092919062000284565b5080610120818152505050505050505062000b32565b600033905090565b6000600760009054906101000a900473ffffffffffffffffffffffffffffffffffffffff16905081600760006101000a81548173ffffffffffffffffffffffffffffffffffffffff021916908373ffffffffffffffffffffffffffffffffffffffff1602179055508173ffffffffffffffffffffffffffffffffffffffff168173ffffffffffffffffffffffffffffffffffffffff167f8be0079c531659141344cd1fd0a4f28419497f9722a3daafe3b4186f6b6457e060405160405180910390a35050565b828054828255906000526020600020908101928215620002d1579160200282015b82811115620002d0578251829081620002bf919062000a4b565b5091602001919060010190620002a5565b5b509050620002e09190620002e4565b5090565b5b80821115620003085760008181620002fe91906200030c565b50600101620002e5565b5090565b5080546200031a9062000844565b6000825580601f106200032e57506200034f565b601f0160209004906000526020600020908101906200034e919062000352565b5b50565b5b808211156200036d57600081600090555060010162000353565b5090565b6000604051905090565b600080fd5b600080fd5b600073ffffffffffffffffffffffffffffffffffffffff82169050919050565b6000620003b28262000385565b9050919050565b620003c481620003a5565b8114620003d057600080fd5b50565b600081519050620003e481620003b9565b92915050565b600067ffffffffffffffff82169050919050565b6200040981620003ea565b81146200041557600080fd5b50565b6000815190506200042981620003fe565b92915050565b6000819050919050565b62000444816200042f565b81146200045057600080fd5b50565b600081519050620004648162000439565b92915050565b600063ffffffff82169050919050565b62000485816200046a565b81146200049157600080fd5b50565b600081519050620004a5816200047a565b92915050565b600080fd5b6000601f19601f8301169050919050565b7f4e487b7100000000000000000000000000000000000000000000000000000000600052604160045260246000fd5b620004fb82620004b0565b810181811067ffffffffffffffff821117156200051d576200051c620004c1565b5b80604052505050565b60006200053262000371565b9050620005408282620004f0565b919050565b600067ffffffffffffffff821115620005635762000562620004c1565b5b602082029050919050565b600080fd5b600080fd5b600067ffffffffffffffff821115620005965762000595620004c1565b5b620005a182620004b0565b9050602081019050919050565b60005b83811015620005ce578082015181840152602081019050620005b1565b60008484015250505050565b6000620005f1620005eb8462000578565b62000526565b90508281526020810184848401111562000610576200060f62000573565b5b6200061d848285620005ae565b509392505050565b600082601f8301126200063d576200063c620004ab565b5b81516200064f848260208601620005da565b91505092915050565b60006200066f620006698462000545565b62000526565b905080602084028301858111156200068c576200068b6200056e565b5b835b81811015620006da57805167ffffffffffffffff811115620006b557620006b4620004ab565b5b808601620006c4898262000625565b855260208501945050506020810190506200068e565b5050509392505050565b600082601f830112620006fc57620006fb620004ab565b5b60036200070b84828562000658565b91505092915050565b6000819050919050565b620007298162000714565b81146200073557600080fd5b50565b60008151905062000749816200071e565b92915050565b60008060008060008060c087890312156200076f576200076e6200037b565b5b60006200077f89828a01620003d3565b96505060206200079289828a0162000418565b9550506040620007a589828a0162000453565b9450506060620007b889828a0162000494565b935050608087015167ffffffffffffffff811115620007dc57620007db62000380565b5b620007ea89828a01620006e4565b92505060a0620007fd89828a0162000738565b9150509295509295509295565b600081519050919050565b7f4e487b7100000000000000000000000000000000000000000000000000000000600052602260045260246000fd5b600060028204905060018216806200085d57607f821691505b60208210810362000873576200087262000815565b5b50919050565b60008190508160005260206000209050919050565b60006020601f8301049050919050565b600082821b905092915050565b600060088302620008dd7fffffffffffffffffffffffffffffffffffffffffffffffffffffffffffffffff826200089e565b620008e986836200089e565b95508019841693508086168417925050509392505050565b6000819050919050565b60006200092c62000926620009208462000714565b62000901565b62000714565b9050919050565b6000819050919050565b62000948836200090b565b62000960620009578262000933565b848454620008ab565b825550505050565b600090565b6200097762000968565b620009848184846200093d565b505050565b5b81811015620009ac57620009a06000826200096d565b6001810190506200098a565b5050565b601f821115620009fb57620009c58162000879565b620009d0846200088e565b81016020851015620009e0578190505b620009f8620009ef856200088e565b83018262000989565b50505b505050565b600082821c905092915050565b600062000a206000198460080262000a00565b1980831691505092915050565b600062000a3b838362000a0d565b9150826002028217905092915050565b62000a56826200080a565b67ffffffffffffffff81111562000a725762000a71620004c1565b5b62000a7e825462000844565b62000a8b828285620009b0565b600060209050601f83116001811462000ac3576000841562000aae578287015190505b62000aba858262000a2d565b86555062000b2a565b601f19841662000ad38662000879565b60005b8281101562000afd5784890151825560018201915060208501945060208101905062000ad6565b8683101562000b1d578489015162000b19601f89168262000a0d565b8355505b6001600288020188555050505b505050505050565b60805160a05160c05160e0516101005161012051613c0762000b9060003960008181610bc20152610f570152600061103101526000610fed0152600061100e01526000610fb101526000818161091c01526109700152613c076000f3fe6080604052600436106101815760003560e01c80636e02007d116100d1578063a36f573b1161008a578063b88d4fde11610064578063b88d4fde14610577578063c87b56dd146105a0578063e985e9c5146105dd578063f2fde38b1461061a57610181565b8063a36f573b146104df578063a51cccf31461051c578063aa1524911461055957610181565b80636e02007d146103e157806370a082311461040c578063715018a6146104495780638da5cb5b1461046057806395d89b411461048b578063a22cb465146104b657610181565b806323b872dd1161013e57806342842e0e1161011857806342842e0e146103255780635cf34bcf1461034e5780635dacf5f4146103795780636352211e146103a457610181565b806323b872dd146102a85780633af25975146102d15780633ccfd60b1461030e57610181565b806301ffc9a71461018657806306fdde03146101c3578063081812fc146101ee578063095ea7b31461022b5780630b21a83b146102545780631fe543e31461027f575b600080fd5b34801561019257600080fd5b506101ad60048036038101906101a891906125c9565b610643565b6040516101ba9190612611565b60405180910390f35b3480156101cf57600080fd5b506101d8610725565b6040516101e591906126bc565b60405180910390f35b3480156101fa57600080fd5b5061021560048036038101906102109190612714565b6107b7565b6040516102229190612782565b60405180910390f35b34801561023757600080fd5b50610252600480360381019061024d91906127c9565b6107fd565b005b34801561026057600080fd5b50610269610914565b6040516102769190612818565b60405180910390f35b34801561028b57600080fd5b506102a660048036038101906102a1919061297b565b61091a565b005b3480156102b457600080fd5b506102cf60048036038101906102ca91906129d7565b6109da565b005b3480156102dd57600080fd5b506102f860048036038101906102f39190612714565b610a3a565b60405161030591906126bc565b60405180910390f35b34801561031a57600080fd5b50610323610aea565b005b34801561033157600080fd5b5061034c600480360381019061034791906129d7565b610b9e565b005b34801561035a57600080fd5b50610363610bbe565b6040516103709190612818565b60405180910390f35b34801561038557600080fd5b5061038e610be6565b60405161039b9190612ad5565b60405180910390f35b3480156103b057600080fd5b506103cb60048036038101906103c69190612714565b610c11565b6040516103d89190612782565b60405180910390f35b3480156103ed57600080fd5b506103f6610c97565b6040516104039190612818565b60405180910390f35b34801561041857600080fd5b50610433600480360381019061042e9190612af0565b610ca1565b6040516104409190612818565b60405180910390f35b34801561045557600080fd5b5061045e610d58565b005b34801561046c57600080fd5b50610475610d6c565b6040516104829190612782565b60405180910390f35b34801561049757600080fd5b506104a0610d96565b6040516104ad91906126bc565b60405180910390f35b3480156104c257600080fd5b506104dd60048036038101906104d89190612b49565b610e28565b005b3480156104eb57600080fd5b5061050660048036038101906105019190612714565b610e3e565b6040516105139190612782565b60405180910390f35b34801561052857600080fd5b50610543600480360381019061053e9190612714565b610e71565b6040516105509190612c00565b60405180910390f35b610561610f53565b60405161056e9190612818565b60405180910390f35b34801561058357600080fd5b5061059e60048036038101906105999190612cd0565b611144565b005b3480156105ac57600080fd5b506105c760048036038101906105c29190612714565b6111a6565b6040516105d491906126bc565b60405180910390f35b3480156105e957600080fd5b5061060460048036038101906105ff9190612d53565b6112b8565b6040516106119190612611565b60405180910390f35b34801561062657600080fd5b50610641600480360381019061063c9190612af0565b61134c565b005b60007f80ac58cd000000000000000000000000000000000000000000000000000000007bffffffffffffffffffffffffffffffffffffffffffffffffffffffff1916827bffffffffffffffffffffffffffffffffffffffffffffffffffffffff1916148061070e57507f5b5e139f000000000000000000000000000000000000000000000000000000007bffffffffffffffffffffffffffffffffffffffffffffffffffffffff1916827bffffffffffffffffffffffffffffffffffffffffffffffffffffffff1916145b8061071e575061071d826113cf565b5b9050919050565b60606000805461073490612dc2565b80601f016020809104026020016040519081016040528092919081815260200182805461076090612dc2565b80156107ad5780601f10610782576101008083540402835291602001916107ad565b820191906000526020600020905b81548152906001019060200180831161079057829003601f168201915b5050505050905090565b60006107c282611439565b6004600083815260200190815260200160002060009054906101000a900473ffffffffffffffffffffffffffffffffffffffff169050919050565b600061080882610c11565b90508073ffffffffffffffffffffffffffffffffffffffff168373ffffffffffffffffffffffffffffffffffffffff1603610878576040517f08c379a000000000000000000000000000000000000000000000000000000000815260040161086f90612e65565b60405180910390fd5b8073ffffffffffffffffffffffffffffffffffffffff16610897611484565b73ffffffffffffffffffffffffffffffffffffffff1614806108c657506108c5816108c0611484565b6112b8565b5b610905576040517f08c379a00000000000000000000000000000000000000000000000000000000081526004016108fc90612ef7565b60405180910390fd5b61090f838361148c565b505050565b60095481565b7f000000000000000000000000000000000000000000000000000000000000000073ffffffffffffffffffffffffffffffffffffffff163373ffffffffffffffffffffffffffffffffffffffff16146109cc57337f00000000000000000000000000000000000000000000000000000000000000006040517f1cf993f40000000000000000000000000000000000000000000000000000000081526004016109c3929190612f17565b60405180910390fd5b6109d68282611545565b5050565b6109eb6109e5611484565b826116ca565b610a2a576040517f08c379a0000000000000000000000000000000000000000000000000000000008152600401610a2190612fb2565b60405180910390fd5b610a3583838361175f565b505050565b6060600a8281548110610a5057610a4f612fd2565b5b906000526020600020018054610a6590612dc2565b80601f0160208091040260200160405190810160405280929190818152602001828054610a9190612dc2565b8015610ade5780601f10610ab357610100808354040283529160200191610ade565b820191906000526020600020905b815481529060010190602001808311610ac157829003601f168201915b50505050509050919050565b610af2611a58565b600047905060003373ffffffffffffffffffffffffffffffffffffffff1682604051610b1d90613032565b60006040518083038185875af1925050503d8060008114610b5a576040519150601f19603f3d011682016040523d82523d6000602084013e610b5f565b606091505b5050905080610b9a576040517fca7e25b700000000000000000000000000000000000000000000000000000000815260040160405180910390fd5b5050565b610bb983838360405180602001604052806000815250611144565b505050565b60007f0000000000000000000000000000000000000000000000000000000000000000905090565b610bee61253b565b6040518060600160405280600a8152602001603c81526020016064815250905090565b600080610c1d83611ad6565b9050600073ffffffffffffffffffffffffffffffffffffffff168173ffffffffffffffffffffffffffffffffffffffff1603610c8e576040517f08c379a0000000000000000000000000000000000000000000000000000000008152600401610c8590613093565b60405180910390fd5b80915050919050565b6000600954905090565b60008073ffffffffffffffffffffffffffffffffffffffff168273ffffffffffffffffffffffffffffffffffffffff1603610d11576040517f08c379a0000000000000000000000000000000000000000000000000000000008152600401610d0890613125565b60405180910390fd5b600360008373ffffffffffffffffffffffffffffffffffffffff1673ffffffffffffffffffffffffffffffffffffffff168152602001908152602001600020549050919050565b610d60611a58565b610d6a6000611b13565b565b6000600760009054906101000a900473ffffffffffffffffffffffffffffffffffffffff16905090565b606060018054610da590612dc2565b80601f0160208091040260200160405190810160405280929190818152602001828054610dd190612dc2565b8015610e1e5780601f10610df357610100808354040283529160200191610e1e565b820191906000526020600020905b815481529060010190602001808311610e0157829003601f168201915b5050505050905090565b610e3a610e33611484565b8383611bd9565b5050565b60086020528060005260406000206000915054906101000a900473ffffffffffffffffffffffffffffffffffffffff1681565b600080600090506000610e82610be6565b905060005b6003811015610f1b57828510158015610ec15750818160038110610eae57610ead612fd2565b5b602002015183610ebe9190613174565b85105b15610ee357806002811115610ed957610ed8612b89565b5b9350505050610f4e565b818160038110610ef657610ef5612fd2565b5b602002015183610f069190613174565b92508080610f13906131a8565b915050610e87565b506040517f12806c9d00000000000000000000000000000000000000000000000000000000815260040160405180910390fd5b919050565b60007f0000000000000000000000000000000000000000000000000000000000000000341015610faf576040517fb90f491000000000000000000000000000000000000000000000000000000000815260040160405180910390fd5b7f000000000000000000000000000000000000000000000000000000000000000073ffffffffffffffffffffffffffffffffffffffff16635d3b1d307f00000000000000000000000000000000000000000000000000000000000000007f000000000000000000000000000000000000000000000000000000000000000060037f000000000000000000000000000000000000000000000000000000000000000060016040518663ffffffff1660e01b8152600401611072959493929190613268565b6020604051808303816000875af1158015611091573d6000803e3d6000fd5b505050506040513d601f19601f820116820180604052508101906110b591906132d0565b9050336008600083815260200190815260200160002060006101000a81548173ffffffffffffffffffffffffffffffffffffffff021916908373ffffffffffffffffffffffffffffffffffffffff160217905550807ff873236e6cc0ecc5be1a9a35c95ee5b8d1ac4cc7bfef0cc5060391d6cc98e26b336040516111399190612782565b60405180910390a290565b61115561114f611484565b836116ca565b611194576040517f08c379a000000000000000000000000000000000000000000000000000000000815260040161118b90612fb2565b60405180910390fd5b6111a084848484611d45565b50505050565b60606111b182611439565b60006006600084815260200190815260200160002080546111d190612dc2565b80601f01602080910402602001604051908101604052809291908181526020018280546111fd90612dc2565b801561124a5780601f1061121f5761010080835404028352916020019161124a565b820191906000526020600020905b81548152906001019060200180831161122d57829003601f168201915b50505050509050600061125b611da1565b905060008151036112705781925050506112b3565b6000825111156112a557808260405160200161128d929190613339565b604051602081830303815290604052925050506112b3565b6112ae84611db8565b925050505b919050565b6000600560008473ffffffffffffffffffffffffffffffffffffffff1673ffffffffffffffffffffffffffffffffffffffff16815260200190815260200160002060008373ffffffffffffffffffffffffffffffffffffffff1673ffffffffffffffffffffffffffffffffffffffff16815260200190815260200160002060009054906101000a900460ff16905092915050565b611354611a58565b600073ffffffffffffffffffffffffffffffffffffffff168173ffffffffffffffffffffffffffffffffffffffff16036113c3576040517f08c379a00000000000000000000000000000000000000000000000000000000081526004016113ba906133cf565b60405180910390fd5b6113cc81611b13565b50565b60007f01ffc9a7000000000000000000000000000000000000000000000000000000007bffffffffffffffffffffffffffffffffffffffffffffffffffffffff1916827bffffffffffffffffffffffffffffffffffffffffffffffffffffffff1916149050919050565b61144281611e20565b611481576040517f08c379a000000000000000000000000000000000000000000000000000000000815260040161147890613093565b60405180910390fd5b50565b600033905090565b816004600083815260200190815260200160002060006101000a81548173ffffffffffffffffffffffffffffffffffffffff021916908373ffffffffffffffffffffffffffffffffffffffff160217905550808273ffffffffffffffffffffffffffffffffffffffff166114ff83610c11565b73ffffffffffffffffffffffffffffffffffffffff167f8c5be1e5ebec7d5bd14f71427d1e84f3dd0314c0f7b2291e5b200ac8c7c3b92560405160405180910390a45050565b60006008600084815260200190815260200160002060009054906101000a900473ffffffffffffffffffffffffffffffffffffffff16905060006009549050600060648460008151811061159c5761159b612fd2565b5b60200260200101516115ae919061341e565b905060006115bb82610e71565b90506115c78484611e61565b61168983600a8360028111156115e0576115df612b89565b5b815481106115f1576115f0612fd2565b5b90600052602060002001805461160690612dc2565b80601f016020809104026020016040519081016040528092919081815260200182805461163290612dc2565b801561167f5780601f106116545761010080835404028352916020019161167f565b820191906000526020600020905b81548152906001019060200180831161166257829003601f168201915b5050505050611e7f565b7f8a269f26b688e110e9cbd887d163dab35cae678fa353a0292de532c0cac1ecdc81856040516116ba92919061344f565b60405180910390a1505050505050565b6000806116d683610c11565b90508073ffffffffffffffffffffffffffffffffffffffff168473ffffffffffffffffffffffffffffffffffffffff161480611718575061171781856112b8565b5b8061175657508373ffffffffffffffffffffffffffffffffffffffff1661173e846107b7565b73ffffffffffffffffffffffffffffffffffffffff16145b91505092915050565b8273ffffffffffffffffffffffffffffffffffffffff1661177f82610c11565b73ffffffffffffffffffffffffffffffffffffffff16146117d5576040517f08c379a00000000000000000000000000000000000000000000000000000000081526004016117cc906134ea565b60405180910390fd5b600073ffffffffffffffffffffffffffffffffffffffff168273ffffffffffffffffffffffffffffffffffffffff1603611844576040517f08c379a000000000000000000000000000000000000000000000000000000000815260040161183b9061357c565b60405180910390fd5b6118518383836001611eec565b8273ffffffffffffffffffffffffffffffffffffffff1661187182610c11565b73ffffffffffffffffffffffffffffffffffffffff16146118c7576040517f08c379a00000000000000000000000000000000000000000000000000000000081526004016118be906134ea565b60405180910390fd5b6004600082815260200190815260200160002060006101000a81549073ffffffffffffffffffffffffffffffffffffffff02191690556001600360008573ffffffffffffffffffffffffffffffffffffffff1673ffffffffffffffffffffffffffffffffffffffff168152602001908152602001600020600082825403925050819055506001600360008473ffffffffffffffffffffffffffffffffffffffff1673ffffffffffffffffffffffffffffffffffffffff16815260200190815260200160002060008282540192505081905550816002600083815260200190815260200160002060006101000a81548173ffffffffffffffffffffffffffffffffffffffff021916908373ffffffffffffffffffffffffffffffffffffffff160217905550808273ffffffffffffffffffffffffffffffffffffffff168473ffffffffffffffffffffffffffffffffffffffff167fddf252ad1be2c89b69c2b068fc378daa952ba7f163c4a11628f55a4df523b3ef60405160405180910390a4611a538383836001611ef2565b505050565b611a60611484565b73ffffffffffffffffffffffffffffffffffffffff16611a7e610d6c565b73ffffffffffffffffffffffffffffffffffffffff1614611ad4576040517f08c379a0000000000000000000000000000000000000000000000000000000008152600401611acb906135e8565b60405180910390fd5b565b60006002600083815260200190815260200160002060009054906101000a900473ffffffffffffffffffffffffffffffffffffffff169050919050565b6000600760009054906101000a900473ffffffffffffffffffffffffffffffffffffffff16905081600760006101000a81548173ffffffffffffffffffffffffffffffffffffffff021916908373ffffffffffffffffffffffffffffffffffffffff1602179055508173ffffffffffffffffffffffffffffffffffffffff168173ffffffffffffffffffffffffffffffffffffffff167f8be0079c531659141344cd1fd0a4f28419497f9722a3daafe3b4186f6b6457e060405160405180910390a35050565b8173ffffffffffffffffffffffffffffffffffffffff168373ffffffffffffffffffffffffffffffffffffffff1603611c47576040517f08c379a0000000000000000000000000000000000000000000000000000000008152600401611c3e90613654565b60405180910390fd5b80600560008573ffffffffffffffffffffffffffffffffffffffff1673ffffffffffffffffffffffffffffffffffffffff16815260200190815260200160002060008473ffffffffffffffffffffffffffffffffffffffff1673ffffffffffffffffffffffffffffffffffffffff16815260200190815260200160002060006101000a81548160ff0219169083151502179055508173ffffffffffffffffffffffffffffffffffffffff168373ffffffffffffffffffffffffffffffffffffffff167f17307eab39ab6107e8899845ad3d59bd9653f200f220920489ca2b5937696c3183604051611d389190612611565b60405180910390a3505050565b611d5084848461175f565b611d5c84848484611ef8565b611d9b576040517f08c379a0000000000000000000000000000000000000000000000000000000008152600401611d92906136e6565b60405180910390fd5b50505050565b606060405180602001604052806000815250905090565b6060611dc382611439565b6000611dcd611da1565b90506000815111611ded5760405180602001604052806000815250611e18565b80611df78461207f565b604051602001611e08929190613339565b6040516020818303038152906040525b915050919050565b60008073ffffffffffffffffffffffffffffffffffffffff16611e4283611ad6565b73ffffffffffffffffffffffffffffffffffffffff1614159050919050565b611e7b82826040518060200160405280600081525061214d565b5050565b611e8882611e20565b611ec7576040517f08c379a0000000000000000000000000000000000000000000000000000000008152600401611ebe90613778565b60405180910390fd5b80600660008481526020019081526020016000209081611ee79190613944565b505050565b50505050565b50505050565b6000611f198473ffffffffffffffffffffffffffffffffffffffff166121a8565b15612072578373ffffffffffffffffffffffffffffffffffffffff1663150b7a02611f42611484565b8786866040518563ffffffff1660e01b8152600401611f649493929190613a6b565b6020604051808303816000875af1925050508015611fa057506040513d601f19601f82011682018060405250810190611f9d9190613acc565b60015b612022573d8060008114611fd0576040519150601f19603f3d011682016040523d82523d6000602084013e611fd5565b606091505b50600081510361201a576040517f08c379a0000000000000000000000000000000000000000000000000000000008152600401612011906136e6565b60405180910390fd5b805181602001fd5b63150b7a0260e01b7bffffffffffffffffffffffffffffffffffffffffffffffffffffffff1916817bffffffffffffffffffffffffffffffffffffffffffffffffffffffff191614915050612077565b600190505b949350505050565b60606000600161208e846121cb565b01905060008167ffffffffffffffff8111156120ad576120ac612838565b5b6040519080825280601f01601f1916602001820160405280156120df5781602001600182028036833780820191505090505b509050600082602001820190505b600115612142578080600190039150507f3031323334353637383961626364656600000000000000000000000000000000600a86061a8153600a8581612136576121356133ef565b5b049450600085036120ed575b819350505050919050565b612157838361231e565b6121646000848484611ef8565b6121a3576040517f08c379a000000000000000000000000000000000000000000000000000000000815260040161219a906136e6565b60405180910390fd5b505050565b6000808273ffffffffffffffffffffffffffffffffffffffff163b119050919050565b600080600090507a184f03e93ff9f4daa797ed6e38ed64bf6a1f0100000000000000008310612229577a184f03e93ff9f4daa797ed6e38ed64bf6a1f010000000000000000838161221f5761221e6133ef565b5b0492506040810190505b6d04ee2d6d415b85acef81000000008310612266576d04ee2d6d415b85acef8100000000838161225c5761225b6133ef565b5b0492506020810190505b662386f26fc10000831061229557662386f26fc10000838161228b5761228a6133ef565b5b0492506010810190505b6305f5e10083106122be576305f5e10083816122b4576122b36133ef565b5b0492506008810190505b61271083106122e35761271083816122d9576122d86133ef565b5b0492506004810190505b6064831061230657606483816122fc576122fb6133ef565b5b0492506002810190505b600a8310612315576001810190505b80915050919050565b600073ffffffffffffffffffffffffffffffffffffffff168273ffffffffffffffffffffffffffffffffffffffff160361238d576040517f08c379a000000000000000000000000000000000000000000000000000000000815260040161238490613b45565b60405180910390fd5b61239681611e20565b156123d6576040517f08c379a00000000000000000000000000000000000000000000000000000000081526004016123cd90613bb1565b60405180910390fd5b6123e4600083836001611eec565b6123ed81611e20565b1561242d576040517f08c379a000000000000000000000000000000000000000000000000000000000815260040161242490613bb1565b60405180910390fd5b6001600360008473ffffffffffffffffffffffffffffffffffffffff1673ffffffffffffffffffffffffffffffffffffffff16815260200190815260200160002060008282540192505081905550816002600083815260200190815260200160002060006101000a81548173ffffffffffffffffffffffffffffffffffffffff021916908373ffffffffffffffffffffffffffffffffffffffff160217905550808273ffffffffffffffffffffffffffffffffffffffff16600073ffffffffffffffffffffffffffffffffffffffff167fddf252ad1be2c89b69c2b068fc378daa952ba7f163c4a11628f55a4df523b3ef60405160405180910390a4612537600083836001611ef2565b5050565b6040518060600160405280600390602082028036833780820191505090505090565b6000604051905090565b600080fd5b600080fd5b60007fffffffff0000000000000000000000000000000000000000000000000000000082169050919050565b6125a681612571565b81146125b157600080fd5b50565b6000813590506125c38161259d565b92915050565b6000602082840312156125df576125de612567565b5b60006125ed848285016125b4565b91505092915050565b60008115159050919050565b61260b816125f6565b82525050565b60006020820190506126266000830184612602565b92915050565b600081519050919050565b600082825260208201905092915050565b60005b8381101561266657808201518184015260208101905061264b565b60008484015250505050565b6000601f19601f8301169050919050565b600061268e8261262c565b6126988185612637565b93506126a8818560208601612648565b6126b181612672565b840191505092915050565b600060208201905081810360008301526126d68184612683565b905092915050565b6000819050919050565b6126f1816126de565b81146126fc57600080fd5b50565b60008135905061270e816126e8565b92915050565b60006020828403121561272a57612729612567565b5b6000612738848285016126ff565b91505092915050565b600073ffffffffffffffffffffffffffffffffffffffff82169050919050565b600061276c82612741565b9050919050565b61277c81612761565b82525050565b60006020820190506127976000830184612773565b92915050565b6127a681612761565b81146127b157600080fd5b50565b6000813590506127c38161279d565b92915050565b600080604083850312156127e0576127df612567565b5b60006127ee858286016127b4565b92505060206127ff858286016126ff565b9150509250929050565b612812816126de565b82525050565b600060208201905061282d6000830184612809565b92915050565b600080fd5b7f4e487b7100000000000000000000000000000000000000000000000000000000600052604160045260246000fd5b61287082612672565b810181811067ffffffffffffffff8211171561288f5761288e612838565b5b80604052505050565b60006128a261255d565b90506128ae8282612867565b919050565b600067ffffffffffffffff8211156128ce576128cd612838565b5b602082029050602081019050919050565b600080fd5b60006128f76128f2846128b3565b612898565b9050808382526020820190506020840283018581111561291a576129196128df565b5b835b81811015612943578061292f88826126ff565b84526020840193505060208101905061291c565b5050509392505050565b600082601f83011261296257612961612833565b5b81356129728482602086016128e4565b91505092915050565b6000806040838503121561299257612991612567565b5b60006129a0858286016126ff565b925050602083013567ffffffffffffffff8111156129c1576129c061256c565b5b6129cd8582860161294d565b9150509250929050565b6000806000606084860312156129f0576129ef612567565b5b60006129fe868287016127b4565b9350506020612a0f868287016127b4565b9250506040612a20868287016126ff565b9150509250925092565b600060039050919050565b600081905092915050565b6000819050919050565b612a53816126de565b82525050565b6000612a658383612a4a565b60208301905092915050565b6000602082019050919050565b612a8781612a2a565b612a918184612a35565b9250612a9c82612a40565b8060005b83811015612acd578151612ab48782612a59565b9650612abf83612a71565b925050600181019050612aa0565b505050505050565b6000606082019050612aea6000830184612a7e565b92915050565b600060208284031215612b0657612b05612567565b5b6000612b14848285016127b4565b91505092915050565b612b26816125f6565b8114612b3157600080fd5b50565b600081359050612b4381612b1d565b92915050565b60008060408385031215612b6057612b5f612567565b5b6000612b6e858286016127b4565b9250506020612b7f85828601612b34565b9150509250929050565b7f4e487b7100000000000000000000000000000000000000000000000000000000600052602160045260246000fd5b60038110612bc957612bc8612b89565b5b50565b6000819050612bda82612bb8565b919050565b6000612bea82612bcc565b9050919050565b612bfa81612bdf565b82525050565b6000602082019050612c156000830184612bf1565b92915050565b600080fd5b600067ffffffffffffffff821115612c3b57612c3a612838565b5b612c4482612672565b9050602081019050919050565b82818337600083830152505050565b6000612c73612c6e84612c20565b612898565b905082815260208101848484011115612c8f57612c8e612c1b565b5b612c9a848285612c51565b509392505050565b600082601f830112612cb757612cb6612833565b5b8135612cc7848260208601612c60565b91505092915050565b60008060008060808587031215612cea57612ce9612567565b5b6000612cf8878288016127b4565b9450506020612d09878288016127b4565b9350506040612d1a878288016126ff565b925050606085013567ffffffffffffffff811115612d3b57612d3a61256c565b5b612d4787828801612ca2565b91505092959194509250565b60008060408385031215612d6a57612d69612567565b5b6000612d78858286016127b4565b9250506020612d89858286016127b4565b9150509250929050565b7f4e487b7100000000000000000000000000000000000000000000000000000000600052602260045260246000fd5b60006002820490506001821680612dda57607f821691505b602082108103612ded57612dec612d93565b5b50919050565b7f4552433732313a20617070726f76616c20746f2063757272656e74206f776e6560008201527f7200000000000000000000000000000000000000000000000000000000000000602082015250565b6000612e4f602183612637565b9150612e5a82612df3565b604082019050919050565b60006020820190508181036000830152612e7e81612e42565b9050919050565b7f4552433732313a20617070726f76652063616c6c6572206973206e6f7420746f60008201527f6b656e206f776e6572206f7220617070726f76656420666f7220616c6c000000602082015250565b6000612ee1603d83612637565b9150612eec82612e85565b604082019050919050565b60006020820190508181036000830152612f1081612ed4565b9050919050565b6000604082019050612f2c6000830185612773565b612f396020830184612773565b9392505050565b7f4552433732313a2063616c6c6572206973206e6f7420746f6b656e206f776e6560008201527f72206f7220617070726f76656400000000000000000000000000000000000000602082015250565b6000612f9c602d83612637565b9150612fa782612f40565b604082019050919050565b60006020820190508181036000830152612fcb81612f8f565b9050919050565b7f4e487b7100000000000000000000000000000000000000000000000000000000600052603260045260246000fd5b600081905092915050565b50565b600061301c600083613001565b91506130278261300c565b600082019050919050565b600061303d8261300f565b9150819050919050565b7f4552433732313a20696e76616c696420746f6b656e2049440000000000000000600082015250565b600061307d601883612637565b915061308882613047565b602082019050919050565b600060208201905081810360008301526130ac81613070565b9050919050565b7f4552433732313a2061646472657373207a65726f206973206e6f74206120766160008201527f6c6964206f776e65720000000000000000000000000000000000000000000000602082015250565b600061310f602983612637565b915061311a826130b3565b604082019050919050565b6000602082019050818103600083015261313e81613102565b9050919050565b7f4e487b7100000000000000000000000000000000000000000000000000000000600052601160045260246000fd5b600061317f826126de565b915061318a836126de565b92508282019050808211156131a2576131a1613145565b5b92915050565b60006131b3826126de565b91507fffffffffffffffffffffffffffffffffffffffffffffffffffffffffffffffff82036131e5576131e4613145565b5b600182019050919050565b6000819050919050565b613203816131f0565b82525050565b600067ffffffffffffffff82169050919050565b61322681613209565b82525050565b600061ffff82169050919050565b6132438161322c565b82525050565b600063ffffffff82169050919050565b61326281613249565b82525050565b600060a08201905061327d60008301886131fa565b61328a602083018761321d565b613297604083018661323a565b6132a46060830185613259565b6132b16080830184613259565b9695505050505050565b6000815190506132ca816126e8565b92915050565b6000602082840312156132e6576132e5612567565b5b60006132f4848285016132bb565b91505092915050565b600081905092915050565b60006133138261262c565b61331d81856132fd565b935061332d818560208601612648565b80840191505092915050565b60006133458285613308565b91506133518284613308565b91508190509392505050565b7f4f776e61626c653a206e6577206f776e657220697320746865207a65726f206160008201527f6464726573730000000000000000000000000000000000000000000000000000602082015250565b60006133b9602683612637565b91506133c48261335d565b604082019050919050565b600060208201905081810360008301526133e8816133ac565b9050919050565b7f4e487b7100000000000000000000000000000000000000000000000000000000600052601260045260246000fd5b6000613429826126de565b9150613434836126de565b925082613444576134436133ef565b5b828206905092915050565b60006040820190506134646000830185612bf1565b6134716020830184612773565b9392505050565b7f4552433732313a207472616e736665722066726f6d20696e636f72726563742060008201527f6f776e6572000000000000000000000000000000000000000000000000000000602082015250565b60006134d4602583612637565b91506134df82613478565b604082019050919050565b60006020820190508181036000830152613503816134c7565b9050919050565b7f4552433732313a207472616e7366657220746f20746865207a65726f2061646460008201527f7265737300000000000000000000000000000000000000000000000000000000602082015250565b6000613566602483612637565b91506135718261350a565b604082019050919050565b6000602082019050818103600083015261359581613559565b9050919050565b7f4f776e61626c653a2063616c6c6572206973206e6f7420746865206f776e6572600082015250565b60006135d2602083612637565b91506135dd8261359c565b602082019050919050565b60006020820190508181036000830152613601816135c5565b9050919050565b7f4552433732313a20617070726f766520746f2063616c6c657200000000000000600082015250565b600061363e601983612637565b915061364982613608565b602082019050919050565b6000602082019050818103600083015261366d81613631565b9050919050565b7f4552433732313a207472616e7366657220746f206e6f6e20455243373231526560008201527f63656976657220696d706c656d656e7465720000000000000000000000000000602082015250565b60006136d0603283612637565b91506136db82613674565b604082019050919050565b600060208201905081810360008301526136ff816136c3565b9050919050565b7f45524337323155524953746f726167653a2055524920736574206f66206e6f6e60008201527f6578697374656e7420746f6b656e000000000000000000000000000000000000602082015250565b6000613762602e83612637565b915061376d82613706565b604082019050919050565b6000602082019050818103600083015261379181613755565b9050919050565b60008190508160005260206000209050919050565b60006020601f8301049050919050565b600082821b905092915050565b6000600883026137fa7fffffffffffffffffffffffffffffffffffffffffffffffffffffffffffffffff826137bd565b61380486836137bd565b95508019841693508086168417925050509392505050565b6000819050919050565b600061384161383c613837846126de565b61381c565b6126de565b9050919050565b6000819050919050565b61385b83613826565b61386f61386782613848565b8484546137ca565b825550505050565b600090565b613884613877565b61388f818484613852565b505050565b5b818110156138b3576138a860008261387c565b600181019050613895565b5050565b601f8211156138f8576138c981613798565b6138d2846137ad565b810160208510156138e1578190505b6138f56138ed856137ad565b830182613894565b50505b505050565b600082821c905092915050565b600061391b600019846008026138fd565b1980831691505092915050565b6000613934838361390a565b9150826002028217905092915050565b61394d8261262c565b67ffffffffffffffff81111561396657613965612838565b5b6139708254612dc2565b61397b8282856138b7565b600060209050601f8311600181146139ae576000841561399c578287015190505b6139a68582613928565b865550613a0e565b601f1984166139bc86613798565b60005b828110156139e4578489015182556001820191506020850194506020810190506139bf565b86831015613a0157848901516139fd601f89168261390a565b8355505b6001600288020188555050505b505050505050565b600081519050919050565b600082825260208201905092915050565b6000613a3d82613a16565b613a478185613a21565b9350613a57818560208601612648565b613a6081612672565b840191505092915050565b6000608082019050613a806000830187612773565b613a8d6020830186612773565b613a9a6040830185612809565b8181036060830152613aac8184613a32565b905095945050505050565b600081519050613ac68161259d565b92915050565b600060208284031215613ae257613ae1612567565b5b6000613af084828501613ab7565b91505092915050565b7f4552433732313a206d696e7420746f20746865207a65726f2061646472657373600082015250565b6000613b2f602083612637565b9150613b3a82613af9565b602082019050919050565b60006020820190508181036000830152613b5e81613b22565b9050919050565b7f4552433732313a20746f6b656e20616c7265616479206d696e74656400000000600082015250565b6000613b9b601c83612637565b9150613ba682613b65565b602082019050919050565b60006020820190508181036000830152613bca81613b8e565b905091905056fea264697066735822122084a2380cde9b95317c0e74065f8173df3cac376ae2dddf7cb6d6a8e4e94ca5e064736f6c63430008110033",
  "linkReferences": {},
  "deployedLinkReferences": {}
}